{
	"data": {
		"bytecode": {
			"linkReferences": {},
			"object": "608060405234801561001057600080fd5b506170cd80620000216000396000f3fe6080604052600436106101cc5760003560e01c806386599d5c116100f7578063c45a015511610095578063e985e9c511610064578063e985e9c5146106d2578063f242432a1461070f578063f2fde38b14610738578063f851a44014610761576101cc565b8063c45a015514610618578063c7404b6314610643578063d9f165dc14610680578063e9758b72146106a9576101cc565b80639d445d1d116100d15780639d445d1d1461056d578063a22cb46514610589578063a8368f33146105b2578063aa0b5988146105ef576101cc565b806386599d5c146104f05780638988f272146105195780638da5cb5b14610542576101cc565b80632ee7b7b41161016f5780634e1273f41161013e5780634e1273f4146104365780635c0fedb514610473578063715018a61461049c5780637973bd1e146104b3576101cc565b80632ee7b7b414610342578063354030231461037f57806336fdc2b4146103bc5780634d839081146103f9576101cc565b80631f7fdffa116101ab5780631f7fdffa1461028857806326232a2e146102b15780632693ebf2146102dc5780632eb2c2d614610319576101cc565b8062fdd58e146101d157806301ffc9a71461020e5780630e89341c1461024b575b600080fd5b3480156101dd57600080fd5b506101f860048036038101906101f39190614132565b61078c565b6040516102059190614181565b60405180910390f35b34801561021a57600080fd5b50610235600480360381019061023091906141f4565b610855565b604051610242919061423c565b60405180910390f35b34801561025757600080fd5b50610272600480360381019061026d9190614257565b610937565b60405161027f9190614314565b60405180910390f35b34801561029457600080fd5b506102af60048036038101906102aa9190614533565b610a1c565b005b3480156102bd57600080fd5b506102c6610ac7565b6040516102d39190614181565b60405180910390f35b3480156102e857600080fd5b5061030360048036038101906102fe9190614257565b610ace565b6040516103109190614181565b60405180910390f35b34801561032557600080fd5b50610340600480360381019061033b91906145ee565b610b42565b005b34801561034e57600080fd5b5061036960048036038101906103649190614783565b610be3565b60405161037691906147db565b60405180910390f35b34801561038b57600080fd5b506103a660048036038101906103a19190614257565b610c6b565b6040516103b39190614181565b60405180910390f35b3480156103c857600080fd5b506103e360048036038101906103de919061495b565b610c84565b6040516103f091906147db565b60405180910390f35b34801561040557600080fd5b50610420600480360381019061041b9190614257565b610d0d565b60405161042d919061423c565b60405180910390f35b34801561044257600080fd5b5061045d60048036038101906104589190614a67565b610d2e565b60405161046a9190614b9d565b60405180910390f35b34801561047f57600080fd5b5061049a6004803603810190610495919061495b565b610e47565b005b3480156104a857600080fd5b506104b1610f77565b005b3480156104bf57600080fd5b506104da60048036038101906104d59190614c7b565b610f8b565b6040516104e791906147db565b60405180910390f35b3480156104fc57600080fd5b5061051760048036038101906105129190614cc4565b611013565b005b34801561052557600080fd5b50610540600480360381019061053b9190614c7b565b6113d2565b005b34801561054e57600080fd5b50610557611496565b60405161056491906147db565b60405180910390f35b61058760048036038101906105829190614d5b565b6114c0565b005b34801561059557600080fd5b506105b060048036038101906105ab9190614dff565b611ecb565b005b3480156105be57600080fd5b506105d960048036038101906105d49190614257565b611ee1565b6040516105e69190614181565b60405180910390f35b3480156105fb57600080fd5b5061061660048036038101906106119190614257565b611efa565b005b34801561062457600080fd5b5061062d611fd9565b60405161063a9190614e9e565b60405180910390f35b34801561064f57600080fd5b5061066a60048036038101906106659190614257565b612000565b604051610677919061423c565b60405180910390f35b34801561068c57600080fd5b506106a760048036038101906106a29190614eb9565b612021565b005b3480156106b557600080fd5b506106d060048036038101906106cb9190614ee6565b612166565b005b3480156106de57600080fd5b506106f960048036038101906106f49190614f39565b61220f565b604051610706919061423c565b60405180910390f35b34801561071b57600080fd5b5061073660048036038101906107319190614f79565b6122a3565b005b34801561074457600080fd5b5061075f600480360381019061075a9190614eb9565b612348565b005b34801561076d57600080fd5b506107766123cb565b60405161078391906147db565b60405180910390f35b60008073ffffffffffffffffffffffffffffffffffffffff168373ffffffffffffffffffffffffffffffffffffffff16036107fc576040517f08c379a00000000000000000000000000000000000000000000000000000000081526004016107f390615082565b60405180910390fd5b6065600083815260200190815260200160002060008473ffffffffffffffffffffffffffffffffffffffff1673ffffffffffffffffffffffffffffffffffffffff16815260200190815260200160002054905092915050565b60007fd9b67a26000000000000000000000000000000000000000000000000000000007bffffffffffffffffffffffffffffffffffffffffffffffffffffffff1916827bffffffffffffffffffffffffffffffffffffffffffffffffffffffff1916148061092057507f0e89341c000000000000000000000000000000000000000000000000000000007bffffffffffffffffffffffffffffffffffffffffffffffffffffffff1916827bffffffffffffffffffffffffffffffffffffffffffffffffffffffff1916145b80610930575061092f826123f2565b5b9050919050565b60606000609860008481526020019081526020016000208054610959906150d1565b80601f0160208091040260200160405190810160405280929190818152602001828054610985906150d1565b80156109d25780601f106109a7576101008083540402835291602001916109d2565b820191906000526020600020905b8154815290600101906020018083116109b557829003601f168201915b5050505050905060008151116109f0576109eb8361245c565b610a14565b609781604051602001610a049291906151d6565b6040516020818303038152906040525b915050919050565b610a246124f0565b61016160009054906101000a900473ffffffffffffffffffffffffffffffffffffffff1673ffffffffffffffffffffffffffffffffffffffff163373ffffffffffffffffffffffffffffffffffffffff1614610ab5576040517f08c379a0000000000000000000000000000000000000000000000000000000008152600401610aac90615246565b60405180910390fd5b610ac18484848461256e565b50505050565b6101635481565b60008061016560008481526020019081526020016000205411610b26576040517f08c379a0000000000000000000000000000000000000000000000000000000008152600401610b1d906152b2565b60405180910390fd5b6101656000838152602001908152602001600020549050919050565b610b4a61279b565b73ffffffffffffffffffffffffffffffffffffffff168573ffffffffffffffffffffffffffffffffffffffff161480610b905750610b8f85610b8a61279b565b61220f565b5b610bcf576040517f08c379a0000000000000000000000000000000000000000000000000000000008152600401610bc690615344565b60405180910390fd5b610bdc85858585856127a3565b5050505050565b600080610c537ff5c1762e6b057b9a7f4a03e9d9d3276e2615b1c413dd8ac9923ace9b61f18ad084600001518560200151866040015187606001518860800151604051602001610c389695949392919061537d565b60405160208183030381529060405280519060200120612ac7565b9050610c63818460a00151612ae1565b915050919050565b6101656020528060005260406000206000915090505481565b600080610cf57f0a5ffd2419a6d87a8d8e4dafed50ab88678e4ae4bd92e619821447ef3e33cbb7846000015185602001518660400151805190602001208760600151604051602001610cda9594939291906153de565b60405160208183030381529060405280519060200120612ac7565b9050610d05818460800151612ae1565b915050919050565b6101676020528060005260406000206000915054906101000a900460ff1681565b60608151835114610d74576040517f08c379a0000000000000000000000000000000000000000000000000000000008152600401610d6b906154a3565b60405180910390fd5b6000835167ffffffffffffffff811115610d9157610d9061433b565b5b604051908082528060200260200182016040528015610dbf5781602001602082028036833780820191505090505b50905060005b8451811015610e3c57610e0c858281518110610de457610de36154c3565b5b6020026020010151858381518110610dff57610dfe6154c3565b5b602002602001015161078c565b828281518110610e1f57610e1e6154c3565b5b60200260200101818152505080610e3590615521565b9050610dc5565b508091505092915050565b60006101656000836000015181526020019081526020016000205414610ea2576040517f08c379a0000000000000000000000000000000000000000000000000000000008152600401610e99906155b5565b60405180910390fd5b61016160009054906101000a900473ffffffffffffffffffffffffffffffffffffffff1673ffffffffffffffffffffffffffffffffffffffff16610ee582610c84565b73ffffffffffffffffffffffffffffffffffffffff1614610f3b576040517f08c379a0000000000000000000000000000000000000000000000000000000008152600401610f3290615621565b60405180910390fd5b610f6281606001518260000151836020015160405180602001604052806000815250612b08565b610f7481600001518260400151612b45565b50565b610f7f6124f0565b610f896000612baa565b565b600080610ffb7f68d06bacb4d0aae33dfec3fdc8b2b282be99ccd0f1dec38327e55be6d298392a84600001518560200151866040015187606001518860800151604051602001610fe09695949392919061537d565b60405160208183030381529060405280519060200120612ac7565b905061100b818460a00151612ae1565b915050919050565b60008060019054906101000a900460ff161590508080156110445750600160008054906101000a900460ff1660ff16105b80611071575061105330612c70565b1580156110705750600160008054906101000a900460ff1660ff16145b5b6110b0576040517f08c379a00000000000000000000000000000000000000000000000000000000081526004016110a7906156b3565b60405180910390fd5b60016000806101000a81548160ff021916908360ff16021790555080156110ed576001600060016101000a81548160ff0219169083151502179055505b600073ffffffffffffffffffffffffffffffffffffffff168473ffffffffffffffffffffffffffffffffffffffff160361115c576040517f08c379a00000000000000000000000000000000000000000000000000000000081526004016111539061571f565b60405180910390fd5b600073ffffffffffffffffffffffffffffffffffffffff168273ffffffffffffffffffffffffffffffffffffffff16036111cb576040517f08c379a00000000000000000000000000000000000000000000000000000000081526004016111c29061578b565b60405180910390fd5b6000831161120e576040517f08c379a0000000000000000000000000000000000000000000000000000000008152600401611205906157f7565b60405180910390fd5b61121786612c93565b61121f612cee565b6112936040518060400160405280600a81526020017f5845474152415f4e4654000000000000000000000000000000000000000000008152506040518060400160405280600181526020017f3100000000000000000000000000000000000000000000000000000000000000815250612d5e565b61129b612dd9565b6112a3612e3a565b8161016260006101000a81548173ffffffffffffffffffffffffffffffffffffffff021916908373ffffffffffffffffffffffffffffffffffffffff1602179055508361016460006101000a81548173ffffffffffffffffffffffffffffffffffffffff021916908373ffffffffffffffffffffffffffffffffffffffff16021790555082610163819055508461016160006101000a81548173ffffffffffffffffffffffffffffffffffffffff021916908373ffffffffffffffffffffffffffffffffffffffff16021790555080156113ca5760008060016101000a81548160ff0219169083151502179055507f7f26b83ff96e1f2b6a682f133852f6798a09c465da95921460cefb384740249860016040516113c1919061585f565b60405180910390a15b505050505050565b3373ffffffffffffffffffffffffffffffffffffffff16816080015173ffffffffffffffffffffffffffffffffffffffff1614611444576040517f08c379a000000000000000000000000000000000000000000000000000000000815260040161143b906158c6565b60405180910390fd5b600061016960008360400151815260200190815260200160002081905550600161016760008360400151815260200190815260200160002060006101000a81548160ff02191690831515021790555050565b600060c960009054906101000a900473ffffffffffffffffffffffffffffffffffffffff16905090565b6114c8612e94565b42607882606001516114da91906158e6565b101561151b576040517f08c379a000000000000000000000000000000000000000000000000000000000815260040161151290615966565b60405180910390fd5b600073ffffffffffffffffffffffffffffffffffffffff16816080015173ffffffffffffffffffffffffffffffffffffffff160361158e576040517f08c379a0000000000000000000000000000000000000000000000000000000008152600401611585906159d2565b60405180910390fd5b600073ffffffffffffffffffffffffffffffffffffffff16826080015173ffffffffffffffffffffffffffffffffffffffff1603611601576040517f08c379a00000000000000000000000000000000000000000000000000000000081526004016115f890615a3e565b60405180910390fd5b6116138260800151836020015161078c565b81602001511115611659576040517f08c379a000000000000000000000000000000000000000000000000000000000815260040161165090615aaa565b60405180910390fd5b60008160200151116116a0576040517f08c379a000000000000000000000000000000000000000000000000000000000815260040161169790615b16565b60405180910390fd5b61016860008260400151815260200190815260200160002060009054906101000a900460ff1615611706576040517f08c379a00000000000000000000000000000000000000000000000000000000081526004016116fd90615b82565b60405180910390fd5b611714828260200151612ee5565b816080015173ffffffffffffffffffffffffffffffffffffffff1661173883610f8b565b73ffffffffffffffffffffffffffffffffffffffff161461178e576040517f08c379a000000000000000000000000000000000000000000000000000000000815260040161178590615621565b60405180910390fd5b61016260009054906101000a900473ffffffffffffffffffffffffffffffffffffffff1673ffffffffffffffffffffffffffffffffffffffff166117d182610be3565b73ffffffffffffffffffffffffffffffffffffffff1614611827576040517f08c379a000000000000000000000000000000000000000000000000000000000815260040161181e90615bee565b60405180910390fd5b60008160200151826000015161183d9190615c0e565b9050600061271061016354836118539190615c0e565b61185d9190615c7f565b9050600173ffffffffffffffffffffffffffffffffffffffff16836080015173ffffffffffffffffffffffffffffffffffffffff1603611a7557813410156118da576040517f08c379a00000000000000000000000000000000000000000000000000000000081526004016118d190615cfc565b60405180910390fd5b60003373ffffffffffffffffffffffffffffffffffffffff1682846118ff9190615d1c565b60405161190b90615d81565b60006040518083038185875af1925050503d8060008114611948576040519150601f19603f3d011682016040523d82523d6000602084013e61194d565b606091505b505090506001151581151514611998576040517f08c379a000000000000000000000000000000000000000000000000000000000815260040161198f90615de2565b60405180910390fd5b600061016160009054906101000a900473ffffffffffffffffffffffffffffffffffffffff1673ffffffffffffffffffffffffffffffffffffffff16836040516119e190615d81565b60006040518083038185875af1925050503d8060008114611a1e576040519150601f19603f3d011682016040523d82523d6000602084013e611a23565b606091505b505090506001151581151514611a6e576040517f08c379a0000000000000000000000000000000000000000000000000000000008152600401611a6590615e4e565b60405180910390fd5b5050611c72565b81836080015173ffffffffffffffffffffffffffffffffffffffff166370a08231336040518263ffffffff1660e01b8152600401611ab391906147db565b602060405180830381865afa158015611ad0573d6000803e3d6000fd5b505050506040513d601f19601f82011682018060405250810190611af49190615e83565b1015611b35576040517f08c379a0000000000000000000000000000000000000000000000000000000008152600401611b2c90615cfc565b60405180910390fd5b826080015173ffffffffffffffffffffffffffffffffffffffff166323b872dd3386608001518486611b679190615d1c565b6040518463ffffffff1660e01b8152600401611b8593929190615eb0565b6020604051808303816000875af1158015611ba4573d6000803e3d6000fd5b505050506040513d601f19601f82011682018060405250810190611bc89190615efc565b50826080015173ffffffffffffffffffffffffffffffffffffffff166323b872dd3361016160009054906101000a900473ffffffffffffffffffffffffffffffffffffffff16846040518463ffffffff1660e01b8152600401611c2d93929190615eb0565b6020604051808303816000875af1158015611c4c573d6000803e3d6000fd5b505050506040513d601f19601f82011682018060405250810190611c709190615efc565b505b600073ffffffffffffffffffffffffffffffffffffffff1661016460009054906101000a900473ffffffffffffffffffffffffffffffffffffffff1673ffffffffffffffffffffffffffffffffffffffff1663e429187186602001516040518263ffffffff1660e01b8152600401611cea9190614181565b602060405180830381865afa158015611d07573d6000803e3d6000fd5b505050506040513d601f19601f82011682018060405250810190611d2b9190615f3e565b73ffffffffffffffffffffffffffffffffffffffff1614611e6457600061016460009054906101000a900473ffffffffffffffffffffffffffffffffffffffff1673ffffffffffffffffffffffffffffffffffffffff1663e429187186602001516040518263ffffffff1660e01b8152600401611da89190614181565b602060405180830381865afa158015611dc5573d6000803e3d6000fd5b505050506040513d601f19601f82011682018060405250810190611de99190615f3e565b90508073ffffffffffffffffffffffffffffffffffffffff1663c853085385602001518760800151336040518463ffffffff1660e01b8152600401611e3093929190615f6b565b600060405180830381600087803b158015611e4a57600080fd5b505af1158015611e5e573d6000803e3d6000fd5b50505050505b600161016860008560400151815260200190815260200160002060006101000a81548160ff021916908315150217905550611ebd8460800151338660200151866020015160405180602001604052806000815250613036565b5050611ec76132d4565b5050565b611edd611ed661279b565b83836132df565b5050565b6101696020528060005260406000206000915090505481565b61016160009054906101000a900473ffffffffffffffffffffffffffffffffffffffff1673ffffffffffffffffffffffffffffffffffffffff163373ffffffffffffffffffffffffffffffffffffffff1614611f8b576040517f08c379a0000000000000000000000000000000000000000000000000000000008152600401611f8290615fee565b60405180910390fd5b60008111611fce576040517f08c379a0000000000000000000000000000000000000000000000000000000008152600401611fc5906157f7565b60405180910390fd5b806101638190555050565b61016460009054906101000a900473ffffffffffffffffffffffffffffffffffffffff1681565b6101686020528060005260406000206000915054906101000a900460ff1681565b61016160009054906101000a900473ffffffffffffffffffffffffffffffffffffffff1673ffffffffffffffffffffffffffffffffffffffff163373ffffffffffffffffffffffffffffffffffffffff16146120b2576040517f08c379a00000000000000000000000000000000000000000000000000000000081526004016120a990615fee565b60405180910390fd5b600073ffffffffffffffffffffffffffffffffffffffff168173ffffffffffffffffffffffffffffffffffffffff1603612121576040517f08c379a00000000000000000000000000000000000000000000000000000000081526004016121189061605a565b60405180910390fd5b8061016460006101000a81548173ffffffffffffffffffffffffffffffffffffffff021916908373ffffffffffffffffffffffffffffffffffffffff16021790555050565b61216e6124f0565b61016160009054906101000a900473ffffffffffffffffffffffffffffffffffffffff1673ffffffffffffffffffffffffffffffffffffffff163373ffffffffffffffffffffffffffffffffffffffff16146121ff576040517f08c379a00000000000000000000000000000000000000000000000000000000081526004016121f690615246565b60405180910390fd5b61220a83838361344b565b505050565b6000606660008473ffffffffffffffffffffffffffffffffffffffff1673ffffffffffffffffffffffffffffffffffffffff16815260200190815260200160002060008373ffffffffffffffffffffffffffffffffffffffff1673ffffffffffffffffffffffffffffffffffffffff16815260200190815260200160002060009054906101000a900460ff16905092915050565b61016160009054906101000a900473ffffffffffffffffffffffffffffffffffffffff1673ffffffffffffffffffffffffffffffffffffffff163373ffffffffffffffffffffffffffffffffffffffff1614612334576040517f08c379a000000000000000000000000000000000000000000000000000000000815260040161232b906160c6565b60405180910390fd5b6123418585858585613693565b5050505050565b6123506124f0565b600073ffffffffffffffffffffffffffffffffffffffff168173ffffffffffffffffffffffffffffffffffffffff16036123bf576040517f08c379a00000000000000000000000000000000000000000000000000000000081526004016123b690616158565b60405180910390fd5b6123c881612baa565b50565b61016160009054906101000a900473ffffffffffffffffffffffffffffffffffffffff1681565b60007f01ffc9a7000000000000000000000000000000000000000000000000000000007bffffffffffffffffffffffffffffffffffffffffffffffffffffffff1916827bffffffffffffffffffffffffffffffffffffffffffffffffffffffff1916149050919050565b60606067805461246b906150d1565b80601f0160208091040260200160405190810160405280929190818152602001828054612497906150d1565b80156124e45780601f106124b9576101008083540402835291602001916124e4565b820191906000526020600020905b8154815290600101906020018083116124c757829003601f168201915b50505050509050919050565b6124f861279b565b73ffffffffffffffffffffffffffffffffffffffff16612516611496565b73ffffffffffffffffffffffffffffffffffffffff161461256c576040517f08c379a0000000000000000000000000000000000000000000000000000000008152600401612563906161c4565b60405180910390fd5b565b600073ffffffffffffffffffffffffffffffffffffffff168473ffffffffffffffffffffffffffffffffffffffff16036125dd576040517f08c379a00000000000000000000000000000000000000000000000000000000081526004016125d490616256565b60405180910390fd5b8151835114612621576040517f08c379a0000000000000000000000000000000000000000000000000000000008152600401612618906162e8565b60405180910390fd5b600061262b61279b565b905061263c81600087878787613734565b60005b84518110156126f65783818151811061265b5761265a6154c3565b5b60200260200101516065600087848151811061267a576126796154c3565b5b6020026020010151815260200190815260200160002060008873ffffffffffffffffffffffffffffffffffffffff1673ffffffffffffffffffffffffffffffffffffffff16815260200190815260200160002060008282546126dc91906158e6565b9250508190555080806126ee90615521565b91505061263f565b508473ffffffffffffffffffffffffffffffffffffffff16600073ffffffffffffffffffffffffffffffffffffffff168273ffffffffffffffffffffffffffffffffffffffff167f4a39dc06d4c0dbc64b70af90fd698a233a518aa5d07e595d983b8c0526c8f7fb878760405161276e929190616308565b60405180910390a46127858160008787878761373c565b61279481600087878787613744565b5050505050565b600033905090565b81518351146127e7576040517f08c379a00000000000000000000000000000000000000000000000000000000081526004016127de906162e8565b60405180910390fd5b600073ffffffffffffffffffffffffffffffffffffffff168473ffffffffffffffffffffffffffffffffffffffff1603612856576040517f08c379a000000000000000000000000000000000000000000000000000000000815260040161284d906163b1565b60405180910390fd5b600061286061279b565b9050612870818787878787613734565b60005b8451811015612a24576000858281518110612891576128906154c3565b5b6020026020010151905060008583815181106128b0576128af6154c3565b5b6020026020010151905060006065600084815260200190815260200160002060008b73ffffffffffffffffffffffffffffffffffffffff1673ffffffffffffffffffffffffffffffffffffffff16815260200190815260200160002054905081811015612952576040517f08c379a000000000000000000000000000000000000000000000000000000000815260040161294990616443565b60405180910390fd5b8181036065600085815260200190815260200160002060008c73ffffffffffffffffffffffffffffffffffffffff1673ffffffffffffffffffffffffffffffffffffffff16815260200190815260200160002081905550816065600085815260200190815260200160002060008b73ffffffffffffffffffffffffffffffffffffffff1673ffffffffffffffffffffffffffffffffffffffff1681526020019081526020016000206000828254612a0991906158e6565b9250508190555050505080612a1d90615521565b9050612873565b508473ffffffffffffffffffffffffffffffffffffffff168673ffffffffffffffffffffffffffffffffffffffff168273ffffffffffffffffffffffffffffffffffffffff167f4a39dc06d4c0dbc64b70af90fd698a233a518aa5d07e595d983b8c0526c8f7fb8787604051612a9b929190616308565b60405180910390a4612ab181878787878761373c565b612abf818787878787613744565b505050505050565b6000612ada612ad461391b565b8361395b565b9050919050565b6000806000612af0858561398e565b91509150612afd816139df565b819250505092915050565b8161016560008581526020019081526020016000206000828254612b2c91906158e6565b92505081905550612b3f84848484613b45565b50505050565b80609860008481526020019081526020016000209081612b6591906165f0565b50817f6bb7ff708619ba0610cba295a58592e0451dee2622938c8755667688daf3529b612b9184610937565b604051612b9e9190614314565b60405180910390a25050565b600060c960009054906101000a900473ffffffffffffffffffffffffffffffffffffffff1690508160c960006101000a81548173ffffffffffffffffffffffffffffffffffffffff021916908373ffffffffffffffffffffffffffffffffffffffff1602179055508173ffffffffffffffffffffffffffffffffffffffff168173ffffffffffffffffffffffffffffffffffffffff167f8be0079c531659141344cd1fd0a4f28419497f9722a3daafe3b4186f6b6457e060405160405180910390a35050565b6000808273ffffffffffffffffffffffffffffffffffffffff163b119050919050565b600060019054906101000a900460ff16612ce2576040517f08c379a0000000000000000000000000000000000000000000000000000000008152600401612cd990616734565b60405180910390fd5b612ceb81613cf6565b50565b600060019054906101000a900460ff16612d3d576040517f08c379a0000000000000000000000000000000000000000000000000000000008152600401612d3490616734565b60405180910390fd5b6040518060200160405280600081525060979081612d5b91906165f0565b50565b600060019054906101000a900460ff16612dad576040517f08c379a0000000000000000000000000000000000000000000000000000000008152600401612da490616734565b60405180910390fd5b6000828051906020012090506000828051906020012090508160fb819055508060fc8190555050505050565b600060019054906101000a900460ff16612e28576040517f08c379a0000000000000000000000000000000000000000000000000000000008152600401612e1f90616734565b60405180910390fd5b612e38612e3361279b565b612baa565b565b600060019054906101000a900460ff16612e89576040517f08c379a0000000000000000000000000000000000000000000000000000000008152600401612e8090616734565b60405180910390fd5b600161012f81905550565b600261012f5403612eda576040517f08c379a0000000000000000000000000000000000000000000000000000000008152600401612ed1906167a0565b60405180910390fd5b600261012f81905550565b61016760008360400151815260200190815260200160002060009054906101000a900460ff1615612f4b576040517f08c379a0000000000000000000000000000000000000000000000000000000008152600401612f429061680c565b60405180910390fd5b600061016960008460400151815260200190815260200160002054905060008103612f8757818360600151612f809190615d1c565b9050612f96565b8181612f939190615d1c565b90505b6000811015612fda576040517f08c379a0000000000000000000000000000000000000000000000000000000008152600401612fd190616878565b60405180910390fd5b80610169600085604001518152602001908152602001600020819055506000810361303157600161016760008560400151815260200190815260200160002060006101000a81548160ff0219169083151502179055505b505050565b600073ffffffffffffffffffffffffffffffffffffffff168473ffffffffffffffffffffffffffffffffffffffff16036130a5576040517f08c379a000000000000000000000000000000000000000000000000000000000815260040161309c906163b1565b60405180910390fd5b60006130af61279b565b905060006130bc85613d09565b905060006130c985613d09565b90506130d9838989858589613734565b60006065600088815260200190815260200160002060008a73ffffffffffffffffffffffffffffffffffffffff1673ffffffffffffffffffffffffffffffffffffffff16815260200190815260200160002054905085811015613171576040517f08c379a000000000000000000000000000000000000000000000000000000000815260040161316890616443565b60405180910390fd5b8581036065600089815260200190815260200160002060008b73ffffffffffffffffffffffffffffffffffffffff1673ffffffffffffffffffffffffffffffffffffffff16815260200190815260200160002081905550856065600089815260200190815260200160002060008a73ffffffffffffffffffffffffffffffffffffffff1673ffffffffffffffffffffffffffffffffffffffff168152602001908152602001600020600082825461322891906158e6565b925050819055508773ffffffffffffffffffffffffffffffffffffffff168973ffffffffffffffffffffffffffffffffffffffff168573ffffffffffffffffffffffffffffffffffffffff167fc3d58168c5ae7397731d063d5bbf3d657854427343f4c083240f7aacaa2d0f628a8a6040516132a5929190616898565b60405180910390a46132bb848a8a86868a61373c565b6132c9848a8a8a8a8a613d83565b505050505050505050565b600161012f81905550565b8173ffffffffffffffffffffffffffffffffffffffff168373ffffffffffffffffffffffffffffffffffffffff160361334d576040517f08c379a000000000000000000000000000000000000000000000000000000000815260040161334490616933565b60405180910390fd5b80606660008573ffffffffffffffffffffffffffffffffffffffff1673ffffffffffffffffffffffffffffffffffffffff16815260200190815260200160002060008473ffffffffffffffffffffffffffffffffffffffff1673ffffffffffffffffffffffffffffffffffffffff16815260200190815260200160002060006101000a81548160ff0219169083151502179055508173ffffffffffffffffffffffffffffffffffffffff168373ffffffffffffffffffffffffffffffffffffffff167f17307eab39ab6107e8899845ad3d59bd9653f200f220920489ca2b5937696c318360405161343e919061423c565b60405180910390a3505050565b600073ffffffffffffffffffffffffffffffffffffffff168373ffffffffffffffffffffffffffffffffffffffff16036134ba576040517f08c379a00000000000000000000000000000000000000000000000000000000081526004016134b1906169c5565b60405180910390fd5b60006134c461279b565b905060006134d184613d09565b905060006134de84613d09565b90506134fe83876000858560405180602001604052806000815250613734565b60006065600087815260200190815260200160002060008873ffffffffffffffffffffffffffffffffffffffff1673ffffffffffffffffffffffffffffffffffffffff16815260200190815260200160002054905084811015613596576040517f08c379a000000000000000000000000000000000000000000000000000000000815260040161358d90616a57565b60405180910390fd5b8481036065600088815260200190815260200160002060008973ffffffffffffffffffffffffffffffffffffffff1673ffffffffffffffffffffffffffffffffffffffff16815260200190815260200160002081905550600073ffffffffffffffffffffffffffffffffffffffff168773ffffffffffffffffffffffffffffffffffffffff168573ffffffffffffffffffffffffffffffffffffffff167fc3d58168c5ae7397731d063d5bbf3d657854427343f4c083240f7aacaa2d0f628989604051613664929190616898565b60405180910390a461368a8488600086866040518060200160405280600081525061373c565b50505050505050565b61369b61279b565b73ffffffffffffffffffffffffffffffffffffffff168573ffffffffffffffffffffffffffffffffffffffff1614806136e157506136e0856136db61279b565b61220f565b5b613720576040517f08c379a000000000000000000000000000000000000000000000000000000000815260040161371790615344565b60405180910390fd5b61372d8585858585613036565b5050505050565b505050505050565b505050505050565b6137638473ffffffffffffffffffffffffffffffffffffffff16612c70565b15613913578373ffffffffffffffffffffffffffffffffffffffff1663bc197c8187878686866040518663ffffffff1660e01b81526004016137a9959493929190616acc565b6020604051808303816000875af19250505080156137e557506040513d601f19601f820116820180604052508101906137e29190616b49565b60015b61388a576137f1616b83565b806308c379a00361384d5750613805616ba5565b80613810575061384f565b806040517f08c379a00000000000000000000000000000000000000000000000000000000081526004016138449190614314565b60405180910390fd5b505b6040517f08c379a000000000000000000000000000000000000000000000000000000000815260040161388190616ca7565b60405180910390fd5b63bc197c8160e01b7bffffffffffffffffffffffffffffffffffffffffffffffffffffffff1916817bffffffffffffffffffffffffffffffffffffffffffffffffffffffff191614613911576040517f08c379a000000000000000000000000000000000000000000000000000000000815260040161390890616d39565b60405180910390fd5b505b505050505050565b60006139567f8b73c3c69bb8fe3d512ecc4cf759cc79239f7b179b0ffacaa9a75d522b39400f613949613f5a565b613951613f64565b613f6e565b905090565b60008282604051602001613970929190616dc6565b60405160208183030381529060405280519060200120905092915050565b60008060418351036139cf5760008060006020860151925060408601519150606086015160001a90506139c387828585613fa8565b945094505050506139d8565b60006002915091505b9250929050565b600060048111156139f3576139f2616dfd565b5b816004811115613a0657613a05616dfd565b5b0315613b425760016004811115613a2057613a1f616dfd565b5b816004811115613a3357613a32616dfd565b5b03613a73576040517f08c379a0000000000000000000000000000000000000000000000000000000008152600401613a6a90616e78565b60405180910390fd5b60026004811115613a8757613a86616dfd565b5b816004811115613a9a57613a99616dfd565b5b03613ada576040517f08c379a0000000000000000000000000000000000000000000000000000000008152600401613ad190616ee4565b60405180910390fd5b60036004811115613aee57613aed616dfd565b5b816004811115613b0157613b00616dfd565b5b03613b41576040517f08c379a0000000000000000000000000000000000000000000000000000000008152600401613b3890616f76565b60405180910390fd5b5b50565b600073ffffffffffffffffffffffffffffffffffffffff168473ffffffffffffffffffffffffffffffffffffffff1603613bb4576040517f08c379a0000000000000000000000000000000000000000000000000000000008152600401613bab90616256565b60405180910390fd5b6000613bbe61279b565b90506000613bcb85613d09565b90506000613bd885613d09565b9050613be983600089858589613734565b846065600088815260200190815260200160002060008973ffffffffffffffffffffffffffffffffffffffff1673ffffffffffffffffffffffffffffffffffffffff1681526020019081526020016000206000828254613c4991906158e6565b925050819055508673ffffffffffffffffffffffffffffffffffffffff16600073ffffffffffffffffffffffffffffffffffffffff168473ffffffffffffffffffffffffffffffffffffffff167fc3d58168c5ae7397731d063d5bbf3d657854427343f4c083240f7aacaa2d0f628989604051613cc7929190616898565b60405180910390a4613cde8360008985858961373c565b613ced83600089898989613d83565b50505050505050565b8060679081613d0591906165f0565b5050565b60606000600167ffffffffffffffff811115613d2857613d2761433b565b5b604051908082528060200260200182016040528015613d565781602001602082028036833780820191505090505b5090508281600081518110613d6e57613d6d6154c3565b5b60200260200101818152505080915050919050565b613da28473ffffffffffffffffffffffffffffffffffffffff16612c70565b15613f52578373ffffffffffffffffffffffffffffffffffffffff1663f23a6e6187878686866040518663ffffffff1660e01b8152600401613de8959493929190616f96565b6020604051808303816000875af1925050508015613e2457506040513d601f19601f82011682018060405250810190613e219190616b49565b60015b613ec957613e30616b83565b806308c379a003613e8c5750613e44616ba5565b80613e4f5750613e8e565b806040517f08c379a0000000000000000000000000000000000000000000000000000000008152600401613e839190614314565b60405180910390fd5b505b6040517f08c379a0000000000000000000000000000000000000000000000000000000008152600401613ec090616ca7565b60405180910390fd5b63f23a6e6160e01b7bffffffffffffffffffffffffffffffffffffffffffffffffffffffff1916817bffffffffffffffffffffffffffffffffffffffffffffffffffffffff191614613f50576040517f08c379a0000000000000000000000000000000000000000000000000000000008152600401613f4790616d39565b60405180910390fd5b505b505050505050565b600060fb54905090565b600060fc54905090565b60008383834630604051602001613f89959493929190616ff0565b6040516020818303038152906040528051906020012090509392505050565b6000807f7fffffffffffffffffffffffffffffff5d576e7357a4501ddfe92f46681b20a08360001c1115613fe3576000600391509150614081565b6000600187878787604051600081526020016040526040516140089493929190617052565b6020604051602081039080840390855afa15801561402a573d6000803e3d6000fd5b505050602060405103519050600073ffffffffffffffffffffffffffffffffffffffff168173ffffffffffffffffffffffffffffffffffffffff160361407857600060019250925050614081565b80600092509250505b94509492505050565b6000604051905090565b600080fd5b600080fd5b600073ffffffffffffffffffffffffffffffffffffffff82169050919050565b60006140c98261409e565b9050919050565b6140d9816140be565b81146140e457600080fd5b50565b6000813590506140f6816140d0565b92915050565b6000819050919050565b61410f816140fc565b811461411a57600080fd5b50565b60008135905061412c81614106565b92915050565b6000806040838503121561414957614148614094565b5b6000614157858286016140e7565b92505060206141688582860161411d565b9150509250929050565b61417b816140fc565b82525050565b60006020820190506141966000830184614172565b92915050565b60007fffffffff0000000000000000000000000000000000000000000000000000000082169050919050565b6141d18161419c565b81146141dc57600080fd5b50565b6000813590506141ee816141c8565b92915050565b60006020828403121561420a57614209614094565b5b6000614218848285016141df565b91505092915050565b60008115159050919050565b61423681614221565b82525050565b6000602082019050614251600083018461422d565b92915050565b60006020828403121561426d5761426c614094565b5b600061427b8482850161411d565b91505092915050565b600081519050919050565b600082825260208201905092915050565b60005b838110156142be5780820151818401526020810190506142a3565b60008484015250505050565b6000601f19601f8301169050919050565b60006142e682614284565b6142f0818561428f565b93506143008185602086016142a0565b614309816142ca565b840191505092915050565b6000602082019050818103600083015261432e81846142db565b905092915050565b600080fd5b7f4e487b7100000000000000000000000000000000000000000000000000000000600052604160045260246000fd5b614373826142ca565b810181811067ffffffffffffffff821117156143925761439161433b565b5b80604052505050565b60006143a561408a565b90506143b1828261436a565b919050565b600067ffffffffffffffff8211156143d1576143d061433b565b5b602082029050602081019050919050565b600080fd5b60006143fa6143f5846143b6565b61439b565b9050808382526020820190506020840283018581111561441d5761441c6143e2565b5b835b818110156144465780614432888261411d565b84526020840193505060208101905061441f565b5050509392505050565b600082601f83011261446557614464614336565b5b81356144758482602086016143e7565b91505092915050565b600080fd5b600067ffffffffffffffff82111561449e5761449d61433b565b5b6144a7826142ca565b9050602081019050919050565b82818337600083830152505050565b60006144d66144d184614483565b61439b565b9050828152602081018484840111156144f2576144f161447e565b5b6144fd8482856144b4565b509392505050565b600082601f83011261451a57614519614336565b5b813561452a8482602086016144c3565b91505092915050565b6000806000806080858703121561454d5761454c614094565b5b600061455b878288016140e7565b945050602085013567ffffffffffffffff81111561457c5761457b614099565b5b61458887828801614450565b935050604085013567ffffffffffffffff8111156145a9576145a8614099565b5b6145b587828801614450565b925050606085013567ffffffffffffffff8111156145d6576145d5614099565b5b6145e287828801614505565b91505092959194509250565b600080600080600060a0868803121561460a57614609614094565b5b6000614618888289016140e7565b9550506020614629888289016140e7565b945050604086013567ffffffffffffffff81111561464a57614649614099565b5b61465688828901614450565b935050606086013567ffffffffffffffff81111561467757614676614099565b5b61468388828901614450565b925050608086013567ffffffffffffffff8111156146a4576146a3614099565b5b6146b088828901614505565b9150509295509295909350565b600080fd5b600080fd5b600060c082840312156146dd576146dc6146bd565b5b6146e760c061439b565b905060006146f78482850161411d565b600083015250602061470b8482850161411d565b602083015250604061471f8482850161411d565b60408301525060606147338482850161411d565b6060830152506080614747848285016140e7565b60808301525060a082013567ffffffffffffffff81111561476b5761476a6146c2565b5b61477784828501614505565b60a08301525092915050565b60006020828403121561479957614798614094565b5b600082013567ffffffffffffffff8111156147b7576147b6614099565b5b6147c3848285016146c7565b91505092915050565b6147d5816140be565b82525050565b60006020820190506147f060008301846147cc565b92915050565b600067ffffffffffffffff8211156148115761481061433b565b5b61481a826142ca565b9050602081019050919050565b600061483a614835846147f6565b61439b565b9050828152602081018484840111156148565761485561447e565b5b6148618482856144b4565b509392505050565b600082601f83011261487e5761487d614336565b5b813561488e848260208601614827565b91505092915050565b600060a082840312156148ad576148ac6146bd565b5b6148b760a061439b565b905060006148c78482850161411d565b60008301525060206148db8482850161411d565b602083015250604082013567ffffffffffffffff8111156148ff576148fe6146c2565b5b61490b84828501614869565b604083015250606061491f848285016140e7565b606083015250608082013567ffffffffffffffff811115614943576149426146c2565b5b61494f84828501614505565b60808301525092915050565b60006020828403121561497157614970614094565b5b600082013567ffffffffffffffff81111561498f5761498e614099565b5b61499b84828501614897565b91505092915050565b600067ffffffffffffffff8211156149bf576149be61433b565b5b602082029050602081019050919050565b60006149e36149de846149a4565b61439b565b90508083825260208201905060208402830185811115614a0657614a056143e2565b5b835b81811015614a2f5780614a1b88826140e7565b845260208401935050602081019050614a08565b5050509392505050565b600082601f830112614a4e57614a4d614336565b5b8135614a5e8482602086016149d0565b91505092915050565b60008060408385031215614a7e57614a7d614094565b5b600083013567ffffffffffffffff811115614a9c57614a9b614099565b5b614aa885828601614a39565b925050602083013567ffffffffffffffff811115614ac957614ac8614099565b5b614ad585828601614450565b9150509250929050565b600081519050919050565b600082825260208201905092915050565b6000819050602082019050919050565b614b14816140fc565b82525050565b6000614b268383614b0b565b60208301905092915050565b6000602082019050919050565b6000614b4a82614adf565b614b548185614aea565b9350614b5f83614afb565b8060005b83811015614b90578151614b778882614b1a565b9750614b8283614b32565b925050600181019050614b63565b5085935050505092915050565b60006020820190508181036000830152614bb78184614b3f565b905092915050565b600060c08284031215614bd557614bd46146bd565b5b614bdf60c061439b565b90506000614bef8482850161411d565b6000830152506020614c038482850161411d565b6020830152506040614c178482850161411d565b6040830152506060614c2b8482850161411d565b6060830152506080614c3f848285016140e7565b60808301525060a082013567ffffffffffffffff811115614c6357614c626146c2565b5b614c6f84828501614505565b60a08301525092915050565b600060208284031215614c9157614c90614094565b5b600082013567ffffffffffffffff811115614caf57614cae614099565b5b614cbb84828501614bbf565b91505092915050565b600080600080600060a08688031215614ce057614cdf614094565b5b600086013567ffffffffffffffff811115614cfe57614cfd614099565b5b614d0a88828901614869565b9550506020614d1b888289016140e7565b9450506040614d2c888289016140e7565b9350506060614d3d8882890161411d565b9250506080614d4e888289016140e7565b9150509295509295909350565b60008060408385031215614d7257614d71614094565b5b600083013567ffffffffffffffff811115614d9057614d8f614099565b5b614d9c85828601614bbf565b925050602083013567ffffffffffffffff811115614dbd57614dbc614099565b5b614dc9858286016146c7565b9150509250929050565b614ddc81614221565b8114614de757600080fd5b50565b600081359050614df981614dd3565b92915050565b60008060408385031215614e1657614e15614094565b5b6000614e24858286016140e7565b9250506020614e3585828601614dea565b9150509250929050565b6000819050919050565b6000614e64614e5f614e5a8461409e565b614e3f565b61409e565b9050919050565b6000614e7682614e49565b9050919050565b6000614e8882614e6b565b9050919050565b614e9881614e7d565b82525050565b6000602082019050614eb36000830184614e8f565b92915050565b600060208284031215614ecf57614ece614094565b5b6000614edd848285016140e7565b91505092915050565b600080600060608486031215614eff57614efe614094565b5b6000614f0d868287016140e7565b9350506020614f1e8682870161411d565b9250506040614f2f8682870161411d565b9150509250925092565b60008060408385031215614f5057614f4f614094565b5b6000614f5e858286016140e7565b9250506020614f6f858286016140e7565b9150509250929050565b600080600080600060a08688031215614f9557614f94614094565b5b6000614fa3888289016140e7565b9550506020614fb4888289016140e7565b9450506040614fc58882890161411d565b9350506060614fd68882890161411d565b925050608086013567ffffffffffffffff811115614ff757614ff6614099565b5b61500388828901614505565b9150509295509295909350565b7f455243313135353a2061646472657373207a65726f206973206e6f742061207660008201527f616c6964206f776e657200000000000000000000000000000000000000000000602082015250565b600061506c602a8361428f565b915061507782615010565b604082019050919050565b6000602082019050818103600083015261509b8161505f565b9050919050565b7f4e487b7100000000000000000000000000000000000000000000000000000000600052602260045260246000fd5b600060028204905060018216806150e957607f821691505b6020821081036150fc576150fb6150a2565b5b50919050565b600081905092915050565b60008190508160005260206000209050919050565b6000815461512f816150d1565b6151398186615102565b9450600182166000811461515457600181146151695761519c565b60ff198316865281151582028601935061519c565b6151728561510d565b60005b8381101561519457815481890152600182019150602081019050615175565b838801955050505b50505092915050565b60006151b082614284565b6151ba8185615102565b93506151ca8185602086016142a0565b80840191505092915050565b60006151e28285615122565b91506151ee82846151a5565b91508190509392505050565b7f434e410000000000000000000000000000000000000000000000000000000000600082015250565b600061523060038361428f565b915061523b826151fa565b602082019050919050565b6000602082019050818103600083015261525f81615223565b9050919050565b7f54444e4500000000000000000000000000000000000000000000000000000000600082015250565b600061529c60048361428f565b91506152a782615266565b602082019050919050565b600060208201905081810360008301526152cb8161528f565b9050919050565b7f455243313135353a2063616c6c6572206973206e6f7420746f6b656e206f776e60008201527f6572206f7220617070726f766564000000000000000000000000000000000000602082015250565b600061532e602e8361428f565b9150615339826152d2565b604082019050919050565b6000602082019050818103600083015261535d81615321565b9050919050565b6000819050919050565b61537781615364565b82525050565b600060c082019050615392600083018961536e565b61539f6020830188614172565b6153ac6040830187614172565b6153b96060830186614172565b6153c66080830185614172565b6153d360a08301846147cc565b979650505050505050565b600060a0820190506153f3600083018861536e565b6154006020830187614172565b61540d6040830186614172565b61541a606083018561536e565b61542760808301846147cc565b9695505050505050565b7f455243313135353a206163636f756e747320616e6420696473206c656e67746860008201527f206d69736d617463680000000000000000000000000000000000000000000000602082015250565b600061548d60298361428f565b915061549882615431565b604082019050919050565b600060208201905081810360008301526154bc81615480565b9050919050565b7f4e487b7100000000000000000000000000000000000000000000000000000000600052603260045260246000fd5b7f4e487b7100000000000000000000000000000000000000000000000000000000600052601160045260246000fd5b600061552c826140fc565b91507fffffffffffffffffffffffffffffffffffffffffffffffffffffffffffffffff820361555e5761555d6154f2565b5b600182019050919050565b7f54414d0000000000000000000000000000000000000000000000000000000000600082015250565b600061559f60038361428f565b91506155aa82615569565b602082019050919050565b600060208201905081810360008301526155ce81615592565b9050919050565b7f4953000000000000000000000000000000000000000000000000000000000000600082015250565b600061560b60028361428f565b9150615616826155d5565b602082019050919050565b6000602082019050818103600083015261563a816155fe565b9050919050565b7f496e697469616c697a61626c653a20636f6e747261637420697320616c72656160008201527f647920696e697469616c697a6564000000000000000000000000000000000000602082015250565b600061569d602e8361428f565b91506156a882615641565b604082019050919050565b600060208201905081810360008301526156cc81615690565b9050919050565b7f465a410000000000000000000000000000000000000000000000000000000000600082015250565b600061570960038361428f565b9150615714826156d3565b602082019050919050565b60006020820190508181036000830152615738816156fc565b9050919050565b7f435a410000000000000000000000000000000000000000000000000000000000600082015250565b600061577560038361428f565b91506157808261573f565b602082019050919050565b600060208201905081810360008301526157a481615768565b9050919050565b7f5a46000000000000000000000000000000000000000000000000000000000000600082015250565b60006157e160028361428f565b91506157ec826157ab565b602082019050919050565b60006020820190508181036000830152615810816157d4565b9050919050565b6000819050919050565b600060ff82169050919050565b600061584961584461583f84615817565b614e3f565b615821565b9050919050565b6158598161582e565b82525050565b60006020820190506158746000830184615850565b92915050565b7f4943000000000000000000000000000000000000000000000000000000000000600082015250565b60006158b060028361428f565b91506158bb8261587a565b602082019050919050565b600060208201905081810360008301526158df816158a3565b9050919050565b60006158f1826140fc565b91506158fc836140fc565b9250828201905080821115615914576159136154f2565b5b92915050565b7f54696d65204f7574000000000000000000000000000000000000000000000000600082015250565b600061595060088361428f565b915061595b8261591a565b602082019050919050565b6000602082019050818103600083015261597f81615943565b9050919050565b7f455a410000000000000000000000000000000000000000000000000000000000600082015250565b60006159bc60038361428f565b91506159c782615986565b602082019050919050565b600060208201905081810360008301526159eb816159af565b9050919050565b7f4e4f435a41000000000000000000000000000000000000000000000000000000600082015250565b6000615a2860058361428f565b9150615a33826159f2565b602082019050919050565b60006020820190508181036000830152615a5781615a1b565b9050919050565b7f4942410000000000000000000000000000000000000000000000000000000000600082015250565b6000615a9460038361428f565b9150615a9f82615a5e565b602082019050919050565b60006020820190508181036000830152615ac381615a87565b9050919050565b7f414d5a0000000000000000000000000000000000000000000000000000000000600082015250565b6000615b0060038361428f565b9150615b0b82615aca565b602082019050919050565b60006020820190508181036000830152615b2f81615af3565b9050919050565b7f4256550000000000000000000000000000000000000000000000000000000000600082015250565b6000615b6c60038361428f565b9150615b7782615b36565b602082019050919050565b60006020820190508181036000830152615b9b81615b5f565b9050919050565b7f49434f5300000000000000000000000000000000000000000000000000000000600082015250565b6000615bd860048361428f565b9150615be382615ba2565b602082019050919050565b60006020820190508181036000830152615c0781615bcb565b9050919050565b6000615c19826140fc565b9150615c24836140fc565b9250828202615c32816140fc565b91508282048414831517615c4957615c486154f2565b5b5092915050565b7f4e487b7100000000000000000000000000000000000000000000000000000000600052601260045260246000fd5b6000615c8a826140fc565b9150615c95836140fc565b925082615ca557615ca4615c50565b5b828204905092915050565b7f4941000000000000000000000000000000000000000000000000000000000000600082015250565b6000615ce660028361428f565b9150615cf182615cb0565b602082019050919050565b60006020820190508181036000830152615d1581615cd9565b9050919050565b6000615d27826140fc565b9150615d32836140fc565b9250828203905081811115615d4a57615d496154f2565b5b92915050565b600081905092915050565b50565b6000615d6b600083615d50565b9150615d7682615d5b565b600082019050919050565b6000615d8c82615d5e565b9150819050919050565b7f4154460000000000000000000000000000000000000000000000000000000000600082015250565b6000615dcc60038361428f565b9150615dd782615d96565b602082019050919050565b60006020820190508181036000830152615dfb81615dbf565b9050919050565b7f4654460000000000000000000000000000000000000000000000000000000000600082015250565b6000615e3860038361428f565b9150615e4382615e02565b602082019050919050565b60006020820190508181036000830152615e6781615e2b565b9050919050565b600081519050615e7d81614106565b92915050565b600060208284031215615e9957615e98614094565b5b6000615ea784828501615e6e565b91505092915050565b6000606082019050615ec560008301866147cc565b615ed260208301856147cc565b615edf6040830184614172565b949350505050565b600081519050615ef681614dd3565b92915050565b600060208284031215615f1257615f11614094565b5b6000615f2084828501615ee7565b91505092915050565b600081519050615f38816140d0565b92915050565b600060208284031215615f5457615f53614094565b5b6000615f6284828501615f29565b91505092915050565b6000606082019050615f806000830186614172565b615f8d60208301856147cc565b615f9a60408301846147cc565b949350505050565b7f4e6f742041646d696e0000000000000000000000000000000000000000000000600082015250565b6000615fd860098361428f565b9150615fe382615fa2565b602082019050919050565b6000602082019050818103600083015261600781615fcb565b9050919050565b7f5a41000000000000000000000000000000000000000000000000000000000000600082015250565b600061604460028361428f565b915061604f8261600e565b602082019050919050565b6000602082019050818103600083015261607381616037565b9050919050565b7f4e41000000000000000000000000000000000000000000000000000000000000600082015250565b60006160b060028361428f565b91506160bb8261607a565b602082019050919050565b600060208201905081810360008301526160df816160a3565b9050919050565b7f4f776e61626c653a206e6577206f776e657220697320746865207a65726f206160008201527f6464726573730000000000000000000000000000000000000000000000000000602082015250565b600061614260268361428f565b915061614d826160e6565b604082019050919050565b6000602082019050818103600083015261617181616135565b9050919050565b7f4f776e61626c653a2063616c6c6572206973206e6f7420746865206f776e6572600082015250565b60006161ae60208361428f565b91506161b982616178565b602082019050919050565b600060208201905081810360008301526161dd816161a1565b9050919050565b7f455243313135353a206d696e7420746f20746865207a65726f2061646472657360008201527f7300000000000000000000000000000000000000000000000000000000000000602082015250565b600061624060218361428f565b915061624b826161e4565b604082019050919050565b6000602082019050818103600083015261626f81616233565b9050919050565b7f455243313135353a2069647320616e6420616d6f756e7473206c656e6774682060008201527f6d69736d61746368000000000000000000000000000000000000000000000000602082015250565b60006162d260288361428f565b91506162dd82616276565b604082019050919050565b60006020820190508181036000830152616301816162c5565b9050919050565b600060408201905081810360008301526163228185614b3f565b905081810360208301526163368184614b3f565b90509392505050565b7f455243313135353a207472616e7366657220746f20746865207a65726f20616460008201527f6472657373000000000000000000000000000000000000000000000000000000602082015250565b600061639b60258361428f565b91506163a68261633f565b604082019050919050565b600060208201905081810360008301526163ca8161638e565b9050919050565b7f455243313135353a20696e73756666696369656e742062616c616e636520666f60008201527f72207472616e7366657200000000000000000000000000000000000000000000602082015250565b600061642d602a8361428f565b9150616438826163d1565b604082019050919050565b6000602082019050818103600083015261645c81616420565b9050919050565b60006020601f8301049050919050565b600082821b905092915050565b6000600883026164b07fffffffffffffffffffffffffffffffffffffffffffffffffffffffffffffffff82616473565b6164ba8683616473565b95508019841693508086168417925050509392505050565b60006164ed6164e86164e3846140fc565b614e3f565b6140fc565b9050919050565b6000819050919050565b616507836164d2565b61651b616513826164f4565b848454616480565b825550505050565b600090565b616530616523565b61653b8184846164fe565b505050565b5b8181101561655f57616554600082616528565b600181019050616541565b5050565b601f8211156165a4576165758161510d565b61657e84616463565b8101602085101561658d578190505b6165a161659985616463565b830182616540565b50505b505050565b600082821c905092915050565b60006165c7600019846008026165a9565b1980831691505092915050565b60006165e083836165b6565b9150826002028217905092915050565b6165f982614284565b67ffffffffffffffff8111156166125761661161433b565b5b61661c82546150d1565b616627828285616563565b600060209050601f83116001811461665a5760008415616648578287015190505b61665285826165d4565b8655506166ba565b601f1984166166688661510d565b60005b828110156166905784890151825560018201915060208501945060208101905061666b565b868310156166ad57848901516166a9601f8916826165b6565b8355505b6001600288020188555050505b505050505050565b7f496e697469616c697a61626c653a20636f6e7472616374206973206e6f74206960008201527f6e697469616c697a696e67000000000000000000000000000000000000000000602082015250565b600061671e602b8361428f565b9150616729826166c2565b604082019050919050565b6000602082019050818103600083015261674d81616711565b9050919050565b7f5265656e7472616e637947756172643a207265656e7472616e742063616c6c00600082015250565b600061678a601f8361428f565b915061679582616754565b602082019050919050565b600060208201905081810360008301526167b98161677d565b9050919050565b7f4355000000000000000000000000000000000000000000000000000000000000600082015250565b60006167f660028361428f565b9150616801826167c0565b602082019050919050565b60006020820190508181036000830152616825816167e9565b9050919050565b7f414c5a0000000000000000000000000000000000000000000000000000000000600082015250565b600061686260038361428f565b915061686d8261682c565b602082019050919050565b6000602082019050818103600083015261689181616855565b9050919050565b60006040820190506168ad6000830185614172565b6168ba6020830184614172565b9392505050565b7f455243313135353a2073657474696e6720617070726f76616c2073746174757360008201527f20666f722073656c660000000000000000000000000000000000000000000000602082015250565b600061691d60298361428f565b9150616928826168c1565b604082019050919050565b6000602082019050818103600083015261694c81616910565b9050919050565b7f455243313135353a206275726e2066726f6d20746865207a65726f206164647260008201527f6573730000000000000000000000000000000000000000000000000000000000602082015250565b60006169af60238361428f565b91506169ba82616953565b604082019050919050565b600060208201905081810360008301526169de816169a2565b9050919050565b7f455243313135353a206275726e20616d6f756e7420657863656564732062616c60008201527f616e636500000000000000000000000000000000000000000000000000000000602082015250565b6000616a4160248361428f565b9150616a4c826169e5565b604082019050919050565b60006020820190508181036000830152616a7081616a34565b9050919050565b600081519050919050565b600082825260208201905092915050565b6000616a9e82616a77565b616aa88185616a82565b9350616ab88185602086016142a0565b616ac1816142ca565b840191505092915050565b600060a082019050616ae160008301886147cc565b616aee60208301876147cc565b8181036040830152616b008186614b3f565b90508181036060830152616b148185614b3f565b90508181036080830152616b288184616a93565b90509695505050505050565b600081519050616b43816141c8565b92915050565b600060208284031215616b5f57616b5e614094565b5b6000616b6d84828501616b34565b91505092915050565b60008160e01c9050919050565b600060033d1115616ba25760046000803e616b9f600051616b76565b90505b90565b600060443d10616c3257616bb761408a565b60043d036004823e80513d602482011167ffffffffffffffff82111715616bdf575050616c32565b808201805167ffffffffffffffff811115616bfd5750505050616c32565b80602083010160043d038501811115616c1a575050505050616c32565b616c298260200185018661436a565b82955050505050505b90565b7f455243313135353a207472616e7366657220746f206e6f6e2d4552433131353560008201527f526563656976657220696d706c656d656e746572000000000000000000000000602082015250565b6000616c9160348361428f565b9150616c9c82616c35565b604082019050919050565b60006020820190508181036000830152616cc081616c84565b9050919050565b7f455243313135353a204552433131353552656365697665722072656a6563746560008201527f6420746f6b656e73000000000000000000000000000000000000000000000000602082015250565b6000616d2360288361428f565b9150616d2e82616cc7565b604082019050919050565b60006020820190508181036000830152616d5281616d16565b9050919050565b7f1901000000000000000000000000000000000000000000000000000000000000600082015250565b6000616d8f600283615102565b9150616d9a82616d59565b600282019050919050565b6000819050919050565b616dc0616dbb82615364565b616da5565b82525050565b6000616dd182616d82565b9150616ddd8285616daf565b602082019150616ded8284616daf565b6020820191508190509392505050565b7f4e487b7100000000000000000000000000000000000000000000000000000000600052602160045260246000fd5b7f45434453413a20696e76616c6964207369676e61747572650000000000000000600082015250565b6000616e6260188361428f565b9150616e6d82616e2c565b602082019050919050565b60006020820190508181036000830152616e9181616e55565b9050919050565b7f45434453413a20696e76616c6964207369676e6174757265206c656e67746800600082015250565b6000616ece601f8361428f565b9150616ed982616e98565b602082019050919050565b60006020820190508181036000830152616efd81616ec1565b9050919050565b7f45434453413a20696e76616c6964207369676e6174757265202773272076616c60008201527f7565000000000000000000000000000000000000000000000000000000000000602082015250565b6000616f6060228361428f565b9150616f6b82616f04565b604082019050919050565b60006020820190508181036000830152616f8f81616f53565b9050919050565b600060a082019050616fab60008301886147cc565b616fb860208301876147cc565b616fc56040830186614172565b616fd26060830185614172565b8181036080830152616fe48184616a93565b90509695505050505050565b600060a082019050617005600083018861536e565b617012602083018761536e565b61701f604083018661536e565b61702c6060830185614172565b61703960808301846147cc565b9695505050505050565b61704c81615821565b82525050565b6000608082019050617067600083018761536e565b6170746020830186617043565b617081604083018561536e565b61708e606083018461536e565b9594505050505056fea2646970667358221220a75e559dad4b264b96f14ed385f95e78d1ca72c51efe4d06d6a23b805debd5ae64736f6c63430008110033",
			"opcodes": "PUSH1 0x80 PUSH1 0x40 MSTORE CALLVALUE DUP1 ISZERO PUSH2 0x10 JUMPI PUSH1 0x0 DUP1 REVERT JUMPDEST POP PUSH2 0x70CD DUP1 PUSH3 0x21 PUSH1 0x0 CODECOPY PUSH1 0x0 RETURN INVALID PUSH1 0x80 PUSH1 0x40 MSTORE PUSH1 0x4 CALLDATASIZE LT PUSH2 0x1CC JUMPI PUSH1 0x0 CALLDATALOAD PUSH1 0xE0 SHR DUP1 PUSH4 0x86599D5C GT PUSH2 0xF7 JUMPI DUP1 PUSH4 0xC45A0155 GT PUSH2 0x95 JUMPI DUP1 PUSH4 0xE985E9C5 GT PUSH2 0x64 JUMPI DUP1 PUSH4 0xE985E9C5 EQ PUSH2 0x6D2 JUMPI DUP1 PUSH4 0xF242432A EQ PUSH2 0x70F JUMPI DUP1 PUSH4 0xF2FDE38B EQ PUSH2 0x738 JUMPI DUP1 PUSH4 0xF851A440 EQ PUSH2 0x761 JUMPI PUSH2 0x1CC JUMP JUMPDEST DUP1 PUSH4 0xC45A0155 EQ PUSH2 0x618 JUMPI DUP1 PUSH4 0xC7404B63 EQ PUSH2 0x643 JUMPI DUP1 PUSH4 0xD9F165DC EQ PUSH2 0x680 JUMPI DUP1 PUSH4 0xE9758B72 EQ PUSH2 0x6A9 JUMPI PUSH2 0x1CC JUMP JUMPDEST DUP1 PUSH4 0x9D445D1D GT PUSH2 0xD1 JUMPI DUP1 PUSH4 0x9D445D1D EQ PUSH2 0x56D JUMPI DUP1 PUSH4 0xA22CB465 EQ PUSH2 0x589 JUMPI DUP1 PUSH4 0xA8368F33 EQ PUSH2 0x5B2 JUMPI DUP1 PUSH4 0xAA0B5988 EQ PUSH2 0x5EF JUMPI PUSH2 0x1CC JUMP JUMPDEST DUP1 PUSH4 0x86599D5C EQ PUSH2 0x4F0 JUMPI DUP1 PUSH4 0x8988F272 EQ PUSH2 0x519 JUMPI DUP1 PUSH4 0x8DA5CB5B EQ PUSH2 0x542 JUMPI PUSH2 0x1CC JUMP JUMPDEST DUP1 PUSH4 0x2EE7B7B4 GT PUSH2 0x16F JUMPI DUP1 PUSH4 0x4E1273F4 GT PUSH2 0x13E JUMPI DUP1 PUSH4 0x4E1273F4 EQ PUSH2 0x436 JUMPI DUP1 PUSH4 0x5C0FEDB5 EQ PUSH2 0x473 JUMPI DUP1 PUSH4 0x715018A6 EQ PUSH2 0x49C JUMPI DUP1 PUSH4 0x7973BD1E EQ PUSH2 0x4B3 JUMPI PUSH2 0x1CC JUMP JUMPDEST DUP1 PUSH4 0x2EE7B7B4 EQ PUSH2 0x342 JUMPI DUP1 PUSH4 0x35403023 EQ PUSH2 0x37F JUMPI DUP1 PUSH4 0x36FDC2B4 EQ PUSH2 0x3BC JUMPI DUP1 PUSH4 0x4D839081 EQ PUSH2 0x3F9 JUMPI PUSH2 0x1CC JUMP JUMPDEST DUP1 PUSH4 0x1F7FDFFA GT PUSH2 0x1AB JUMPI DUP1 PUSH4 0x1F7FDFFA EQ PUSH2 0x288 JUMPI DUP1 PUSH4 0x26232A2E EQ PUSH2 0x2B1 JUMPI DUP1 PUSH4 0x2693EBF2 EQ PUSH2 0x2DC JUMPI DUP1 PUSH4 0x2EB2C2D6 EQ PUSH2 0x319 JUMPI PUSH2 0x1CC JUMP JUMPDEST DUP1 PUSH3 0xFDD58E EQ PUSH2 0x1D1 JUMPI DUP1 PUSH4 0x1FFC9A7 EQ PUSH2 0x20E JUMPI DUP1 PUSH4 0xE89341C EQ PUSH2 0x24B JUMPI JUMPDEST PUSH1 0x0 DUP1 REVERT JUMPDEST CALLVALUE DUP1 ISZERO PUSH2 0x1DD JUMPI PUSH1 0x0 DUP1 REVERT JUMPDEST POP PUSH2 0x1F8 PUSH1 0x4 DUP1 CALLDATASIZE SUB DUP2 ADD SWAP1 PUSH2 0x1F3 SWAP2 SWAP1 PUSH2 0x4132 JUMP JUMPDEST PUSH2 0x78C JUMP JUMPDEST PUSH1 0x40 MLOAD PUSH2 0x205 SWAP2 SWAP1 PUSH2 0x4181 JUMP JUMPDEST PUSH1 0x40 MLOAD DUP1 SWAP2 SUB SWAP1 RETURN JUMPDEST CALLVALUE DUP1 ISZERO PUSH2 0x21A JUMPI PUSH1 0x0 DUP1 REVERT JUMPDEST POP PUSH2 0x235 PUSH1 0x4 DUP1 CALLDATASIZE SUB DUP2 ADD SWAP1 PUSH2 0x230 SWAP2 SWAP1 PUSH2 0x41F4 JUMP JUMPDEST PUSH2 0x855 JUMP JUMPDEST PUSH1 0x40 MLOAD PUSH2 0x242 SWAP2 SWAP1 PUSH2 0x423C JUMP JUMPDEST PUSH1 0x40 MLOAD DUP1 SWAP2 SUB SWAP1 RETURN JUMPDEST CALLVALUE DUP1 ISZERO PUSH2 0x257 JUMPI PUSH1 0x0 DUP1 REVERT JUMPDEST POP PUSH2 0x272 PUSH1 0x4 DUP1 CALLDATASIZE SUB DUP2 ADD SWAP1 PUSH2 0x26D SWAP2 SWAP1 PUSH2 0x4257 JUMP JUMPDEST PUSH2 0x937 JUMP JUMPDEST PUSH1 0x40 MLOAD PUSH2 0x27F SWAP2 SWAP1 PUSH2 0x4314 JUMP JUMPDEST PUSH1 0x40 MLOAD DUP1 SWAP2 SUB SWAP1 RETURN JUMPDEST CALLVALUE DUP1 ISZERO PUSH2 0x294 JUMPI PUSH1 0x0 DUP1 REVERT JUMPDEST POP PUSH2 0x2AF PUSH1 0x4 DUP1 CALLDATASIZE SUB DUP2 ADD SWAP1 PUSH2 0x2AA SWAP2 SWAP1 PUSH2 0x4533 JUMP JUMPDEST PUSH2 0xA1C JUMP JUMPDEST STOP JUMPDEST CALLVALUE DUP1 ISZERO PUSH2 0x2BD JUMPI PUSH1 0x0 DUP1 REVERT JUMPDEST POP PUSH2 0x2C6 PUSH2 0xAC7 JUMP JUMPDEST PUSH1 0x40 MLOAD PUSH2 0x2D3 SWAP2 SWAP1 PUSH2 0x4181 JUMP JUMPDEST PUSH1 0x40 MLOAD DUP1 SWAP2 SUB SWAP1 RETURN JUMPDEST CALLVALUE DUP1 ISZERO PUSH2 0x2E8 JUMPI PUSH1 0x0 DUP1 REVERT JUMPDEST POP PUSH2 0x303 PUSH1 0x4 DUP1 CALLDATASIZE SUB DUP2 ADD SWAP1 PUSH2 0x2FE SWAP2 SWAP1 PUSH2 0x4257 JUMP JUMPDEST PUSH2 0xACE JUMP JUMPDEST PUSH1 0x40 MLOAD PUSH2 0x310 SWAP2 SWAP1 PUSH2 0x4181 JUMP JUMPDEST PUSH1 0x40 MLOAD DUP1 SWAP2 SUB SWAP1 RETURN JUMPDEST CALLVALUE DUP1 ISZERO PUSH2 0x325 JUMPI PUSH1 0x0 DUP1 REVERT JUMPDEST POP PUSH2 0x340 PUSH1 0x4 DUP1 CALLDATASIZE SUB DUP2 ADD SWAP1 PUSH2 0x33B SWAP2 SWAP1 PUSH2 0x45EE JUMP JUMPDEST PUSH2 0xB42 JUMP JUMPDEST STOP JUMPDEST CALLVALUE DUP1 ISZERO PUSH2 0x34E JUMPI PUSH1 0x0 DUP1 REVERT JUMPDEST POP PUSH2 0x369 PUSH1 0x4 DUP1 CALLDATASIZE SUB DUP2 ADD SWAP1 PUSH2 0x364 SWAP2 SWAP1 PUSH2 0x4783 JUMP JUMPDEST PUSH2 0xBE3 JUMP JUMPDEST PUSH1 0x40 MLOAD PUSH2 0x376 SWAP2 SWAP1 PUSH2 0x47DB JUMP JUMPDEST PUSH1 0x40 MLOAD DUP1 SWAP2 SUB SWAP1 RETURN JUMPDEST CALLVALUE DUP1 ISZERO PUSH2 0x38B JUMPI PUSH1 0x0 DUP1 REVERT JUMPDEST POP PUSH2 0x3A6 PUSH1 0x4 DUP1 CALLDATASIZE SUB DUP2 ADD SWAP1 PUSH2 0x3A1 SWAP2 SWAP1 PUSH2 0x4257 JUMP JUMPDEST PUSH2 0xC6B JUMP JUMPDEST PUSH1 0x40 MLOAD PUSH2 0x3B3 SWAP2 SWAP1 PUSH2 0x4181 JUMP JUMPDEST PUSH1 0x40 MLOAD DUP1 SWAP2 SUB SWAP1 RETURN JUMPDEST CALLVALUE DUP1 ISZERO PUSH2 0x3C8 JUMPI PUSH1 0x0 DUP1 REVERT JUMPDEST POP PUSH2 0x3E3 PUSH1 0x4 DUP1 CALLDATASIZE SUB DUP2 ADD SWAP1 PUSH2 0x3DE SWAP2 SWAP1 PUSH2 0x495B JUMP JUMPDEST PUSH2 0xC84 JUMP JUMPDEST PUSH1 0x40 MLOAD PUSH2 0x3F0 SWAP2 SWAP1 PUSH2 0x47DB JUMP JUMPDEST PUSH1 0x40 MLOAD DUP1 SWAP2 SUB SWAP1 RETURN JUMPDEST CALLVALUE DUP1 ISZERO PUSH2 0x405 JUMPI PUSH1 0x0 DUP1 REVERT JUMPDEST POP PUSH2 0x420 PUSH1 0x4 DUP1 CALLDATASIZE SUB DUP2 ADD SWAP1 PUSH2 0x41B SWAP2 SWAP1 PUSH2 0x4257 JUMP JUMPDEST PUSH2 0xD0D JUMP JUMPDEST PUSH1 0x40 MLOAD PUSH2 0x42D SWAP2 SWAP1 PUSH2 0x423C JUMP JUMPDEST PUSH1 0x40 MLOAD DUP1 SWAP2 SUB SWAP1 RETURN JUMPDEST CALLVALUE DUP1 ISZERO PUSH2 0x442 JUMPI PUSH1 0x0 DUP1 REVERT JUMPDEST POP PUSH2 0x45D PUSH1 0x4 DUP1 CALLDATASIZE SUB DUP2 ADD SWAP1 PUSH2 0x458 SWAP2 SWAP1 PUSH2 0x4A67 JUMP JUMPDEST PUSH2 0xD2E JUMP JUMPDEST PUSH1 0x40 MLOAD PUSH2 0x46A SWAP2 SWAP1 PUSH2 0x4B9D JUMP JUMPDEST PUSH1 0x40 MLOAD DUP1 SWAP2 SUB SWAP1 RETURN JUMPDEST CALLVALUE DUP1 ISZERO PUSH2 0x47F JUMPI PUSH1 0x0 DUP1 REVERT JUMPDEST POP PUSH2 0x49A PUSH1 0x4 DUP1 CALLDATASIZE SUB DUP2 ADD SWAP1 PUSH2 0x495 SWAP2 SWAP1 PUSH2 0x495B JUMP JUMPDEST PUSH2 0xE47 JUMP JUMPDEST STOP JUMPDEST CALLVALUE DUP1 ISZERO PUSH2 0x4A8 JUMPI PUSH1 0x0 DUP1 REVERT JUMPDEST POP PUSH2 0x4B1 PUSH2 0xF77 JUMP JUMPDEST STOP JUMPDEST CALLVALUE DUP1 ISZERO PUSH2 0x4BF JUMPI PUSH1 0x0 DUP1 REVERT JUMPDEST POP PUSH2 0x4DA PUSH1 0x4 DUP1 CALLDATASIZE SUB DUP2 ADD SWAP1 PUSH2 0x4D5 SWAP2 SWAP1 PUSH2 0x4C7B JUMP JUMPDEST PUSH2 0xF8B JUMP JUMPDEST PUSH1 0x40 MLOAD PUSH2 0x4E7 SWAP2 SWAP1 PUSH2 0x47DB JUMP JUMPDEST PUSH1 0x40 MLOAD DUP1 SWAP2 SUB SWAP1 RETURN JUMPDEST CALLVALUE DUP1 ISZERO PUSH2 0x4FC JUMPI PUSH1 0x0 DUP1 REVERT JUMPDEST POP PUSH2 0x517 PUSH1 0x4 DUP1 CALLDATASIZE SUB DUP2 ADD SWAP1 PUSH2 0x512 SWAP2 SWAP1 PUSH2 0x4CC4 JUMP JUMPDEST PUSH2 0x1013 JUMP JUMPDEST STOP JUMPDEST CALLVALUE DUP1 ISZERO PUSH2 0x525 JUMPI PUSH1 0x0 DUP1 REVERT JUMPDEST POP PUSH2 0x540 PUSH1 0x4 DUP1 CALLDATASIZE SUB DUP2 ADD SWAP1 PUSH2 0x53B SWAP2 SWAP1 PUSH2 0x4C7B JUMP JUMPDEST PUSH2 0x13D2 JUMP JUMPDEST STOP JUMPDEST CALLVALUE DUP1 ISZERO PUSH2 0x54E JUMPI PUSH1 0x0 DUP1 REVERT JUMPDEST POP PUSH2 0x557 PUSH2 0x1496 JUMP JUMPDEST PUSH1 0x40 MLOAD PUSH2 0x564 SWAP2 SWAP1 PUSH2 0x47DB JUMP JUMPDEST PUSH1 0x40 MLOAD DUP1 SWAP2 SUB SWAP1 RETURN JUMPDEST PUSH2 0x587 PUSH1 0x4 DUP1 CALLDATASIZE SUB DUP2 ADD SWAP1 PUSH2 0x582 SWAP2 SWAP1 PUSH2 0x4D5B JUMP JUMPDEST PUSH2 0x14C0 JUMP JUMPDEST STOP JUMPDEST CALLVALUE DUP1 ISZERO PUSH2 0x595 JUMPI PUSH1 0x0 DUP1 REVERT JUMPDEST POP PUSH2 0x5B0 PUSH1 0x4 DUP1 CALLDATASIZE SUB DUP2 ADD SWAP1 PUSH2 0x5AB SWAP2 SWAP1 PUSH2 0x4DFF JUMP JUMPDEST PUSH2 0x1ECB JUMP JUMPDEST STOP JUMPDEST CALLVALUE DUP1 ISZERO PUSH2 0x5BE JUMPI PUSH1 0x0 DUP1 REVERT JUMPDEST POP PUSH2 0x5D9 PUSH1 0x4 DUP1 CALLDATASIZE SUB DUP2 ADD SWAP1 PUSH2 0x5D4 SWAP2 SWAP1 PUSH2 0x4257 JUMP JUMPDEST PUSH2 0x1EE1 JUMP JUMPDEST PUSH1 0x40 MLOAD PUSH2 0x5E6 SWAP2 SWAP1 PUSH2 0x4181 JUMP JUMPDEST PUSH1 0x40 MLOAD DUP1 SWAP2 SUB SWAP1 RETURN JUMPDEST CALLVALUE DUP1 ISZERO PUSH2 0x5FB JUMPI PUSH1 0x0 DUP1 REVERT JUMPDEST POP PUSH2 0x616 PUSH1 0x4 DUP1 CALLDATASIZE SUB DUP2 ADD SWAP1 PUSH2 0x611 SWAP2 SWAP1 PUSH2 0x4257 JUMP JUMPDEST PUSH2 0x1EFA JUMP JUMPDEST STOP JUMPDEST CALLVALUE DUP1 ISZERO PUSH2 0x624 JUMPI PUSH1 0x0 DUP1 REVERT JUMPDEST POP PUSH2 0x62D PUSH2 0x1FD9 JUMP JUMPDEST PUSH1 0x40 MLOAD PUSH2 0x63A SWAP2 SWAP1 PUSH2 0x4E9E JUMP JUMPDEST PUSH1 0x40 MLOAD DUP1 SWAP2 SUB SWAP1 RETURN JUMPDEST CALLVALUE DUP1 ISZERO PUSH2 0x64F JUMPI PUSH1 0x0 DUP1 REVERT JUMPDEST POP PUSH2 0x66A PUSH1 0x4 DUP1 CALLDATASIZE SUB DUP2 ADD SWAP1 PUSH2 0x665 SWAP2 SWAP1 PUSH2 0x4257 JUMP JUMPDEST PUSH2 0x2000 JUMP JUMPDEST PUSH1 0x40 MLOAD PUSH2 0x677 SWAP2 SWAP1 PUSH2 0x423C JUMP JUMPDEST PUSH1 0x40 MLOAD DUP1 SWAP2 SUB SWAP1 RETURN JUMPDEST CALLVALUE DUP1 ISZERO PUSH2 0x68C JUMPI PUSH1 0x0 DUP1 REVERT JUMPDEST POP PUSH2 0x6A7 PUSH1 0x4 DUP1 CALLDATASIZE SUB DUP2 ADD SWAP1 PUSH2 0x6A2 SWAP2 SWAP1 PUSH2 0x4EB9 JUMP JUMPDEST PUSH2 0x2021 JUMP JUMPDEST STOP JUMPDEST CALLVALUE DUP1 ISZERO PUSH2 0x6B5 JUMPI PUSH1 0x0 DUP1 REVERT JUMPDEST POP PUSH2 0x6D0 PUSH1 0x4 DUP1 CALLDATASIZE SUB DUP2 ADD SWAP1 PUSH2 0x6CB SWAP2 SWAP1 PUSH2 0x4EE6 JUMP JUMPDEST PUSH2 0x2166 JUMP JUMPDEST STOP JUMPDEST CALLVALUE DUP1 ISZERO PUSH2 0x6DE JUMPI PUSH1 0x0 DUP1 REVERT JUMPDEST POP PUSH2 0x6F9 PUSH1 0x4 DUP1 CALLDATASIZE SUB DUP2 ADD SWAP1 PUSH2 0x6F4 SWAP2 SWAP1 PUSH2 0x4F39 JUMP JUMPDEST PUSH2 0x220F JUMP JUMPDEST PUSH1 0x40 MLOAD PUSH2 0x706 SWAP2 SWAP1 PUSH2 0x423C JUMP JUMPDEST PUSH1 0x40 MLOAD DUP1 SWAP2 SUB SWAP1 RETURN JUMPDEST CALLVALUE DUP1 ISZERO PUSH2 0x71B JUMPI PUSH1 0x0 DUP1 REVERT JUMPDEST POP PUSH2 0x736 PUSH1 0x4 DUP1 CALLDATASIZE SUB DUP2 ADD SWAP1 PUSH2 0x731 SWAP2 SWAP1 PUSH2 0x4F79 JUMP JUMPDEST PUSH2 0x22A3 JUMP JUMPDEST STOP JUMPDEST CALLVALUE DUP1 ISZERO PUSH2 0x744 JUMPI PUSH1 0x0 DUP1 REVERT JUMPDEST POP PUSH2 0x75F PUSH1 0x4 DUP1 CALLDATASIZE SUB DUP2 ADD SWAP1 PUSH2 0x75A SWAP2 SWAP1 PUSH2 0x4EB9 JUMP JUMPDEST PUSH2 0x2348 JUMP JUMPDEST STOP JUMPDEST CALLVALUE DUP1 ISZERO PUSH2 0x76D JUMPI PUSH1 0x0 DUP1 REVERT JUMPDEST POP PUSH2 0x776 PUSH2 0x23CB JUMP JUMPDEST PUSH1 0x40 MLOAD PUSH2 0x783 SWAP2 SWAP1 PUSH2 0x47DB JUMP JUMPDEST PUSH1 0x40 MLOAD DUP1 SWAP2 SUB SWAP1 RETURN JUMPDEST PUSH1 0x0 DUP1 PUSH20 0xFFFFFFFFFFFFFFFFFFFFFFFFFFFFFFFFFFFFFFFF AND DUP4 PUSH20 0xFFFFFFFFFFFFFFFFFFFFFFFFFFFFFFFFFFFFFFFF AND SUB PUSH2 0x7FC JUMPI PUSH1 0x40 MLOAD PUSH32 0x8C379A000000000000000000000000000000000000000000000000000000000 DUP2 MSTORE PUSH1 0x4 ADD PUSH2 0x7F3 SWAP1 PUSH2 0x5082 JUMP JUMPDEST PUSH1 0x40 MLOAD DUP1 SWAP2 SUB SWAP1 REVERT JUMPDEST PUSH1 0x65 PUSH1 0x0 DUP4 DUP2 MSTORE PUSH1 0x20 ADD SWAP1 DUP2 MSTORE PUSH1 0x20 ADD PUSH1 0x0 KECCAK256 PUSH1 0x0 DUP5 PUSH20 0xFFFFFFFFFFFFFFFFFFFFFFFFFFFFFFFFFFFFFFFF AND PUSH20 0xFFFFFFFFFFFFFFFFFFFFFFFFFFFFFFFFFFFFFFFF AND DUP2 MSTORE PUSH1 0x20 ADD SWAP1 DUP2 MSTORE PUSH1 0x20 ADD PUSH1 0x0 KECCAK256 SLOAD SWAP1 POP SWAP3 SWAP2 POP POP JUMP JUMPDEST PUSH1 0x0 PUSH32 0xD9B67A2600000000000000000000000000000000000000000000000000000000 PUSH28 0xFFFFFFFFFFFFFFFFFFFFFFFFFFFFFFFFFFFFFFFFFFFFFFFFFFFFFFFF NOT AND DUP3 PUSH28 0xFFFFFFFFFFFFFFFFFFFFFFFFFFFFFFFFFFFFFFFFFFFFFFFFFFFFFFFF NOT AND EQ DUP1 PUSH2 0x920 JUMPI POP PUSH32 0xE89341C00000000000000000000000000000000000000000000000000000000 PUSH28 0xFFFFFFFFFFFFFFFFFFFFFFFFFFFFFFFFFFFFFFFFFFFFFFFFFFFFFFFF NOT AND DUP3 PUSH28 0xFFFFFFFFFFFFFFFFFFFFFFFFFFFFFFFFFFFFFFFFFFFFFFFFFFFFFFFF NOT AND EQ JUMPDEST DUP1 PUSH2 0x930 JUMPI POP PUSH2 0x92F DUP3 PUSH2 0x23F2 JUMP JUMPDEST JUMPDEST SWAP1 POP SWAP2 SWAP1 POP JUMP JUMPDEST PUSH1 0x60 PUSH1 0x0 PUSH1 0x98 PUSH1 0x0 DUP5 DUP2 MSTORE PUSH1 0x20 ADD SWAP1 DUP2 MSTORE PUSH1 0x20 ADD PUSH1 0x0 KECCAK256 DUP1 SLOAD PUSH2 0x959 SWAP1 PUSH2 0x50D1 JUMP JUMPDEST DUP1 PUSH1 0x1F ADD PUSH1 0x20 DUP1 SWAP2 DIV MUL PUSH1 0x20 ADD PUSH1 0x40 MLOAD SWAP1 DUP2 ADD PUSH1 0x40 MSTORE DUP1 SWAP3 SWAP2 SWAP1 DUP2 DUP2 MSTORE PUSH1 0x20 ADD DUP3 DUP1 SLOAD PUSH2 0x985 SWAP1 PUSH2 0x50D1 JUMP JUMPDEST DUP1 ISZERO PUSH2 0x9D2 JUMPI DUP1 PUSH1 0x1F LT PUSH2 0x9A7 JUMPI PUSH2 0x100 DUP1 DUP4 SLOAD DIV MUL DUP4 MSTORE SWAP2 PUSH1 0x20 ADD SWAP2 PUSH2 0x9D2 JUMP JUMPDEST DUP3 ADD SWAP2 SWAP1 PUSH1 0x0 MSTORE PUSH1 0x20 PUSH1 0x0 KECCAK256 SWAP1 JUMPDEST DUP2 SLOAD DUP2 MSTORE SWAP1 PUSH1 0x1 ADD SWAP1 PUSH1 0x20 ADD DUP1 DUP4 GT PUSH2 0x9B5 JUMPI DUP3 SWAP1 SUB PUSH1 0x1F AND DUP3 ADD SWAP2 JUMPDEST POP POP POP POP POP SWAP1 POP PUSH1 0x0 DUP2 MLOAD GT PUSH2 0x9F0 JUMPI PUSH2 0x9EB DUP4 PUSH2 0x245C JUMP JUMPDEST PUSH2 0xA14 JUMP JUMPDEST PUSH1 0x97 DUP2 PUSH1 0x40 MLOAD PUSH1 0x20 ADD PUSH2 0xA04 SWAP3 SWAP2 SWAP1 PUSH2 0x51D6 JUMP JUMPDEST PUSH1 0x40 MLOAD PUSH1 0x20 DUP2 DUP4 SUB SUB DUP2 MSTORE SWAP1 PUSH1 0x40 MSTORE JUMPDEST SWAP2 POP POP SWAP2 SWAP1 POP JUMP JUMPDEST PUSH2 0xA24 PUSH2 0x24F0 JUMP JUMPDEST PUSH2 0x161 PUSH1 0x0 SWAP1 SLOAD SWAP1 PUSH2 0x100 EXP SWAP1 DIV PUSH20 0xFFFFFFFFFFFFFFFFFFFFFFFFFFFFFFFFFFFFFFFF AND PUSH20 0xFFFFFFFFFFFFFFFFFFFFFFFFFFFFFFFFFFFFFFFF AND CALLER PUSH20 0xFFFFFFFFFFFFFFFFFFFFFFFFFFFFFFFFFFFFFFFF AND EQ PUSH2 0xAB5 JUMPI PUSH1 0x40 MLOAD PUSH32 0x8C379A000000000000000000000000000000000000000000000000000000000 DUP2 MSTORE PUSH1 0x4 ADD PUSH2 0xAAC SWAP1 PUSH2 0x5246 JUMP JUMPDEST PUSH1 0x40 MLOAD DUP1 SWAP2 SUB SWAP1 REVERT JUMPDEST PUSH2 0xAC1 DUP5 DUP5 DUP5 DUP5 PUSH2 0x256E JUMP JUMPDEST POP POP POP POP JUMP JUMPDEST PUSH2 0x163 SLOAD DUP2 JUMP JUMPDEST PUSH1 0x0 DUP1 PUSH2 0x165 PUSH1 0x0 DUP5 DUP2 MSTORE PUSH1 0x20 ADD SWAP1 DUP2 MSTORE PUSH1 0x20 ADD PUSH1 0x0 KECCAK256 SLOAD GT PUSH2 0xB26 JUMPI PUSH1 0x40 MLOAD PUSH32 0x8C379A000000000000000000000000000000000000000000000000000000000 DUP2 MSTORE PUSH1 0x4 ADD PUSH2 0xB1D SWAP1 PUSH2 0x52B2 JUMP JUMPDEST PUSH1 0x40 MLOAD DUP1 SWAP2 SUB SWAP1 REVERT JUMPDEST PUSH2 0x165 PUSH1 0x0 DUP4 DUP2 MSTORE PUSH1 0x20 ADD SWAP1 DUP2 MSTORE PUSH1 0x20 ADD PUSH1 0x0 KECCAK256 SLOAD SWAP1 POP SWAP2 SWAP1 POP JUMP JUMPDEST PUSH2 0xB4A PUSH2 0x279B JUMP JUMPDEST PUSH20 0xFFFFFFFFFFFFFFFFFFFFFFFFFFFFFFFFFFFFFFFF AND DUP6 PUSH20 0xFFFFFFFFFFFFFFFFFFFFFFFFFFFFFFFFFFFFFFFF AND EQ DUP1 PUSH2 0xB90 JUMPI POP PUSH2 0xB8F DUP6 PUSH2 0xB8A PUSH2 0x279B JUMP JUMPDEST PUSH2 0x220F JUMP JUMPDEST JUMPDEST PUSH2 0xBCF JUMPI PUSH1 0x40 MLOAD PUSH32 0x8C379A000000000000000000000000000000000000000000000000000000000 DUP2 MSTORE PUSH1 0x4 ADD PUSH2 0xBC6 SWAP1 PUSH2 0x5344 JUMP JUMPDEST PUSH1 0x40 MLOAD DUP1 SWAP2 SUB SWAP1 REVERT JUMPDEST PUSH2 0xBDC DUP6 DUP6 DUP6 DUP6 DUP6 PUSH2 0x27A3 JUMP JUMPDEST POP POP POP POP POP JUMP JUMPDEST PUSH1 0x0 DUP1 PUSH2 0xC53 PUSH32 0xF5C1762E6B057B9A7F4A03E9D9D3276E2615B1C413DD8AC9923ACE9B61F18AD0 DUP5 PUSH1 0x0 ADD MLOAD DUP6 PUSH1 0x20 ADD MLOAD DUP7 PUSH1 0x40 ADD MLOAD DUP8 PUSH1 0x60 ADD MLOAD DUP9 PUSH1 0x80 ADD MLOAD PUSH1 0x40 MLOAD PUSH1 0x20 ADD PUSH2 0xC38 SWAP7 SWAP6 SWAP5 SWAP4 SWAP3 SWAP2 SWAP1 PUSH2 0x537D JUMP JUMPDEST PUSH1 0x40 MLOAD PUSH1 0x20 DUP2 DUP4 SUB SUB DUP2 MSTORE SWAP1 PUSH1 0x40 MSTORE DUP1 MLOAD SWAP1 PUSH1 0x20 ADD KECCAK256 PUSH2 0x2AC7 JUMP JUMPDEST SWAP1 POP PUSH2 0xC63 DUP2 DUP5 PUSH1 0xA0 ADD MLOAD PUSH2 0x2AE1 JUMP JUMPDEST SWAP2 POP POP SWAP2 SWAP1 POP JUMP JUMPDEST PUSH2 0x165 PUSH1 0x20 MSTORE DUP1 PUSH1 0x0 MSTORE PUSH1 0x40 PUSH1 0x0 KECCAK256 PUSH1 0x0 SWAP2 POP SWAP1 POP SLOAD DUP2 JUMP JUMPDEST PUSH1 0x0 DUP1 PUSH2 0xCF5 PUSH32 0xA5FFD2419A6D87A8D8E4DAFED50AB88678E4AE4BD92E619821447EF3E33CBB7 DUP5 PUSH1 0x0 ADD MLOAD DUP6 PUSH1 0x20 ADD MLOAD DUP7 PUSH1 0x40 ADD MLOAD DUP1 MLOAD SWAP1 PUSH1 0x20 ADD KECCAK256 DUP8 PUSH1 0x60 ADD MLOAD PUSH1 0x40 MLOAD PUSH1 0x20 ADD PUSH2 0xCDA SWAP6 SWAP5 SWAP4 SWAP3 SWAP2 SWAP1 PUSH2 0x53DE JUMP JUMPDEST PUSH1 0x40 MLOAD PUSH1 0x20 DUP2 DUP4 SUB SUB DUP2 MSTORE SWAP1 PUSH1 0x40 MSTORE DUP1 MLOAD SWAP1 PUSH1 0x20 ADD KECCAK256 PUSH2 0x2AC7 JUMP JUMPDEST SWAP1 POP PUSH2 0xD05 DUP2 DUP5 PUSH1 0x80 ADD MLOAD PUSH2 0x2AE1 JUMP JUMPDEST SWAP2 POP POP SWAP2 SWAP1 POP JUMP JUMPDEST PUSH2 0x167 PUSH1 0x20 MSTORE DUP1 PUSH1 0x0 MSTORE PUSH1 0x40 PUSH1 0x0 KECCAK256 PUSH1 0x0 SWAP2 POP SLOAD SWAP1 PUSH2 0x100 EXP SWAP1 DIV PUSH1 0xFF AND DUP2 JUMP JUMPDEST PUSH1 0x60 DUP2 MLOAD DUP4 MLOAD EQ PUSH2 0xD74 JUMPI PUSH1 0x40 MLOAD PUSH32 0x8C379A000000000000000000000000000000000000000000000000000000000 DUP2 MSTORE PUSH1 0x4 ADD PUSH2 0xD6B SWAP1 PUSH2 0x54A3 JUMP JUMPDEST PUSH1 0x40 MLOAD DUP1 SWAP2 SUB SWAP1 REVERT JUMPDEST PUSH1 0x0 DUP4 MLOAD PUSH8 0xFFFFFFFFFFFFFFFF DUP2 GT ISZERO PUSH2 0xD91 JUMPI PUSH2 0xD90 PUSH2 0x433B JUMP JUMPDEST JUMPDEST PUSH1 0x40 MLOAD SWAP1 DUP1 DUP3 MSTORE DUP1 PUSH1 0x20 MUL PUSH1 0x20 ADD DUP3 ADD PUSH1 0x40 MSTORE DUP1 ISZERO PUSH2 0xDBF JUMPI DUP2 PUSH1 0x20 ADD PUSH1 0x20 DUP3 MUL DUP1 CALLDATASIZE DUP4 CALLDATACOPY DUP1 DUP3 ADD SWAP2 POP POP SWAP1 POP JUMPDEST POP SWAP1 POP PUSH1 0x0 JUMPDEST DUP5 MLOAD DUP2 LT ISZERO PUSH2 0xE3C JUMPI PUSH2 0xE0C DUP6 DUP3 DUP2 MLOAD DUP2 LT PUSH2 0xDE4 JUMPI PUSH2 0xDE3 PUSH2 0x54C3 JUMP JUMPDEST JUMPDEST PUSH1 0x20 MUL PUSH1 0x20 ADD ADD MLOAD DUP6 DUP4 DUP2 MLOAD DUP2 LT PUSH2 0xDFF JUMPI PUSH2 0xDFE PUSH2 0x54C3 JUMP JUMPDEST JUMPDEST PUSH1 0x20 MUL PUSH1 0x20 ADD ADD MLOAD PUSH2 0x78C JUMP JUMPDEST DUP3 DUP3 DUP2 MLOAD DUP2 LT PUSH2 0xE1F JUMPI PUSH2 0xE1E PUSH2 0x54C3 JUMP JUMPDEST JUMPDEST PUSH1 0x20 MUL PUSH1 0x20 ADD ADD DUP2 DUP2 MSTORE POP POP DUP1 PUSH2 0xE35 SWAP1 PUSH2 0x5521 JUMP JUMPDEST SWAP1 POP PUSH2 0xDC5 JUMP JUMPDEST POP DUP1 SWAP2 POP POP SWAP3 SWAP2 POP POP JUMP JUMPDEST PUSH1 0x0 PUSH2 0x165 PUSH1 0x0 DUP4 PUSH1 0x0 ADD MLOAD DUP2 MSTORE PUSH1 0x20 ADD SWAP1 DUP2 MSTORE PUSH1 0x20 ADD PUSH1 0x0 KECCAK256 SLOAD EQ PUSH2 0xEA2 JUMPI PUSH1 0x40 MLOAD PUSH32 0x8C379A000000000000000000000000000000000000000000000000000000000 DUP2 MSTORE PUSH1 0x4 ADD PUSH2 0xE99 SWAP1 PUSH2 0x55B5 JUMP JUMPDEST PUSH1 0x40 MLOAD DUP1 SWAP2 SUB SWAP1 REVERT JUMPDEST PUSH2 0x161 PUSH1 0x0 SWAP1 SLOAD SWAP1 PUSH2 0x100 EXP SWAP1 DIV PUSH20 0xFFFFFFFFFFFFFFFFFFFFFFFFFFFFFFFFFFFFFFFF AND PUSH20 0xFFFFFFFFFFFFFFFFFFFFFFFFFFFFFFFFFFFFFFFF AND PUSH2 0xEE5 DUP3 PUSH2 0xC84 JUMP JUMPDEST PUSH20 0xFFFFFFFFFFFFFFFFFFFFFFFFFFFFFFFFFFFFFFFF AND EQ PUSH2 0xF3B JUMPI PUSH1 0x40 MLOAD PUSH32 0x8C379A000000000000000000000000000000000000000000000000000000000 DUP2 MSTORE PUSH1 0x4 ADD PUSH2 0xF32 SWAP1 PUSH2 0x5621 JUMP JUMPDEST PUSH1 0x40 MLOAD DUP1 SWAP2 SUB SWAP1 REVERT JUMPDEST PUSH2 0xF62 DUP2 PUSH1 0x60 ADD MLOAD DUP3 PUSH1 0x0 ADD MLOAD DUP4 PUSH1 0x20 ADD MLOAD PUSH1 0x40 MLOAD DUP1 PUSH1 0x20 ADD PUSH1 0x40 MSTORE DUP1 PUSH1 0x0 DUP2 MSTORE POP PUSH2 0x2B08 JUMP JUMPDEST PUSH2 0xF74 DUP2 PUSH1 0x0 ADD MLOAD DUP3 PUSH1 0x40 ADD MLOAD PUSH2 0x2B45 JUMP JUMPDEST POP JUMP JUMPDEST PUSH2 0xF7F PUSH2 0x24F0 JUMP JUMPDEST PUSH2 0xF89 PUSH1 0x0 PUSH2 0x2BAA JUMP JUMPDEST JUMP JUMPDEST PUSH1 0x0 DUP1 PUSH2 0xFFB PUSH32 0x68D06BACB4D0AAE33DFEC3FDC8B2B282BE99CCD0F1DEC38327E55BE6D298392A DUP5 PUSH1 0x0 ADD MLOAD DUP6 PUSH1 0x20 ADD MLOAD DUP7 PUSH1 0x40 ADD MLOAD DUP8 PUSH1 0x60 ADD MLOAD DUP9 PUSH1 0x80 ADD MLOAD PUSH1 0x40 MLOAD PUSH1 0x20 ADD PUSH2 0xFE0 SWAP7 SWAP6 SWAP5 SWAP4 SWAP3 SWAP2 SWAP1 PUSH2 0x537D JUMP JUMPDEST PUSH1 0x40 MLOAD PUSH1 0x20 DUP2 DUP4 SUB SUB DUP2 MSTORE SWAP1 PUSH1 0x40 MSTORE DUP1 MLOAD SWAP1 PUSH1 0x20 ADD KECCAK256 PUSH2 0x2AC7 JUMP JUMPDEST SWAP1 POP PUSH2 0x100B DUP2 DUP5 PUSH1 0xA0 ADD MLOAD PUSH2 0x2AE1 JUMP JUMPDEST SWAP2 POP POP SWAP2 SWAP1 POP JUMP JUMPDEST PUSH1 0x0 DUP1 PUSH1 0x1 SWAP1 SLOAD SWAP1 PUSH2 0x100 EXP SWAP1 DIV PUSH1 0xFF AND ISZERO SWAP1 POP DUP1 DUP1 ISZERO PUSH2 0x1044 JUMPI POP PUSH1 0x1 PUSH1 0x0 DUP1 SLOAD SWAP1 PUSH2 0x100 EXP SWAP1 DIV PUSH1 0xFF AND PUSH1 0xFF AND LT JUMPDEST DUP1 PUSH2 0x1071 JUMPI POP PUSH2 0x1053 ADDRESS PUSH2 0x2C70 JUMP JUMPDEST ISZERO DUP1 ISZERO PUSH2 0x1070 JUMPI POP PUSH1 0x1 PUSH1 0x0 DUP1 SLOAD SWAP1 PUSH2 0x100 EXP SWAP1 DIV PUSH1 0xFF AND PUSH1 0xFF AND EQ JUMPDEST JUMPDEST PUSH2 0x10B0 JUMPI PUSH1 0x40 MLOAD PUSH32 0x8C379A000000000000000000000000000000000000000000000000000000000 DUP2 MSTORE PUSH1 0x4 ADD PUSH2 0x10A7 SWAP1 PUSH2 0x56B3 JUMP JUMPDEST PUSH1 0x40 MLOAD DUP1 SWAP2 SUB SWAP1 REVERT JUMPDEST PUSH1 0x1 PUSH1 0x0 DUP1 PUSH2 0x100 EXP DUP2 SLOAD DUP2 PUSH1 0xFF MUL NOT AND SWAP1 DUP4 PUSH1 0xFF AND MUL OR SWAP1 SSTORE POP DUP1 ISZERO PUSH2 0x10ED JUMPI PUSH1 0x1 PUSH1 0x0 PUSH1 0x1 PUSH2 0x100 EXP DUP2 SLOAD DUP2 PUSH1 0xFF MUL NOT AND SWAP1 DUP4 ISZERO ISZERO MUL OR SWAP1 SSTORE POP JUMPDEST PUSH1 0x0 PUSH20 0xFFFFFFFFFFFFFFFFFFFFFFFFFFFFFFFFFFFFFFFF AND DUP5 PUSH20 0xFFFFFFFFFFFFFFFFFFFFFFFFFFFFFFFFFFFFFFFF AND SUB PUSH2 0x115C JUMPI PUSH1 0x40 MLOAD PUSH32 0x8C379A000000000000000000000000000000000000000000000000000000000 DUP2 MSTORE PUSH1 0x4 ADD PUSH2 0x1153 SWAP1 PUSH2 0x571F JUMP JUMPDEST PUSH1 0x40 MLOAD DUP1 SWAP2 SUB SWAP1 REVERT JUMPDEST PUSH1 0x0 PUSH20 0xFFFFFFFFFFFFFFFFFFFFFFFFFFFFFFFFFFFFFFFF AND DUP3 PUSH20 0xFFFFFFFFFFFFFFFFFFFFFFFFFFFFFFFFFFFFFFFF AND SUB PUSH2 0x11CB JUMPI PUSH1 0x40 MLOAD PUSH32 0x8C379A000000000000000000000000000000000000000000000000000000000 DUP2 MSTORE PUSH1 0x4 ADD PUSH2 0x11C2 SWAP1 PUSH2 0x578B JUMP JUMPDEST PUSH1 0x40 MLOAD DUP1 SWAP2 SUB SWAP1 REVERT JUMPDEST PUSH1 0x0 DUP4 GT PUSH2 0x120E JUMPI PUSH1 0x40 MLOAD PUSH32 0x8C379A000000000000000000000000000000000000000000000000000000000 DUP2 MSTORE PUSH1 0x4 ADD PUSH2 0x1205 SWAP1 PUSH2 0x57F7 JUMP JUMPDEST PUSH1 0x40 MLOAD DUP1 SWAP2 SUB SWAP1 REVERT JUMPDEST PUSH2 0x1217 DUP7 PUSH2 0x2C93 JUMP JUMPDEST PUSH2 0x121F PUSH2 0x2CEE JUMP JUMPDEST PUSH2 0x1293 PUSH1 0x40 MLOAD DUP1 PUSH1 0x40 ADD PUSH1 0x40 MSTORE DUP1 PUSH1 0xA DUP2 MSTORE PUSH1 0x20 ADD PUSH32 0x5845474152415F4E465400000000000000000000000000000000000000000000 DUP2 MSTORE POP PUSH1 0x40 MLOAD DUP1 PUSH1 0x40 ADD PUSH1 0x40 MSTORE DUP1 PUSH1 0x1 DUP2 MSTORE PUSH1 0x20 ADD PUSH32 0x3100000000000000000000000000000000000000000000000000000000000000 DUP2 MSTORE POP PUSH2 0x2D5E JUMP JUMPDEST PUSH2 0x129B PUSH2 0x2DD9 JUMP JUMPDEST PUSH2 0x12A3 PUSH2 0x2E3A JUMP JUMPDEST DUP2 PUSH2 0x162 PUSH1 0x0 PUSH2 0x100 EXP DUP2 SLOAD DUP2 PUSH20 0xFFFFFFFFFFFFFFFFFFFFFFFFFFFFFFFFFFFFFFFF MUL NOT AND SWAP1 DUP4 PUSH20 0xFFFFFFFFFFFFFFFFFFFFFFFFFFFFFFFFFFFFFFFF AND MUL OR SWAP1 SSTORE POP DUP4 PUSH2 0x164 PUSH1 0x0 PUSH2 0x100 EXP DUP2 SLOAD DUP2 PUSH20 0xFFFFFFFFFFFFFFFFFFFFFFFFFFFFFFFFFFFFFFFF MUL NOT AND SWAP1 DUP4 PUSH20 0xFFFFFFFFFFFFFFFFFFFFFFFFFFFFFFFFFFFFFFFF AND MUL OR SWAP1 SSTORE POP DUP3 PUSH2 0x163 DUP2 SWAP1 SSTORE POP DUP5 PUSH2 0x161 PUSH1 0x0 PUSH2 0x100 EXP DUP2 SLOAD DUP2 PUSH20 0xFFFFFFFFFFFFFFFFFFFFFFFFFFFFFFFFFFFFFFFF MUL NOT AND SWAP1 DUP4 PUSH20 0xFFFFFFFFFFFFFFFFFFFFFFFFFFFFFFFFFFFFFFFF AND MUL OR SWAP1 SSTORE POP DUP1 ISZERO PUSH2 0x13CA JUMPI PUSH1 0x0 DUP1 PUSH1 0x1 PUSH2 0x100 EXP DUP2 SLOAD DUP2 PUSH1 0xFF MUL NOT AND SWAP1 DUP4 ISZERO ISZERO MUL OR SWAP1 SSTORE POP PUSH32 0x7F26B83FF96E1F2B6A682F133852F6798A09C465DA95921460CEFB3847402498 PUSH1 0x1 PUSH1 0x40 MLOAD PUSH2 0x13C1 SWAP2 SWAP1 PUSH2 0x585F JUMP JUMPDEST PUSH1 0x40 MLOAD DUP1 SWAP2 SUB SWAP1 LOG1 JUMPDEST POP POP POP POP POP POP JUMP JUMPDEST CALLER PUSH20 0xFFFFFFFFFFFFFFFFFFFFFFFFFFFFFFFFFFFFFFFF AND DUP2 PUSH1 0x80 ADD MLOAD PUSH20 0xFFFFFFFFFFFFFFFFFFFFFFFFFFFFFFFFFFFFFFFF AND EQ PUSH2 0x1444 JUMPI PUSH1 0x40 MLOAD PUSH32 0x8C379A000000000000000000000000000000000000000000000000000000000 DUP2 MSTORE PUSH1 0x4 ADD PUSH2 0x143B SWAP1 PUSH2 0x58C6 JUMP JUMPDEST PUSH1 0x40 MLOAD DUP1 SWAP2 SUB SWAP1 REVERT JUMPDEST PUSH1 0x0 PUSH2 0x169 PUSH1 0x0 DUP4 PUSH1 0x40 ADD MLOAD DUP2 MSTORE PUSH1 0x20 ADD SWAP1 DUP2 MSTORE PUSH1 0x20 ADD PUSH1 0x0 KECCAK256 DUP2 SWAP1 SSTORE POP PUSH1 0x1 PUSH2 0x167 PUSH1 0x0 DUP4 PUSH1 0x40 ADD MLOAD DUP2 MSTORE PUSH1 0x20 ADD SWAP1 DUP2 MSTORE PUSH1 0x20 ADD PUSH1 0x0 KECCAK256 PUSH1 0x0 PUSH2 0x100 EXP DUP2 SLOAD DUP2 PUSH1 0xFF MUL NOT AND SWAP1 DUP4 ISZERO ISZERO MUL OR SWAP1 SSTORE POP POP JUMP JUMPDEST PUSH1 0x0 PUSH1 0xC9 PUSH1 0x0 SWAP1 SLOAD SWAP1 PUSH2 0x100 EXP SWAP1 DIV PUSH20 0xFFFFFFFFFFFFFFFFFFFFFFFFFFFFFFFFFFFFFFFF AND SWAP1 POP SWAP1 JUMP JUMPDEST PUSH2 0x14C8 PUSH2 0x2E94 JUMP JUMPDEST TIMESTAMP PUSH1 0x78 DUP3 PUSH1 0x60 ADD MLOAD PUSH2 0x14DA SWAP2 SWAP1 PUSH2 0x58E6 JUMP JUMPDEST LT ISZERO PUSH2 0x151B JUMPI PUSH1 0x40 MLOAD PUSH32 0x8C379A000000000000000000000000000000000000000000000000000000000 DUP2 MSTORE PUSH1 0x4 ADD PUSH2 0x1512 SWAP1 PUSH2 0x5966 JUMP JUMPDEST PUSH1 0x40 MLOAD DUP1 SWAP2 SUB SWAP1 REVERT JUMPDEST PUSH1 0x0 PUSH20 0xFFFFFFFFFFFFFFFFFFFFFFFFFFFFFFFFFFFFFFFF AND DUP2 PUSH1 0x80 ADD MLOAD PUSH20 0xFFFFFFFFFFFFFFFFFFFFFFFFFFFFFFFFFFFFFFFF AND SUB PUSH2 0x158E JUMPI PUSH1 0x40 MLOAD PUSH32 0x8C379A000000000000000000000000000000000000000000000000000000000 DUP2 MSTORE PUSH1 0x4 ADD PUSH2 0x1585 SWAP1 PUSH2 0x59D2 JUMP JUMPDEST PUSH1 0x40 MLOAD DUP1 SWAP2 SUB SWAP1 REVERT JUMPDEST PUSH1 0x0 PUSH20 0xFFFFFFFFFFFFFFFFFFFFFFFFFFFFFFFFFFFFFFFF AND DUP3 PUSH1 0x80 ADD MLOAD PUSH20 0xFFFFFFFFFFFFFFFFFFFFFFFFFFFFFFFFFFFFFFFF AND SUB PUSH2 0x1601 JUMPI PUSH1 0x40 MLOAD PUSH32 0x8C379A000000000000000000000000000000000000000000000000000000000 DUP2 MSTORE PUSH1 0x4 ADD PUSH2 0x15F8 SWAP1 PUSH2 0x5A3E JUMP JUMPDEST PUSH1 0x40 MLOAD DUP1 SWAP2 SUB SWAP1 REVERT JUMPDEST PUSH2 0x1613 DUP3 PUSH1 0x80 ADD MLOAD DUP4 PUSH1 0x20 ADD MLOAD PUSH2 0x78C JUMP JUMPDEST DUP2 PUSH1 0x20 ADD MLOAD GT ISZERO PUSH2 0x1659 JUMPI PUSH1 0x40 MLOAD PUSH32 0x8C379A000000000000000000000000000000000000000000000000000000000 DUP2 MSTORE PUSH1 0x4 ADD PUSH2 0x1650 SWAP1 PUSH2 0x5AAA JUMP JUMPDEST PUSH1 0x40 MLOAD DUP1 SWAP2 SUB SWAP1 REVERT JUMPDEST PUSH1 0x0 DUP2 PUSH1 0x20 ADD MLOAD GT PUSH2 0x16A0 JUMPI PUSH1 0x40 MLOAD PUSH32 0x8C379A000000000000000000000000000000000000000000000000000000000 DUP2 MSTORE PUSH1 0x4 ADD PUSH2 0x1697 SWAP1 PUSH2 0x5B16 JUMP JUMPDEST PUSH1 0x40 MLOAD DUP1 SWAP2 SUB SWAP1 REVERT JUMPDEST PUSH2 0x168 PUSH1 0x0 DUP3 PUSH1 0x40 ADD MLOAD DUP2 MSTORE PUSH1 0x20 ADD SWAP1 DUP2 MSTORE PUSH1 0x20 ADD PUSH1 0x0 KECCAK256 PUSH1 0x0 SWAP1 SLOAD SWAP1 PUSH2 0x100 EXP SWAP1 DIV PUSH1 0xFF AND ISZERO PUSH2 0x1706 JUMPI PUSH1 0x40 MLOAD PUSH32 0x8C379A000000000000000000000000000000000000000000000000000000000 DUP2 MSTORE PUSH1 0x4 ADD PUSH2 0x16FD SWAP1 PUSH2 0x5B82 JUMP JUMPDEST PUSH1 0x40 MLOAD DUP1 SWAP2 SUB SWAP1 REVERT JUMPDEST PUSH2 0x1714 DUP3 DUP3 PUSH1 0x20 ADD MLOAD PUSH2 0x2EE5 JUMP JUMPDEST DUP2 PUSH1 0x80 ADD MLOAD PUSH20 0xFFFFFFFFFFFFFFFFFFFFFFFFFFFFFFFFFFFFFFFF AND PUSH2 0x1738 DUP4 PUSH2 0xF8B JUMP JUMPDEST PUSH20 0xFFFFFFFFFFFFFFFFFFFFFFFFFFFFFFFFFFFFFFFF AND EQ PUSH2 0x178E JUMPI PUSH1 0x40 MLOAD PUSH32 0x8C379A000000000000000000000000000000000000000000000000000000000 DUP2 MSTORE PUSH1 0x4 ADD PUSH2 0x1785 SWAP1 PUSH2 0x5621 JUMP JUMPDEST PUSH1 0x40 MLOAD DUP1 SWAP2 SUB SWAP1 REVERT JUMPDEST PUSH2 0x162 PUSH1 0x0 SWAP1 SLOAD SWAP1 PUSH2 0x100 EXP SWAP1 DIV PUSH20 0xFFFFFFFFFFFFFFFFFFFFFFFFFFFFFFFFFFFFFFFF AND PUSH20 0xFFFFFFFFFFFFFFFFFFFFFFFFFFFFFFFFFFFFFFFF AND PUSH2 0x17D1 DUP3 PUSH2 0xBE3 JUMP JUMPDEST PUSH20 0xFFFFFFFFFFFFFFFFFFFFFFFFFFFFFFFFFFFFFFFF AND EQ PUSH2 0x1827 JUMPI PUSH1 0x40 MLOAD PUSH32 0x8C379A000000000000000000000000000000000000000000000000000000000 DUP2 MSTORE PUSH1 0x4 ADD PUSH2 0x181E SWAP1 PUSH2 0x5BEE JUMP JUMPDEST PUSH1 0x40 MLOAD DUP1 SWAP2 SUB SWAP1 REVERT JUMPDEST PUSH1 0x0 DUP2 PUSH1 0x20 ADD MLOAD DUP3 PUSH1 0x0 ADD MLOAD PUSH2 0x183D SWAP2 SWAP1 PUSH2 0x5C0E JUMP JUMPDEST SWAP1 POP PUSH1 0x0 PUSH2 0x2710 PUSH2 0x163 SLOAD DUP4 PUSH2 0x1853 SWAP2 SWAP1 PUSH2 0x5C0E JUMP JUMPDEST PUSH2 0x185D SWAP2 SWAP1 PUSH2 0x5C7F JUMP JUMPDEST SWAP1 POP PUSH1 0x1 PUSH20 0xFFFFFFFFFFFFFFFFFFFFFFFFFFFFFFFFFFFFFFFF AND DUP4 PUSH1 0x80 ADD MLOAD PUSH20 0xFFFFFFFFFFFFFFFFFFFFFFFFFFFFFFFFFFFFFFFF AND SUB PUSH2 0x1A75 JUMPI DUP2 CALLVALUE LT ISZERO PUSH2 0x18DA JUMPI PUSH1 0x40 MLOAD PUSH32 0x8C379A000000000000000000000000000000000000000000000000000000000 DUP2 MSTORE PUSH1 0x4 ADD PUSH2 0x18D1 SWAP1 PUSH2 0x5CFC JUMP JUMPDEST PUSH1 0x40 MLOAD DUP1 SWAP2 SUB SWAP1 REVERT JUMPDEST PUSH1 0x0 CALLER PUSH20 0xFFFFFFFFFFFFFFFFFFFFFFFFFFFFFFFFFFFFFFFF AND DUP3 DUP5 PUSH2 0x18FF SWAP2 SWAP1 PUSH2 0x5D1C JUMP JUMPDEST PUSH1 0x40 MLOAD PUSH2 0x190B SWAP1 PUSH2 0x5D81 JUMP JUMPDEST PUSH1 0x0 PUSH1 0x40 MLOAD DUP1 DUP4 SUB DUP2 DUP6 DUP8 GAS CALL SWAP3 POP POP POP RETURNDATASIZE DUP1 PUSH1 0x0 DUP2 EQ PUSH2 0x1948 JUMPI PUSH1 0x40 MLOAD SWAP2 POP PUSH1 0x1F NOT PUSH1 0x3F RETURNDATASIZE ADD AND DUP3 ADD PUSH1 0x40 MSTORE RETURNDATASIZE DUP3 MSTORE RETURNDATASIZE PUSH1 0x0 PUSH1 0x20 DUP5 ADD RETURNDATACOPY PUSH2 0x194D JUMP JUMPDEST PUSH1 0x60 SWAP2 POP JUMPDEST POP POP SWAP1 POP PUSH1 0x1 ISZERO ISZERO DUP2 ISZERO ISZERO EQ PUSH2 0x1998 JUMPI PUSH1 0x40 MLOAD PUSH32 0x8C379A000000000000000000000000000000000000000000000000000000000 DUP2 MSTORE PUSH1 0x4 ADD PUSH2 0x198F SWAP1 PUSH2 0x5DE2 JUMP JUMPDEST PUSH1 0x40 MLOAD DUP1 SWAP2 SUB SWAP1 REVERT JUMPDEST PUSH1 0x0 PUSH2 0x161 PUSH1 0x0 SWAP1 SLOAD SWAP1 PUSH2 0x100 EXP SWAP1 DIV PUSH20 0xFFFFFFFFFFFFFFFFFFFFFFFFFFFFFFFFFFFFFFFF AND PUSH20 0xFFFFFFFFFFFFFFFFFFFFFFFFFFFFFFFFFFFFFFFF AND DUP4 PUSH1 0x40 MLOAD PUSH2 0x19E1 SWAP1 PUSH2 0x5D81 JUMP JUMPDEST PUSH1 0x0 PUSH1 0x40 MLOAD DUP1 DUP4 SUB DUP2 DUP6 DUP8 GAS CALL SWAP3 POP POP POP RETURNDATASIZE DUP1 PUSH1 0x0 DUP2 EQ PUSH2 0x1A1E JUMPI PUSH1 0x40 MLOAD SWAP2 POP PUSH1 0x1F NOT PUSH1 0x3F RETURNDATASIZE ADD AND DUP3 ADD PUSH1 0x40 MSTORE RETURNDATASIZE DUP3 MSTORE RETURNDATASIZE PUSH1 0x0 PUSH1 0x20 DUP5 ADD RETURNDATACOPY PUSH2 0x1A23 JUMP JUMPDEST PUSH1 0x60 SWAP2 POP JUMPDEST POP POP SWAP1 POP PUSH1 0x1 ISZERO ISZERO DUP2 ISZERO ISZERO EQ PUSH2 0x1A6E JUMPI PUSH1 0x40 MLOAD PUSH32 0x8C379A000000000000000000000000000000000000000000000000000000000 DUP2 MSTORE PUSH1 0x4 ADD PUSH2 0x1A65 SWAP1 PUSH2 0x5E4E JUMP JUMPDEST PUSH1 0x40 MLOAD DUP1 SWAP2 SUB SWAP1 REVERT JUMPDEST POP POP PUSH2 0x1C72 JUMP JUMPDEST DUP2 DUP4 PUSH1 0x80 ADD MLOAD PUSH20 0xFFFFFFFFFFFFFFFFFFFFFFFFFFFFFFFFFFFFFFFF AND PUSH4 0x70A08231 CALLER PUSH1 0x40 MLOAD DUP3 PUSH4 0xFFFFFFFF AND PUSH1 0xE0 SHL DUP2 MSTORE PUSH1 0x4 ADD PUSH2 0x1AB3 SWAP2 SWAP1 PUSH2 0x47DB JUMP JUMPDEST PUSH1 0x20 PUSH1 0x40 MLOAD DUP1 DUP4 SUB DUP2 DUP7 GAS STATICCALL ISZERO DUP1 ISZERO PUSH2 0x1AD0 JUMPI RETURNDATASIZE PUSH1 0x0 DUP1 RETURNDATACOPY RETURNDATASIZE PUSH1 0x0 REVERT JUMPDEST POP POP POP POP PUSH1 0x40 MLOAD RETURNDATASIZE PUSH1 0x1F NOT PUSH1 0x1F DUP3 ADD AND DUP3 ADD DUP1 PUSH1 0x40 MSTORE POP DUP2 ADD SWAP1 PUSH2 0x1AF4 SWAP2 SWAP1 PUSH2 0x5E83 JUMP JUMPDEST LT ISZERO PUSH2 0x1B35 JUMPI PUSH1 0x40 MLOAD PUSH32 0x8C379A000000000000000000000000000000000000000000000000000000000 DUP2 MSTORE PUSH1 0x4 ADD PUSH2 0x1B2C SWAP1 PUSH2 0x5CFC JUMP JUMPDEST PUSH1 0x40 MLOAD DUP1 SWAP2 SUB SWAP1 REVERT JUMPDEST DUP3 PUSH1 0x80 ADD MLOAD PUSH20 0xFFFFFFFFFFFFFFFFFFFFFFFFFFFFFFFFFFFFFFFF AND PUSH4 0x23B872DD CALLER DUP7 PUSH1 0x80 ADD MLOAD DUP5 DUP7 PUSH2 0x1B67 SWAP2 SWAP1 PUSH2 0x5D1C JUMP JUMPDEST PUSH1 0x40 MLOAD DUP5 PUSH4 0xFFFFFFFF AND PUSH1 0xE0 SHL DUP2 MSTORE PUSH1 0x4 ADD PUSH2 0x1B85 SWAP4 SWAP3 SWAP2 SWAP1 PUSH2 0x5EB0 JUMP JUMPDEST PUSH1 0x20 PUSH1 0x40 MLOAD DUP1 DUP4 SUB DUP2 PUSH1 0x0 DUP8 GAS CALL ISZERO DUP1 ISZERO PUSH2 0x1BA4 JUMPI RETURNDATASIZE PUSH1 0x0 DUP1 RETURNDATACOPY RETURNDATASIZE PUSH1 0x0 REVERT JUMPDEST POP POP POP POP PUSH1 0x40 MLOAD RETURNDATASIZE PUSH1 0x1F NOT PUSH1 0x1F DUP3 ADD AND DUP3 ADD DUP1 PUSH1 0x40 MSTORE POP DUP2 ADD SWAP1 PUSH2 0x1BC8 SWAP2 SWAP1 PUSH2 0x5EFC JUMP JUMPDEST POP DUP3 PUSH1 0x80 ADD MLOAD PUSH20 0xFFFFFFFFFFFFFFFFFFFFFFFFFFFFFFFFFFFFFFFF AND PUSH4 0x23B872DD CALLER PUSH2 0x161 PUSH1 0x0 SWAP1 SLOAD SWAP1 PUSH2 0x100 EXP SWAP1 DIV PUSH20 0xFFFFFFFFFFFFFFFFFFFFFFFFFFFFFFFFFFFFFFFF AND DUP5 PUSH1 0x40 MLOAD DUP5 PUSH4 0xFFFFFFFF AND PUSH1 0xE0 SHL DUP2 MSTORE PUSH1 0x4 ADD PUSH2 0x1C2D SWAP4 SWAP3 SWAP2 SWAP1 PUSH2 0x5EB0 JUMP JUMPDEST PUSH1 0x20 PUSH1 0x40 MLOAD DUP1 DUP4 SUB DUP2 PUSH1 0x0 DUP8 GAS CALL ISZERO DUP1 ISZERO PUSH2 0x1C4C JUMPI RETURNDATASIZE PUSH1 0x0 DUP1 RETURNDATACOPY RETURNDATASIZE PUSH1 0x0 REVERT JUMPDEST POP POP POP POP PUSH1 0x40 MLOAD RETURNDATASIZE PUSH1 0x1F NOT PUSH1 0x1F DUP3 ADD AND DUP3 ADD DUP1 PUSH1 0x40 MSTORE POP DUP2 ADD SWAP1 PUSH2 0x1C70 SWAP2 SWAP1 PUSH2 0x5EFC JUMP JUMPDEST POP JUMPDEST PUSH1 0x0 PUSH20 0xFFFFFFFFFFFFFFFFFFFFFFFFFFFFFFFFFFFFFFFF AND PUSH2 0x164 PUSH1 0x0 SWAP1 SLOAD SWAP1 PUSH2 0x100 EXP SWAP1 DIV PUSH20 0xFFFFFFFFFFFFFFFFFFFFFFFFFFFFFFFFFFFFFFFF AND PUSH20 0xFFFFFFFFFFFFFFFFFFFFFFFFFFFFFFFFFFFFFFFF AND PUSH4 0xE4291871 DUP7 PUSH1 0x20 ADD MLOAD PUSH1 0x40 MLOAD DUP3 PUSH4 0xFFFFFFFF AND PUSH1 0xE0 SHL DUP2 MSTORE PUSH1 0x4 ADD PUSH2 0x1CEA SWAP2 SWAP1 PUSH2 0x4181 JUMP JUMPDEST PUSH1 0x20 PUSH1 0x40 MLOAD DUP1 DUP4 SUB DUP2 DUP7 GAS STATICCALL ISZERO DUP1 ISZERO PUSH2 0x1D07 JUMPI RETURNDATASIZE PUSH1 0x0 DUP1 RETURNDATACOPY RETURNDATASIZE PUSH1 0x0 REVERT JUMPDEST POP POP POP POP PUSH1 0x40 MLOAD RETURNDATASIZE PUSH1 0x1F NOT PUSH1 0x1F DUP3 ADD AND DUP3 ADD DUP1 PUSH1 0x40 MSTORE POP DUP2 ADD SWAP1 PUSH2 0x1D2B SWAP2 SWAP1 PUSH2 0x5F3E JUMP JUMPDEST PUSH20 0xFFFFFFFFFFFFFFFFFFFFFFFFFFFFFFFFFFFFFFFF AND EQ PUSH2 0x1E64 JUMPI PUSH1 0x0 PUSH2 0x164 PUSH1 0x0 SWAP1 SLOAD SWAP1 PUSH2 0x100 EXP SWAP1 DIV PUSH20 0xFFFFFFFFFFFFFFFFFFFFFFFFFFFFFFFFFFFFFFFF AND PUSH20 0xFFFFFFFFFFFFFFFFFFFFFFFFFFFFFFFFFFFFFFFF AND PUSH4 0xE4291871 DUP7 PUSH1 0x20 ADD MLOAD PUSH1 0x40 MLOAD DUP3 PUSH4 0xFFFFFFFF AND PUSH1 0xE0 SHL DUP2 MSTORE PUSH1 0x4 ADD PUSH2 0x1DA8 SWAP2 SWAP1 PUSH2 0x4181 JUMP JUMPDEST PUSH1 0x20 PUSH1 0x40 MLOAD DUP1 DUP4 SUB DUP2 DUP7 GAS STATICCALL ISZERO DUP1 ISZERO PUSH2 0x1DC5 JUMPI RETURNDATASIZE PUSH1 0x0 DUP1 RETURNDATACOPY RETURNDATASIZE PUSH1 0x0 REVERT JUMPDEST POP POP POP POP PUSH1 0x40 MLOAD RETURNDATASIZE PUSH1 0x1F NOT PUSH1 0x1F DUP3 ADD AND DUP3 ADD DUP1 PUSH1 0x40 MSTORE POP DUP2 ADD SWAP1 PUSH2 0x1DE9 SWAP2 SWAP1 PUSH2 0x5F3E JUMP JUMPDEST SWAP1 POP DUP1 PUSH20 0xFFFFFFFFFFFFFFFFFFFFFFFFFFFFFFFFFFFFFFFF AND PUSH4 0xC8530853 DUP6 PUSH1 0x20 ADD MLOAD DUP8 PUSH1 0x80 ADD MLOAD CALLER PUSH1 0x40 MLOAD DUP5 PUSH4 0xFFFFFFFF AND PUSH1 0xE0 SHL DUP2 MSTORE PUSH1 0x4 ADD PUSH2 0x1E30 SWAP4 SWAP3 SWAP2 SWAP1 PUSH2 0x5F6B JUMP JUMPDEST PUSH1 0x0 PUSH1 0x40 MLOAD DUP1 DUP4 SUB DUP2 PUSH1 0x0 DUP8 DUP1 EXTCODESIZE ISZERO DUP1 ISZERO PUSH2 0x1E4A JUMPI PUSH1 0x0 DUP1 REVERT JUMPDEST POP GAS CALL ISZERO DUP1 ISZERO PUSH2 0x1E5E JUMPI RETURNDATASIZE PUSH1 0x0 DUP1 RETURNDATACOPY RETURNDATASIZE PUSH1 0x0 REVERT JUMPDEST POP POP POP POP POP JUMPDEST PUSH1 0x1 PUSH2 0x168 PUSH1 0x0 DUP6 PUSH1 0x40 ADD MLOAD DUP2 MSTORE PUSH1 0x20 ADD SWAP1 DUP2 MSTORE PUSH1 0x20 ADD PUSH1 0x0 KECCAK256 PUSH1 0x0 PUSH2 0x100 EXP DUP2 SLOAD DUP2 PUSH1 0xFF MUL NOT AND SWAP1 DUP4 ISZERO ISZERO MUL OR SWAP1 SSTORE POP PUSH2 0x1EBD DUP5 PUSH1 0x80 ADD MLOAD CALLER DUP7 PUSH1 0x20 ADD MLOAD DUP7 PUSH1 0x20 ADD MLOAD PUSH1 0x40 MLOAD DUP1 PUSH1 0x20 ADD PUSH1 0x40 MSTORE DUP1 PUSH1 0x0 DUP2 MSTORE POP PUSH2 0x3036 JUMP JUMPDEST POP POP PUSH2 0x1EC7 PUSH2 0x32D4 JUMP JUMPDEST POP POP JUMP JUMPDEST PUSH2 0x1EDD PUSH2 0x1ED6 PUSH2 0x279B JUMP JUMPDEST DUP4 DUP4 PUSH2 0x32DF JUMP JUMPDEST POP POP JUMP JUMPDEST PUSH2 0x169 PUSH1 0x20 MSTORE DUP1 PUSH1 0x0 MSTORE PUSH1 0x40 PUSH1 0x0 KECCAK256 PUSH1 0x0 SWAP2 POP SWAP1 POP SLOAD DUP2 JUMP JUMPDEST PUSH2 0x161 PUSH1 0x0 SWAP1 SLOAD SWAP1 PUSH2 0x100 EXP SWAP1 DIV PUSH20 0xFFFFFFFFFFFFFFFFFFFFFFFFFFFFFFFFFFFFFFFF AND PUSH20 0xFFFFFFFFFFFFFFFFFFFFFFFFFFFFFFFFFFFFFFFF AND CALLER PUSH20 0xFFFFFFFFFFFFFFFFFFFFFFFFFFFFFFFFFFFFFFFF AND EQ PUSH2 0x1F8B JUMPI PUSH1 0x40 MLOAD PUSH32 0x8C379A000000000000000000000000000000000000000000000000000000000 DUP2 MSTORE PUSH1 0x4 ADD PUSH2 0x1F82 SWAP1 PUSH2 0x5FEE JUMP JUMPDEST PUSH1 0x40 MLOAD DUP1 SWAP2 SUB SWAP1 REVERT JUMPDEST PUSH1 0x0 DUP2 GT PUSH2 0x1FCE JUMPI PUSH1 0x40 MLOAD PUSH32 0x8C379A000000000000000000000000000000000000000000000000000000000 DUP2 MSTORE PUSH1 0x4 ADD PUSH2 0x1FC5 SWAP1 PUSH2 0x57F7 JUMP JUMPDEST PUSH1 0x40 MLOAD DUP1 SWAP2 SUB SWAP1 REVERT JUMPDEST DUP1 PUSH2 0x163 DUP2 SWAP1 SSTORE POP POP JUMP JUMPDEST PUSH2 0x164 PUSH1 0x0 SWAP1 SLOAD SWAP1 PUSH2 0x100 EXP SWAP1 DIV PUSH20 0xFFFFFFFFFFFFFFFFFFFFFFFFFFFFFFFFFFFFFFFF AND DUP2 JUMP JUMPDEST PUSH2 0x168 PUSH1 0x20 MSTORE DUP1 PUSH1 0x0 MSTORE PUSH1 0x40 PUSH1 0x0 KECCAK256 PUSH1 0x0 SWAP2 POP SLOAD SWAP1 PUSH2 0x100 EXP SWAP1 DIV PUSH1 0xFF AND DUP2 JUMP JUMPDEST PUSH2 0x161 PUSH1 0x0 SWAP1 SLOAD SWAP1 PUSH2 0x100 EXP SWAP1 DIV PUSH20 0xFFFFFFFFFFFFFFFFFFFFFFFFFFFFFFFFFFFFFFFF AND PUSH20 0xFFFFFFFFFFFFFFFFFFFFFFFFFFFFFFFFFFFFFFFF AND CALLER PUSH20 0xFFFFFFFFFFFFFFFFFFFFFFFFFFFFFFFFFFFFFFFF AND EQ PUSH2 0x20B2 JUMPI PUSH1 0x40 MLOAD PUSH32 0x8C379A000000000000000000000000000000000000000000000000000000000 DUP2 MSTORE PUSH1 0x4 ADD PUSH2 0x20A9 SWAP1 PUSH2 0x5FEE JUMP JUMPDEST PUSH1 0x40 MLOAD DUP1 SWAP2 SUB SWAP1 REVERT JUMPDEST PUSH1 0x0 PUSH20 0xFFFFFFFFFFFFFFFFFFFFFFFFFFFFFFFFFFFFFFFF AND DUP2 PUSH20 0xFFFFFFFFFFFFFFFFFFFFFFFFFFFFFFFFFFFFFFFF AND SUB PUSH2 0x2121 JUMPI PUSH1 0x40 MLOAD PUSH32 0x8C379A000000000000000000000000000000000000000000000000000000000 DUP2 MSTORE PUSH1 0x4 ADD PUSH2 0x2118 SWAP1 PUSH2 0x605A JUMP JUMPDEST PUSH1 0x40 MLOAD DUP1 SWAP2 SUB SWAP1 REVERT JUMPDEST DUP1 PUSH2 0x164 PUSH1 0x0 PUSH2 0x100 EXP DUP2 SLOAD DUP2 PUSH20 0xFFFFFFFFFFFFFFFFFFFFFFFFFFFFFFFFFFFFFFFF MUL NOT AND SWAP1 DUP4 PUSH20 0xFFFFFFFFFFFFFFFFFFFFFFFFFFFFFFFFFFFFFFFF AND MUL OR SWAP1 SSTORE POP POP JUMP JUMPDEST PUSH2 0x216E PUSH2 0x24F0 JUMP JUMPDEST PUSH2 0x161 PUSH1 0x0 SWAP1 SLOAD SWAP1 PUSH2 0x100 EXP SWAP1 DIV PUSH20 0xFFFFFFFFFFFFFFFFFFFFFFFFFFFFFFFFFFFFFFFF AND PUSH20 0xFFFFFFFFFFFFFFFFFFFFFFFFFFFFFFFFFFFFFFFF AND CALLER PUSH20 0xFFFFFFFFFFFFFFFFFFFFFFFFFFFFFFFFFFFFFFFF AND EQ PUSH2 0x21FF JUMPI PUSH1 0x40 MLOAD PUSH32 0x8C379A000000000000000000000000000000000000000000000000000000000 DUP2 MSTORE PUSH1 0x4 ADD PUSH2 0x21F6 SWAP1 PUSH2 0x5246 JUMP JUMPDEST PUSH1 0x40 MLOAD DUP1 SWAP2 SUB SWAP1 REVERT JUMPDEST PUSH2 0x220A DUP4 DUP4 DUP4 PUSH2 0x344B JUMP JUMPDEST POP POP POP JUMP JUMPDEST PUSH1 0x0 PUSH1 0x66 PUSH1 0x0 DUP5 PUSH20 0xFFFFFFFFFFFFFFFFFFFFFFFFFFFFFFFFFFFFFFFF AND PUSH20 0xFFFFFFFFFFFFFFFFFFFFFFFFFFFFFFFFFFFFFFFF AND DUP2 MSTORE PUSH1 0x20 ADD SWAP1 DUP2 MSTORE PUSH1 0x20 ADD PUSH1 0x0 KECCAK256 PUSH1 0x0 DUP4 PUSH20 0xFFFFFFFFFFFFFFFFFFFFFFFFFFFFFFFFFFFFFFFF AND PUSH20 0xFFFFFFFFFFFFFFFFFFFFFFFFFFFFFFFFFFFFFFFF AND DUP2 MSTORE PUSH1 0x20 ADD SWAP1 DUP2 MSTORE PUSH1 0x20 ADD PUSH1 0x0 KECCAK256 PUSH1 0x0 SWAP1 SLOAD SWAP1 PUSH2 0x100 EXP SWAP1 DIV PUSH1 0xFF AND SWAP1 POP SWAP3 SWAP2 POP POP JUMP JUMPDEST PUSH2 0x161 PUSH1 0x0 SWAP1 SLOAD SWAP1 PUSH2 0x100 EXP SWAP1 DIV PUSH20 0xFFFFFFFFFFFFFFFFFFFFFFFFFFFFFFFFFFFFFFFF AND PUSH20 0xFFFFFFFFFFFFFFFFFFFFFFFFFFFFFFFFFFFFFFFF AND CALLER PUSH20 0xFFFFFFFFFFFFFFFFFFFFFFFFFFFFFFFFFFFFFFFF AND EQ PUSH2 0x2334 JUMPI PUSH1 0x40 MLOAD PUSH32 0x8C379A000000000000000000000000000000000000000000000000000000000 DUP2 MSTORE PUSH1 0x4 ADD PUSH2 0x232B SWAP1 PUSH2 0x60C6 JUMP JUMPDEST PUSH1 0x40 MLOAD DUP1 SWAP2 SUB SWAP1 REVERT JUMPDEST PUSH2 0x2341 DUP6 DUP6 DUP6 DUP6 DUP6 PUSH2 0x3693 JUMP JUMPDEST POP POP POP POP POP JUMP JUMPDEST PUSH2 0x2350 PUSH2 0x24F0 JUMP JUMPDEST PUSH1 0x0 PUSH20 0xFFFFFFFFFFFFFFFFFFFFFFFFFFFFFFFFFFFFFFFF AND DUP2 PUSH20 0xFFFFFFFFFFFFFFFFFFFFFFFFFFFFFFFFFFFFFFFF AND SUB PUSH2 0x23BF JUMPI PUSH1 0x40 MLOAD PUSH32 0x8C379A000000000000000000000000000000000000000000000000000000000 DUP2 MSTORE PUSH1 0x4 ADD PUSH2 0x23B6 SWAP1 PUSH2 0x6158 JUMP JUMPDEST PUSH1 0x40 MLOAD DUP1 SWAP2 SUB SWAP1 REVERT JUMPDEST PUSH2 0x23C8 DUP2 PUSH2 0x2BAA JUMP JUMPDEST POP JUMP JUMPDEST PUSH2 0x161 PUSH1 0x0 SWAP1 SLOAD SWAP1 PUSH2 0x100 EXP SWAP1 DIV PUSH20 0xFFFFFFFFFFFFFFFFFFFFFFFFFFFFFFFFFFFFFFFF AND DUP2 JUMP JUMPDEST PUSH1 0x0 PUSH32 0x1FFC9A700000000000000000000000000000000000000000000000000000000 PUSH28 0xFFFFFFFFFFFFFFFFFFFFFFFFFFFFFFFFFFFFFFFFFFFFFFFFFFFFFFFF NOT AND DUP3 PUSH28 0xFFFFFFFFFFFFFFFFFFFFFFFFFFFFFFFFFFFFFFFFFFFFFFFFFFFFFFFF NOT AND EQ SWAP1 POP SWAP2 SWAP1 POP JUMP JUMPDEST PUSH1 0x60 PUSH1 0x67 DUP1 SLOAD PUSH2 0x246B SWAP1 PUSH2 0x50D1 JUMP JUMPDEST DUP1 PUSH1 0x1F ADD PUSH1 0x20 DUP1 SWAP2 DIV MUL PUSH1 0x20 ADD PUSH1 0x40 MLOAD SWAP1 DUP2 ADD PUSH1 0x40 MSTORE DUP1 SWAP3 SWAP2 SWAP1 DUP2 DUP2 MSTORE PUSH1 0x20 ADD DUP3 DUP1 SLOAD PUSH2 0x2497 SWAP1 PUSH2 0x50D1 JUMP JUMPDEST DUP1 ISZERO PUSH2 0x24E4 JUMPI DUP1 PUSH1 0x1F LT PUSH2 0x24B9 JUMPI PUSH2 0x100 DUP1 DUP4 SLOAD DIV MUL DUP4 MSTORE SWAP2 PUSH1 0x20 ADD SWAP2 PUSH2 0x24E4 JUMP JUMPDEST DUP3 ADD SWAP2 SWAP1 PUSH1 0x0 MSTORE PUSH1 0x20 PUSH1 0x0 KECCAK256 SWAP1 JUMPDEST DUP2 SLOAD DUP2 MSTORE SWAP1 PUSH1 0x1 ADD SWAP1 PUSH1 0x20 ADD DUP1 DUP4 GT PUSH2 0x24C7 JUMPI DUP3 SWAP1 SUB PUSH1 0x1F AND DUP3 ADD SWAP2 JUMPDEST POP POP POP POP POP SWAP1 POP SWAP2 SWAP1 POP JUMP JUMPDEST PUSH2 0x24F8 PUSH2 0x279B JUMP JUMPDEST PUSH20 0xFFFFFFFFFFFFFFFFFFFFFFFFFFFFFFFFFFFFFFFF AND PUSH2 0x2516 PUSH2 0x1496 JUMP JUMPDEST PUSH20 0xFFFFFFFFFFFFFFFFFFFFFFFFFFFFFFFFFFFFFFFF AND EQ PUSH2 0x256C JUMPI PUSH1 0x40 MLOAD PUSH32 0x8C379A000000000000000000000000000000000000000000000000000000000 DUP2 MSTORE PUSH1 0x4 ADD PUSH2 0x2563 SWAP1 PUSH2 0x61C4 JUMP JUMPDEST PUSH1 0x40 MLOAD DUP1 SWAP2 SUB SWAP1 REVERT JUMPDEST JUMP JUMPDEST PUSH1 0x0 PUSH20 0xFFFFFFFFFFFFFFFFFFFFFFFFFFFFFFFFFFFFFFFF AND DUP5 PUSH20 0xFFFFFFFFFFFFFFFFFFFFFFFFFFFFFFFFFFFFFFFF AND SUB PUSH2 0x25DD JUMPI PUSH1 0x40 MLOAD PUSH32 0x8C379A000000000000000000000000000000000000000000000000000000000 DUP2 MSTORE PUSH1 0x4 ADD PUSH2 0x25D4 SWAP1 PUSH2 0x6256 JUMP JUMPDEST PUSH1 0x40 MLOAD DUP1 SWAP2 SUB SWAP1 REVERT JUMPDEST DUP2 MLOAD DUP4 MLOAD EQ PUSH2 0x2621 JUMPI PUSH1 0x40 MLOAD PUSH32 0x8C379A000000000000000000000000000000000000000000000000000000000 DUP2 MSTORE PUSH1 0x4 ADD PUSH2 0x2618 SWAP1 PUSH2 0x62E8 JUMP JUMPDEST PUSH1 0x40 MLOAD DUP1 SWAP2 SUB SWAP1 REVERT JUMPDEST PUSH1 0x0 PUSH2 0x262B PUSH2 0x279B JUMP JUMPDEST SWAP1 POP PUSH2 0x263C DUP2 PUSH1 0x0 DUP8 DUP8 DUP8 DUP8 PUSH2 0x3734 JUMP JUMPDEST PUSH1 0x0 JUMPDEST DUP5 MLOAD DUP2 LT ISZERO PUSH2 0x26F6 JUMPI DUP4 DUP2 DUP2 MLOAD DUP2 LT PUSH2 0x265B JUMPI PUSH2 0x265A PUSH2 0x54C3 JUMP JUMPDEST JUMPDEST PUSH1 0x20 MUL PUSH1 0x20 ADD ADD MLOAD PUSH1 0x65 PUSH1 0x0 DUP8 DUP5 DUP2 MLOAD DUP2 LT PUSH2 0x267A JUMPI PUSH2 0x2679 PUSH2 0x54C3 JUMP JUMPDEST JUMPDEST PUSH1 0x20 MUL PUSH1 0x20 ADD ADD MLOAD DUP2 MSTORE PUSH1 0x20 ADD SWAP1 DUP2 MSTORE PUSH1 0x20 ADD PUSH1 0x0 KECCAK256 PUSH1 0x0 DUP9 PUSH20 0xFFFFFFFFFFFFFFFFFFFFFFFFFFFFFFFFFFFFFFFF AND PUSH20 0xFFFFFFFFFFFFFFFFFFFFFFFFFFFFFFFFFFFFFFFF AND DUP2 MSTORE PUSH1 0x20 ADD SWAP1 DUP2 MSTORE PUSH1 0x20 ADD PUSH1 0x0 KECCAK256 PUSH1 0x0 DUP3 DUP3 SLOAD PUSH2 0x26DC SWAP2 SWAP1 PUSH2 0x58E6 JUMP JUMPDEST SWAP3 POP POP DUP2 SWAP1 SSTORE POP DUP1 DUP1 PUSH2 0x26EE SWAP1 PUSH2 0x5521 JUMP JUMPDEST SWAP2 POP POP PUSH2 0x263F JUMP JUMPDEST POP DUP5 PUSH20 0xFFFFFFFFFFFFFFFFFFFFFFFFFFFFFFFFFFFFFFFF AND PUSH1 0x0 PUSH20 0xFFFFFFFFFFFFFFFFFFFFFFFFFFFFFFFFFFFFFFFF AND DUP3 PUSH20 0xFFFFFFFFFFFFFFFFFFFFFFFFFFFFFFFFFFFFFFFF AND PUSH32 0x4A39DC06D4C0DBC64B70AF90FD698A233A518AA5D07E595D983B8C0526C8F7FB DUP8 DUP8 PUSH1 0x40 MLOAD PUSH2 0x276E SWAP3 SWAP2 SWAP1 PUSH2 0x6308 JUMP JUMPDEST PUSH1 0x40 MLOAD DUP1 SWAP2 SUB SWAP1 LOG4 PUSH2 0x2785 DUP2 PUSH1 0x0 DUP8 DUP8 DUP8 DUP8 PUSH2 0x373C JUMP JUMPDEST PUSH2 0x2794 DUP2 PUSH1 0x0 DUP8 DUP8 DUP8 DUP8 PUSH2 0x3744 JUMP JUMPDEST POP POP POP POP POP JUMP JUMPDEST PUSH1 0x0 CALLER SWAP1 POP SWAP1 JUMP JUMPDEST DUP2 MLOAD DUP4 MLOAD EQ PUSH2 0x27E7 JUMPI PUSH1 0x40 MLOAD PUSH32 0x8C379A000000000000000000000000000000000000000000000000000000000 DUP2 MSTORE PUSH1 0x4 ADD PUSH2 0x27DE SWAP1 PUSH2 0x62E8 JUMP JUMPDEST PUSH1 0x40 MLOAD DUP1 SWAP2 SUB SWAP1 REVERT JUMPDEST PUSH1 0x0 PUSH20 0xFFFFFFFFFFFFFFFFFFFFFFFFFFFFFFFFFFFFFFFF AND DUP5 PUSH20 0xFFFFFFFFFFFFFFFFFFFFFFFFFFFFFFFFFFFFFFFF AND SUB PUSH2 0x2856 JUMPI PUSH1 0x40 MLOAD PUSH32 0x8C379A000000000000000000000000000000000000000000000000000000000 DUP2 MSTORE PUSH1 0x4 ADD PUSH2 0x284D SWAP1 PUSH2 0x63B1 JUMP JUMPDEST PUSH1 0x40 MLOAD DUP1 SWAP2 SUB SWAP1 REVERT JUMPDEST PUSH1 0x0 PUSH2 0x2860 PUSH2 0x279B JUMP JUMPDEST SWAP1 POP PUSH2 0x2870 DUP2 DUP8 DUP8 DUP8 DUP8 DUP8 PUSH2 0x3734 JUMP JUMPDEST PUSH1 0x0 JUMPDEST DUP5 MLOAD DUP2 LT ISZERO PUSH2 0x2A24 JUMPI PUSH1 0x0 DUP6 DUP3 DUP2 MLOAD DUP2 LT PUSH2 0x2891 JUMPI PUSH2 0x2890 PUSH2 0x54C3 JUMP JUMPDEST JUMPDEST PUSH1 0x20 MUL PUSH1 0x20 ADD ADD MLOAD SWAP1 POP PUSH1 0x0 DUP6 DUP4 DUP2 MLOAD DUP2 LT PUSH2 0x28B0 JUMPI PUSH2 0x28AF PUSH2 0x54C3 JUMP JUMPDEST JUMPDEST PUSH1 0x20 MUL PUSH1 0x20 ADD ADD MLOAD SWAP1 POP PUSH1 0x0 PUSH1 0x65 PUSH1 0x0 DUP5 DUP2 MSTORE PUSH1 0x20 ADD SWAP1 DUP2 MSTORE PUSH1 0x20 ADD PUSH1 0x0 KECCAK256 PUSH1 0x0 DUP12 PUSH20 0xFFFFFFFFFFFFFFFFFFFFFFFFFFFFFFFFFFFFFFFF AND PUSH20 0xFFFFFFFFFFFFFFFFFFFFFFFFFFFFFFFFFFFFFFFF AND DUP2 MSTORE PUSH1 0x20 ADD SWAP1 DUP2 MSTORE PUSH1 0x20 ADD PUSH1 0x0 KECCAK256 SLOAD SWAP1 POP DUP2 DUP2 LT ISZERO PUSH2 0x2952 JUMPI PUSH1 0x40 MLOAD PUSH32 0x8C379A000000000000000000000000000000000000000000000000000000000 DUP2 MSTORE PUSH1 0x4 ADD PUSH2 0x2949 SWAP1 PUSH2 0x6443 JUMP JUMPDEST PUSH1 0x40 MLOAD DUP1 SWAP2 SUB SWAP1 REVERT JUMPDEST DUP2 DUP2 SUB PUSH1 0x65 PUSH1 0x0 DUP6 DUP2 MSTORE PUSH1 0x20 ADD SWAP1 DUP2 MSTORE PUSH1 0x20 ADD PUSH1 0x0 KECCAK256 PUSH1 0x0 DUP13 PUSH20 0xFFFFFFFFFFFFFFFFFFFFFFFFFFFFFFFFFFFFFFFF AND PUSH20 0xFFFFFFFFFFFFFFFFFFFFFFFFFFFFFFFFFFFFFFFF AND DUP2 MSTORE PUSH1 0x20 ADD SWAP1 DUP2 MSTORE PUSH1 0x20 ADD PUSH1 0x0 KECCAK256 DUP2 SWAP1 SSTORE POP DUP2 PUSH1 0x65 PUSH1 0x0 DUP6 DUP2 MSTORE PUSH1 0x20 ADD SWAP1 DUP2 MSTORE PUSH1 0x20 ADD PUSH1 0x0 KECCAK256 PUSH1 0x0 DUP12 PUSH20 0xFFFFFFFFFFFFFFFFFFFFFFFFFFFFFFFFFFFFFFFF AND PUSH20 0xFFFFFFFFFFFFFFFFFFFFFFFFFFFFFFFFFFFFFFFF AND DUP2 MSTORE PUSH1 0x20 ADD SWAP1 DUP2 MSTORE PUSH1 0x20 ADD PUSH1 0x0 KECCAK256 PUSH1 0x0 DUP3 DUP3 SLOAD PUSH2 0x2A09 SWAP2 SWAP1 PUSH2 0x58E6 JUMP JUMPDEST SWAP3 POP POP DUP2 SWAP1 SSTORE POP POP POP POP DUP1 PUSH2 0x2A1D SWAP1 PUSH2 0x5521 JUMP JUMPDEST SWAP1 POP PUSH2 0x2873 JUMP JUMPDEST POP DUP5 PUSH20 0xFFFFFFFFFFFFFFFFFFFFFFFFFFFFFFFFFFFFFFFF AND DUP7 PUSH20 0xFFFFFFFFFFFFFFFFFFFFFFFFFFFFFFFFFFFFFFFF AND DUP3 PUSH20 0xFFFFFFFFFFFFFFFFFFFFFFFFFFFFFFFFFFFFFFFF AND PUSH32 0x4A39DC06D4C0DBC64B70AF90FD698A233A518AA5D07E595D983B8C0526C8F7FB DUP8 DUP8 PUSH1 0x40 MLOAD PUSH2 0x2A9B SWAP3 SWAP2 SWAP1 PUSH2 0x6308 JUMP JUMPDEST PUSH1 0x40 MLOAD DUP1 SWAP2 SUB SWAP1 LOG4 PUSH2 0x2AB1 DUP2 DUP8 DUP8 DUP8 DUP8 DUP8 PUSH2 0x373C JUMP JUMPDEST PUSH2 0x2ABF DUP2 DUP8 DUP8 DUP8 DUP8 DUP8 PUSH2 0x3744 JUMP JUMPDEST POP POP POP POP POP POP JUMP JUMPDEST PUSH1 0x0 PUSH2 0x2ADA PUSH2 0x2AD4 PUSH2 0x391B JUMP JUMPDEST DUP4 PUSH2 0x395B JUMP JUMPDEST SWAP1 POP SWAP2 SWAP1 POP JUMP JUMPDEST PUSH1 0x0 DUP1 PUSH1 0x0 PUSH2 0x2AF0 DUP6 DUP6 PUSH2 0x398E JUMP JUMPDEST SWAP2 POP SWAP2 POP PUSH2 0x2AFD DUP2 PUSH2 0x39DF JUMP JUMPDEST DUP2 SWAP3 POP POP POP SWAP3 SWAP2 POP POP JUMP JUMPDEST DUP2 PUSH2 0x165 PUSH1 0x0 DUP6 DUP2 MSTORE PUSH1 0x20 ADD SWAP1 DUP2 MSTORE PUSH1 0x20 ADD PUSH1 0x0 KECCAK256 PUSH1 0x0 DUP3 DUP3 SLOAD PUSH2 0x2B2C SWAP2 SWAP1 PUSH2 0x58E6 JUMP JUMPDEST SWAP3 POP POP DUP2 SWAP1 SSTORE POP PUSH2 0x2B3F DUP5 DUP5 DUP5 DUP5 PUSH2 0x3B45 JUMP JUMPDEST POP POP POP POP JUMP JUMPDEST DUP1 PUSH1 0x98 PUSH1 0x0 DUP5 DUP2 MSTORE PUSH1 0x20 ADD SWAP1 DUP2 MSTORE PUSH1 0x20 ADD PUSH1 0x0 KECCAK256 SWAP1 DUP2 PUSH2 0x2B65 SWAP2 SWAP1 PUSH2 0x65F0 JUMP JUMPDEST POP DUP2 PUSH32 0x6BB7FF708619BA0610CBA295A58592E0451DEE2622938C8755667688DAF3529B PUSH2 0x2B91 DUP5 PUSH2 0x937 JUMP JUMPDEST PUSH1 0x40 MLOAD PUSH2 0x2B9E SWAP2 SWAP1 PUSH2 0x4314 JUMP JUMPDEST PUSH1 0x40 MLOAD DUP1 SWAP2 SUB SWAP1 LOG2 POP POP JUMP JUMPDEST PUSH1 0x0 PUSH1 0xC9 PUSH1 0x0 SWAP1 SLOAD SWAP1 PUSH2 0x100 EXP SWAP1 DIV PUSH20 0xFFFFFFFFFFFFFFFFFFFFFFFFFFFFFFFFFFFFFFFF AND SWAP1 POP DUP2 PUSH1 0xC9 PUSH1 0x0 PUSH2 0x100 EXP DUP2 SLOAD DUP2 PUSH20 0xFFFFFFFFFFFFFFFFFFFFFFFFFFFFFFFFFFFFFFFF MUL NOT AND SWAP1 DUP4 PUSH20 0xFFFFFFFFFFFFFFFFFFFFFFFFFFFFFFFFFFFFFFFF AND MUL OR SWAP1 SSTORE POP DUP2 PUSH20 0xFFFFFFFFFFFFFFFFFFFFFFFFFFFFFFFFFFFFFFFF AND DUP2 PUSH20 0xFFFFFFFFFFFFFFFFFFFFFFFFFFFFFFFFFFFFFFFF AND PUSH32 0x8BE0079C531659141344CD1FD0A4F28419497F9722A3DAAFE3B4186F6B6457E0 PUSH1 0x40 MLOAD PUSH1 0x40 MLOAD DUP1 SWAP2 SUB SWAP1 LOG3 POP POP JUMP JUMPDEST PUSH1 0x0 DUP1 DUP3 PUSH20 0xFFFFFFFFFFFFFFFFFFFFFFFFFFFFFFFFFFFFFFFF AND EXTCODESIZE GT SWAP1 POP SWAP2 SWAP1 POP JUMP JUMPDEST PUSH1 0x0 PUSH1 0x1 SWAP1 SLOAD SWAP1 PUSH2 0x100 EXP SWAP1 DIV PUSH1 0xFF AND PUSH2 0x2CE2 JUMPI PUSH1 0x40 MLOAD PUSH32 0x8C379A000000000000000000000000000000000000000000000000000000000 DUP2 MSTORE PUSH1 0x4 ADD PUSH2 0x2CD9 SWAP1 PUSH2 0x6734 JUMP JUMPDEST PUSH1 0x40 MLOAD DUP1 SWAP2 SUB SWAP1 REVERT JUMPDEST PUSH2 0x2CEB DUP2 PUSH2 0x3CF6 JUMP JUMPDEST POP JUMP JUMPDEST PUSH1 0x0 PUSH1 0x1 SWAP1 SLOAD SWAP1 PUSH2 0x100 EXP SWAP1 DIV PUSH1 0xFF AND PUSH2 0x2D3D JUMPI PUSH1 0x40 MLOAD PUSH32 0x8C379A000000000000000000000000000000000000000000000000000000000 DUP2 MSTORE PUSH1 0x4 ADD PUSH2 0x2D34 SWAP1 PUSH2 0x6734 JUMP JUMPDEST PUSH1 0x40 MLOAD DUP1 SWAP2 SUB SWAP1 REVERT JUMPDEST PUSH1 0x40 MLOAD DUP1 PUSH1 0x20 ADD PUSH1 0x40 MSTORE DUP1 PUSH1 0x0 DUP2 MSTORE POP PUSH1 0x97 SWAP1 DUP2 PUSH2 0x2D5B SWAP2 SWAP1 PUSH2 0x65F0 JUMP JUMPDEST POP JUMP JUMPDEST PUSH1 0x0 PUSH1 0x1 SWAP1 SLOAD SWAP1 PUSH2 0x100 EXP SWAP1 DIV PUSH1 0xFF AND PUSH2 0x2DAD JUMPI PUSH1 0x40 MLOAD PUSH32 0x8C379A000000000000000000000000000000000000000000000000000000000 DUP2 MSTORE PUSH1 0x4 ADD PUSH2 0x2DA4 SWAP1 PUSH2 0x6734 JUMP JUMPDEST PUSH1 0x40 MLOAD DUP1 SWAP2 SUB SWAP1 REVERT JUMPDEST PUSH1 0x0 DUP3 DUP1 MLOAD SWAP1 PUSH1 0x20 ADD KECCAK256 SWAP1 POP PUSH1 0x0 DUP3 DUP1 MLOAD SWAP1 PUSH1 0x20 ADD KECCAK256 SWAP1 POP DUP2 PUSH1 0xFB DUP2 SWAP1 SSTORE POP DUP1 PUSH1 0xFC DUP2 SWAP1 SSTORE POP POP POP POP POP JUMP JUMPDEST PUSH1 0x0 PUSH1 0x1 SWAP1 SLOAD SWAP1 PUSH2 0x100 EXP SWAP1 DIV PUSH1 0xFF AND PUSH2 0x2E28 JUMPI PUSH1 0x40 MLOAD PUSH32 0x8C379A000000000000000000000000000000000000000000000000000000000 DUP2 MSTORE PUSH1 0x4 ADD PUSH2 0x2E1F SWAP1 PUSH2 0x6734 JUMP JUMPDEST PUSH1 0x40 MLOAD DUP1 SWAP2 SUB SWAP1 REVERT JUMPDEST PUSH2 0x2E38 PUSH2 0x2E33 PUSH2 0x279B JUMP JUMPDEST PUSH2 0x2BAA JUMP JUMPDEST JUMP JUMPDEST PUSH1 0x0 PUSH1 0x1 SWAP1 SLOAD SWAP1 PUSH2 0x100 EXP SWAP1 DIV PUSH1 0xFF AND PUSH2 0x2E89 JUMPI PUSH1 0x40 MLOAD PUSH32 0x8C379A000000000000000000000000000000000000000000000000000000000 DUP2 MSTORE PUSH1 0x4 ADD PUSH2 0x2E80 SWAP1 PUSH2 0x6734 JUMP JUMPDEST PUSH1 0x40 MLOAD DUP1 SWAP2 SUB SWAP1 REVERT JUMPDEST PUSH1 0x1 PUSH2 0x12F DUP2 SWAP1 SSTORE POP JUMP JUMPDEST PUSH1 0x2 PUSH2 0x12F SLOAD SUB PUSH2 0x2EDA JUMPI PUSH1 0x40 MLOAD PUSH32 0x8C379A000000000000000000000000000000000000000000000000000000000 DUP2 MSTORE PUSH1 0x4 ADD PUSH2 0x2ED1 SWAP1 PUSH2 0x67A0 JUMP JUMPDEST PUSH1 0x40 MLOAD DUP1 SWAP2 SUB SWAP1 REVERT JUMPDEST PUSH1 0x2 PUSH2 0x12F DUP2 SWAP1 SSTORE POP JUMP JUMPDEST PUSH2 0x167 PUSH1 0x0 DUP4 PUSH1 0x40 ADD MLOAD DUP2 MSTORE PUSH1 0x20 ADD SWAP1 DUP2 MSTORE PUSH1 0x20 ADD PUSH1 0x0 KECCAK256 PUSH1 0x0 SWAP1 SLOAD SWAP1 PUSH2 0x100 EXP SWAP1 DIV PUSH1 0xFF AND ISZERO PUSH2 0x2F4B JUMPI PUSH1 0x40 MLOAD PUSH32 0x8C379A000000000000000000000000000000000000000000000000000000000 DUP2 MSTORE PUSH1 0x4 ADD PUSH2 0x2F42 SWAP1 PUSH2 0x680C JUMP JUMPDEST PUSH1 0x40 MLOAD DUP1 SWAP2 SUB SWAP1 REVERT JUMPDEST PUSH1 0x0 PUSH2 0x169 PUSH1 0x0 DUP5 PUSH1 0x40 ADD MLOAD DUP2 MSTORE PUSH1 0x20 ADD SWAP1 DUP2 MSTORE PUSH1 0x20 ADD PUSH1 0x0 KECCAK256 SLOAD SWAP1 POP PUSH1 0x0 DUP2 SUB PUSH2 0x2F87 JUMPI DUP2 DUP4 PUSH1 0x60 ADD MLOAD PUSH2 0x2F80 SWAP2 SWAP1 PUSH2 0x5D1C JUMP JUMPDEST SWAP1 POP PUSH2 0x2F96 JUMP JUMPDEST DUP2 DUP2 PUSH2 0x2F93 SWAP2 SWAP1 PUSH2 0x5D1C JUMP JUMPDEST SWAP1 POP JUMPDEST PUSH1 0x0 DUP2 LT ISZERO PUSH2 0x2FDA JUMPI PUSH1 0x40 MLOAD PUSH32 0x8C379A000000000000000000000000000000000000000000000000000000000 DUP2 MSTORE PUSH1 0x4 ADD PUSH2 0x2FD1 SWAP1 PUSH2 0x6878 JUMP JUMPDEST PUSH1 0x40 MLOAD DUP1 SWAP2 SUB SWAP1 REVERT JUMPDEST DUP1 PUSH2 0x169 PUSH1 0x0 DUP6 PUSH1 0x40 ADD MLOAD DUP2 MSTORE PUSH1 0x20 ADD SWAP1 DUP2 MSTORE PUSH1 0x20 ADD PUSH1 0x0 KECCAK256 DUP2 SWAP1 SSTORE POP PUSH1 0x0 DUP2 SUB PUSH2 0x3031 JUMPI PUSH1 0x1 PUSH2 0x167 PUSH1 0x0 DUP6 PUSH1 0x40 ADD MLOAD DUP2 MSTORE PUSH1 0x20 ADD SWAP1 DUP2 MSTORE PUSH1 0x20 ADD PUSH1 0x0 KECCAK256 PUSH1 0x0 PUSH2 0x100 EXP DUP2 SLOAD DUP2 PUSH1 0xFF MUL NOT AND SWAP1 DUP4 ISZERO ISZERO MUL OR SWAP1 SSTORE POP JUMPDEST POP POP POP JUMP JUMPDEST PUSH1 0x0 PUSH20 0xFFFFFFFFFFFFFFFFFFFFFFFFFFFFFFFFFFFFFFFF AND DUP5 PUSH20 0xFFFFFFFFFFFFFFFFFFFFFFFFFFFFFFFFFFFFFFFF AND SUB PUSH2 0x30A5 JUMPI PUSH1 0x40 MLOAD PUSH32 0x8C379A000000000000000000000000000000000000000000000000000000000 DUP2 MSTORE PUSH1 0x4 ADD PUSH2 0x309C SWAP1 PUSH2 0x63B1 JUMP JUMPDEST PUSH1 0x40 MLOAD DUP1 SWAP2 SUB SWAP1 REVERT JUMPDEST PUSH1 0x0 PUSH2 0x30AF PUSH2 0x279B JUMP JUMPDEST SWAP1 POP PUSH1 0x0 PUSH2 0x30BC DUP6 PUSH2 0x3D09 JUMP JUMPDEST SWAP1 POP PUSH1 0x0 PUSH2 0x30C9 DUP6 PUSH2 0x3D09 JUMP JUMPDEST SWAP1 POP PUSH2 0x30D9 DUP4 DUP10 DUP10 DUP6 DUP6 DUP10 PUSH2 0x3734 JUMP JUMPDEST PUSH1 0x0 PUSH1 0x65 PUSH1 0x0 DUP9 DUP2 MSTORE PUSH1 0x20 ADD SWAP1 DUP2 MSTORE PUSH1 0x20 ADD PUSH1 0x0 KECCAK256 PUSH1 0x0 DUP11 PUSH20 0xFFFFFFFFFFFFFFFFFFFFFFFFFFFFFFFFFFFFFFFF AND PUSH20 0xFFFFFFFFFFFFFFFFFFFFFFFFFFFFFFFFFFFFFFFF AND DUP2 MSTORE PUSH1 0x20 ADD SWAP1 DUP2 MSTORE PUSH1 0x20 ADD PUSH1 0x0 KECCAK256 SLOAD SWAP1 POP DUP6 DUP2 LT ISZERO PUSH2 0x3171 JUMPI PUSH1 0x40 MLOAD PUSH32 0x8C379A000000000000000000000000000000000000000000000000000000000 DUP2 MSTORE PUSH1 0x4 ADD PUSH2 0x3168 SWAP1 PUSH2 0x6443 JUMP JUMPDEST PUSH1 0x40 MLOAD DUP1 SWAP2 SUB SWAP1 REVERT JUMPDEST DUP6 DUP2 SUB PUSH1 0x65 PUSH1 0x0 DUP10 DUP2 MSTORE PUSH1 0x20 ADD SWAP1 DUP2 MSTORE PUSH1 0x20 ADD PUSH1 0x0 KECCAK256 PUSH1 0x0 DUP12 PUSH20 0xFFFFFFFFFFFFFFFFFFFFFFFFFFFFFFFFFFFFFFFF AND PUSH20 0xFFFFFFFFFFFFFFFFFFFFFFFFFFFFFFFFFFFFFFFF AND DUP2 MSTORE PUSH1 0x20 ADD SWAP1 DUP2 MSTORE PUSH1 0x20 ADD PUSH1 0x0 KECCAK256 DUP2 SWAP1 SSTORE POP DUP6 PUSH1 0x65 PUSH1 0x0 DUP10 DUP2 MSTORE PUSH1 0x20 ADD SWAP1 DUP2 MSTORE PUSH1 0x20 ADD PUSH1 0x0 KECCAK256 PUSH1 0x0 DUP11 PUSH20 0xFFFFFFFFFFFFFFFFFFFFFFFFFFFFFFFFFFFFFFFF AND PUSH20 0xFFFFFFFFFFFFFFFFFFFFFFFFFFFFFFFFFFFFFFFF AND DUP2 MSTORE PUSH1 0x20 ADD SWAP1 DUP2 MSTORE PUSH1 0x20 ADD PUSH1 0x0 KECCAK256 PUSH1 0x0 DUP3 DUP3 SLOAD PUSH2 0x3228 SWAP2 SWAP1 PUSH2 0x58E6 JUMP JUMPDEST SWAP3 POP POP DUP2 SWAP1 SSTORE POP DUP8 PUSH20 0xFFFFFFFFFFFFFFFFFFFFFFFFFFFFFFFFFFFFFFFF AND DUP10 PUSH20 0xFFFFFFFFFFFFFFFFFFFFFFFFFFFFFFFFFFFFFFFF AND DUP6 PUSH20 0xFFFFFFFFFFFFFFFFFFFFFFFFFFFFFFFFFFFFFFFF AND PUSH32 0xC3D58168C5AE7397731D063D5BBF3D657854427343F4C083240F7AACAA2D0F62 DUP11 DUP11 PUSH1 0x40 MLOAD PUSH2 0x32A5 SWAP3 SWAP2 SWAP1 PUSH2 0x6898 JUMP JUMPDEST PUSH1 0x40 MLOAD DUP1 SWAP2 SUB SWAP1 LOG4 PUSH2 0x32BB DUP5 DUP11 DUP11 DUP7 DUP7 DUP11 PUSH2 0x373C JUMP JUMPDEST PUSH2 0x32C9 DUP5 DUP11 DUP11 DUP11 DUP11 DUP11 PUSH2 0x3D83 JUMP JUMPDEST POP POP POP POP POP POP POP POP POP JUMP JUMPDEST PUSH1 0x1 PUSH2 0x12F DUP2 SWAP1 SSTORE POP JUMP JUMPDEST DUP2 PUSH20 0xFFFFFFFFFFFFFFFFFFFFFFFFFFFFFFFFFFFFFFFF AND DUP4 PUSH20 0xFFFFFFFFFFFFFFFFFFFFFFFFFFFFFFFFFFFFFFFF AND SUB PUSH2 0x334D JUMPI PUSH1 0x40 MLOAD PUSH32 0x8C379A000000000000000000000000000000000000000000000000000000000 DUP2 MSTORE PUSH1 0x4 ADD PUSH2 0x3344 SWAP1 PUSH2 0x6933 JUMP JUMPDEST PUSH1 0x40 MLOAD DUP1 SWAP2 SUB SWAP1 REVERT JUMPDEST DUP1 PUSH1 0x66 PUSH1 0x0 DUP6 PUSH20 0xFFFFFFFFFFFFFFFFFFFFFFFFFFFFFFFFFFFFFFFF AND PUSH20 0xFFFFFFFFFFFFFFFFFFFFFFFFFFFFFFFFFFFFFFFF AND DUP2 MSTORE PUSH1 0x20 ADD SWAP1 DUP2 MSTORE PUSH1 0x20 ADD PUSH1 0x0 KECCAK256 PUSH1 0x0 DUP5 PUSH20 0xFFFFFFFFFFFFFFFFFFFFFFFFFFFFFFFFFFFFFFFF AND PUSH20 0xFFFFFFFFFFFFFFFFFFFFFFFFFFFFFFFFFFFFFFFF AND DUP2 MSTORE PUSH1 0x20 ADD SWAP1 DUP2 MSTORE PUSH1 0x20 ADD PUSH1 0x0 KECCAK256 PUSH1 0x0 PUSH2 0x100 EXP DUP2 SLOAD DUP2 PUSH1 0xFF MUL NOT AND SWAP1 DUP4 ISZERO ISZERO MUL OR SWAP1 SSTORE POP DUP2 PUSH20 0xFFFFFFFFFFFFFFFFFFFFFFFFFFFFFFFFFFFFFFFF AND DUP4 PUSH20 0xFFFFFFFFFFFFFFFFFFFFFFFFFFFFFFFFFFFFFFFF AND PUSH32 0x17307EAB39AB6107E8899845AD3D59BD9653F200F220920489CA2B5937696C31 DUP4 PUSH1 0x40 MLOAD PUSH2 0x343E SWAP2 SWAP1 PUSH2 0x423C JUMP JUMPDEST PUSH1 0x40 MLOAD DUP1 SWAP2 SUB SWAP1 LOG3 POP POP POP JUMP JUMPDEST PUSH1 0x0 PUSH20 0xFFFFFFFFFFFFFFFFFFFFFFFFFFFFFFFFFFFFFFFF AND DUP4 PUSH20 0xFFFFFFFFFFFFFFFFFFFFFFFFFFFFFFFFFFFFFFFF AND SUB PUSH2 0x34BA JUMPI PUSH1 0x40 MLOAD PUSH32 0x8C379A000000000000000000000000000000000000000000000000000000000 DUP2 MSTORE PUSH1 0x4 ADD PUSH2 0x34B1 SWAP1 PUSH2 0x69C5 JUMP JUMPDEST PUSH1 0x40 MLOAD DUP1 SWAP2 SUB SWAP1 REVERT JUMPDEST PUSH1 0x0 PUSH2 0x34C4 PUSH2 0x279B JUMP JUMPDEST SWAP1 POP PUSH1 0x0 PUSH2 0x34D1 DUP5 PUSH2 0x3D09 JUMP JUMPDEST SWAP1 POP PUSH1 0x0 PUSH2 0x34DE DUP5 PUSH2 0x3D09 JUMP JUMPDEST SWAP1 POP PUSH2 0x34FE DUP4 DUP8 PUSH1 0x0 DUP6 DUP6 PUSH1 0x40 MLOAD DUP1 PUSH1 0x20 ADD PUSH1 0x40 MSTORE DUP1 PUSH1 0x0 DUP2 MSTORE POP PUSH2 0x3734 JUMP JUMPDEST PUSH1 0x0 PUSH1 0x65 PUSH1 0x0 DUP8 DUP2 MSTORE PUSH1 0x20 ADD SWAP1 DUP2 MSTORE PUSH1 0x20 ADD PUSH1 0x0 KECCAK256 PUSH1 0x0 DUP9 PUSH20 0xFFFFFFFFFFFFFFFFFFFFFFFFFFFFFFFFFFFFFFFF AND PUSH20 0xFFFFFFFFFFFFFFFFFFFFFFFFFFFFFFFFFFFFFFFF AND DUP2 MSTORE PUSH1 0x20 ADD SWAP1 DUP2 MSTORE PUSH1 0x20 ADD PUSH1 0x0 KECCAK256 SLOAD SWAP1 POP DUP5 DUP2 LT ISZERO PUSH2 0x3596 JUMPI PUSH1 0x40 MLOAD PUSH32 0x8C379A000000000000000000000000000000000000000000000000000000000 DUP2 MSTORE PUSH1 0x4 ADD PUSH2 0x358D SWAP1 PUSH2 0x6A57 JUMP JUMPDEST PUSH1 0x40 MLOAD DUP1 SWAP2 SUB SWAP1 REVERT JUMPDEST DUP5 DUP2 SUB PUSH1 0x65 PUSH1 0x0 DUP9 DUP2 MSTORE PUSH1 0x20 ADD SWAP1 DUP2 MSTORE PUSH1 0x20 ADD PUSH1 0x0 KECCAK256 PUSH1 0x0 DUP10 PUSH20 0xFFFFFFFFFFFFFFFFFFFFFFFFFFFFFFFFFFFFFFFF AND PUSH20 0xFFFFFFFFFFFFFFFFFFFFFFFFFFFFFFFFFFFFFFFF AND DUP2 MSTORE PUSH1 0x20 ADD SWAP1 DUP2 MSTORE PUSH1 0x20 ADD PUSH1 0x0 KECCAK256 DUP2 SWAP1 SSTORE POP PUSH1 0x0 PUSH20 0xFFFFFFFFFFFFFFFFFFFFFFFFFFFFFFFFFFFFFFFF AND DUP8 PUSH20 0xFFFFFFFFFFFFFFFFFFFFFFFFFFFFFFFFFFFFFFFF AND DUP6 PUSH20 0xFFFFFFFFFFFFFFFFFFFFFFFFFFFFFFFFFFFFFFFF AND PUSH32 0xC3D58168C5AE7397731D063D5BBF3D657854427343F4C083240F7AACAA2D0F62 DUP10 DUP10 PUSH1 0x40 MLOAD PUSH2 0x3664 SWAP3 SWAP2 SWAP1 PUSH2 0x6898 JUMP JUMPDEST PUSH1 0x40 MLOAD DUP1 SWAP2 SUB SWAP1 LOG4 PUSH2 0x368A DUP5 DUP9 PUSH1 0x0 DUP7 DUP7 PUSH1 0x40 MLOAD DUP1 PUSH1 0x20 ADD PUSH1 0x40 MSTORE DUP1 PUSH1 0x0 DUP2 MSTORE POP PUSH2 0x373C JUMP JUMPDEST POP POP POP POP POP POP POP JUMP JUMPDEST PUSH2 0x369B PUSH2 0x279B JUMP JUMPDEST PUSH20 0xFFFFFFFFFFFFFFFFFFFFFFFFFFFFFFFFFFFFFFFF AND DUP6 PUSH20 0xFFFFFFFFFFFFFFFFFFFFFFFFFFFFFFFFFFFFFFFF AND EQ DUP1 PUSH2 0x36E1 JUMPI POP PUSH2 0x36E0 DUP6 PUSH2 0x36DB PUSH2 0x279B JUMP JUMPDEST PUSH2 0x220F JUMP JUMPDEST JUMPDEST PUSH2 0x3720 JUMPI PUSH1 0x40 MLOAD PUSH32 0x8C379A000000000000000000000000000000000000000000000000000000000 DUP2 MSTORE PUSH1 0x4 ADD PUSH2 0x3717 SWAP1 PUSH2 0x5344 JUMP JUMPDEST PUSH1 0x40 MLOAD DUP1 SWAP2 SUB SWAP1 REVERT JUMPDEST PUSH2 0x372D DUP6 DUP6 DUP6 DUP6 DUP6 PUSH2 0x3036 JUMP JUMPDEST POP POP POP POP POP JUMP JUMPDEST POP POP POP POP POP POP JUMP JUMPDEST POP POP POP POP POP POP JUMP JUMPDEST PUSH2 0x3763 DUP5 PUSH20 0xFFFFFFFFFFFFFFFFFFFFFFFFFFFFFFFFFFFFFFFF AND PUSH2 0x2C70 JUMP JUMPDEST ISZERO PUSH2 0x3913 JUMPI DUP4 PUSH20 0xFFFFFFFFFFFFFFFFFFFFFFFFFFFFFFFFFFFFFFFF AND PUSH4 0xBC197C81 DUP8 DUP8 DUP7 DUP7 DUP7 PUSH1 0x40 MLOAD DUP7 PUSH4 0xFFFFFFFF AND PUSH1 0xE0 SHL DUP2 MSTORE PUSH1 0x4 ADD PUSH2 0x37A9 SWAP6 SWAP5 SWAP4 SWAP3 SWAP2 SWAP1 PUSH2 0x6ACC JUMP JUMPDEST PUSH1 0x20 PUSH1 0x40 MLOAD DUP1 DUP4 SUB DUP2 PUSH1 0x0 DUP8 GAS CALL SWAP3 POP POP POP DUP1 ISZERO PUSH2 0x37E5 JUMPI POP PUSH1 0x40 MLOAD RETURNDATASIZE PUSH1 0x1F NOT PUSH1 0x1F DUP3 ADD AND DUP3 ADD DUP1 PUSH1 0x40 MSTORE POP DUP2 ADD SWAP1 PUSH2 0x37E2 SWAP2 SWAP1 PUSH2 0x6B49 JUMP JUMPDEST PUSH1 0x1 JUMPDEST PUSH2 0x388A JUMPI PUSH2 0x37F1 PUSH2 0x6B83 JUMP JUMPDEST DUP1 PUSH4 0x8C379A0 SUB PUSH2 0x384D JUMPI POP PUSH2 0x3805 PUSH2 0x6BA5 JUMP JUMPDEST DUP1 PUSH2 0x3810 JUMPI POP PUSH2 0x384F JUMP JUMPDEST DUP1 PUSH1 0x40 MLOAD PUSH32 0x8C379A000000000000000000000000000000000000000000000000000000000 DUP2 MSTORE PUSH1 0x4 ADD PUSH2 0x3844 SWAP2 SWAP1 PUSH2 0x4314 JUMP JUMPDEST PUSH1 0x40 MLOAD DUP1 SWAP2 SUB SWAP1 REVERT JUMPDEST POP JUMPDEST PUSH1 0x40 MLOAD PUSH32 0x8C379A000000000000000000000000000000000000000000000000000000000 DUP2 MSTORE PUSH1 0x4 ADD PUSH2 0x3881 SWAP1 PUSH2 0x6CA7 JUMP JUMPDEST PUSH1 0x40 MLOAD DUP1 SWAP2 SUB SWAP1 REVERT JUMPDEST PUSH4 0xBC197C81 PUSH1 0xE0 SHL PUSH28 0xFFFFFFFFFFFFFFFFFFFFFFFFFFFFFFFFFFFFFFFFFFFFFFFFFFFFFFFF NOT AND DUP2 PUSH28 0xFFFFFFFFFFFFFFFFFFFFFFFFFFFFFFFFFFFFFFFFFFFFFFFFFFFFFFFF NOT AND EQ PUSH2 0x3911 JUMPI PUSH1 0x40 MLOAD PUSH32 0x8C379A000000000000000000000000000000000000000000000000000000000 DUP2 MSTORE PUSH1 0x4 ADD PUSH2 0x3908 SWAP1 PUSH2 0x6D39 JUMP JUMPDEST PUSH1 0x40 MLOAD DUP1 SWAP2 SUB SWAP1 REVERT JUMPDEST POP JUMPDEST POP POP POP POP POP POP JUMP JUMPDEST PUSH1 0x0 PUSH2 0x3956 PUSH32 0x8B73C3C69BB8FE3D512ECC4CF759CC79239F7B179B0FFACAA9A75D522B39400F PUSH2 0x3949 PUSH2 0x3F5A JUMP JUMPDEST PUSH2 0x3951 PUSH2 0x3F64 JUMP JUMPDEST PUSH2 0x3F6E JUMP JUMPDEST SWAP1 POP SWAP1 JUMP JUMPDEST PUSH1 0x0 DUP3 DUP3 PUSH1 0x40 MLOAD PUSH1 0x20 ADD PUSH2 0x3970 SWAP3 SWAP2 SWAP1 PUSH2 0x6DC6 JUMP JUMPDEST PUSH1 0x40 MLOAD PUSH1 0x20 DUP2 DUP4 SUB SUB DUP2 MSTORE SWAP1 PUSH1 0x40 MSTORE DUP1 MLOAD SWAP1 PUSH1 0x20 ADD KECCAK256 SWAP1 POP SWAP3 SWAP2 POP POP JUMP JUMPDEST PUSH1 0x0 DUP1 PUSH1 0x41 DUP4 MLOAD SUB PUSH2 0x39CF JUMPI PUSH1 0x0 DUP1 PUSH1 0x0 PUSH1 0x20 DUP7 ADD MLOAD SWAP3 POP PUSH1 0x40 DUP7 ADD MLOAD SWAP2 POP PUSH1 0x60 DUP7 ADD MLOAD PUSH1 0x0 BYTE SWAP1 POP PUSH2 0x39C3 DUP8 DUP3 DUP6 DUP6 PUSH2 0x3FA8 JUMP JUMPDEST SWAP5 POP SWAP5 POP POP POP POP PUSH2 0x39D8 JUMP JUMPDEST PUSH1 0x0 PUSH1 0x2 SWAP2 POP SWAP2 POP JUMPDEST SWAP3 POP SWAP3 SWAP1 POP JUMP JUMPDEST PUSH1 0x0 PUSH1 0x4 DUP2 GT ISZERO PUSH2 0x39F3 JUMPI PUSH2 0x39F2 PUSH2 0x6DFD JUMP JUMPDEST JUMPDEST DUP2 PUSH1 0x4 DUP2 GT ISZERO PUSH2 0x3A06 JUMPI PUSH2 0x3A05 PUSH2 0x6DFD JUMP JUMPDEST JUMPDEST SUB ISZERO PUSH2 0x3B42 JUMPI PUSH1 0x1 PUSH1 0x4 DUP2 GT ISZERO PUSH2 0x3A20 JUMPI PUSH2 0x3A1F PUSH2 0x6DFD JUMP JUMPDEST JUMPDEST DUP2 PUSH1 0x4 DUP2 GT ISZERO PUSH2 0x3A33 JUMPI PUSH2 0x3A32 PUSH2 0x6DFD JUMP JUMPDEST JUMPDEST SUB PUSH2 0x3A73 JUMPI PUSH1 0x40 MLOAD PUSH32 0x8C379A000000000000000000000000000000000000000000000000000000000 DUP2 MSTORE PUSH1 0x4 ADD PUSH2 0x3A6A SWAP1 PUSH2 0x6E78 JUMP JUMPDEST PUSH1 0x40 MLOAD DUP1 SWAP2 SUB SWAP1 REVERT JUMPDEST PUSH1 0x2 PUSH1 0x4 DUP2 GT ISZERO PUSH2 0x3A87 JUMPI PUSH2 0x3A86 PUSH2 0x6DFD JUMP JUMPDEST JUMPDEST DUP2 PUSH1 0x4 DUP2 GT ISZERO PUSH2 0x3A9A JUMPI PUSH2 0x3A99 PUSH2 0x6DFD JUMP JUMPDEST JUMPDEST SUB PUSH2 0x3ADA JUMPI PUSH1 0x40 MLOAD PUSH32 0x8C379A000000000000000000000000000000000000000000000000000000000 DUP2 MSTORE PUSH1 0x4 ADD PUSH2 0x3AD1 SWAP1 PUSH2 0x6EE4 JUMP JUMPDEST PUSH1 0x40 MLOAD DUP1 SWAP2 SUB SWAP1 REVERT JUMPDEST PUSH1 0x3 PUSH1 0x4 DUP2 GT ISZERO PUSH2 0x3AEE JUMPI PUSH2 0x3AED PUSH2 0x6DFD JUMP JUMPDEST JUMPDEST DUP2 PUSH1 0x4 DUP2 GT ISZERO PUSH2 0x3B01 JUMPI PUSH2 0x3B00 PUSH2 0x6DFD JUMP JUMPDEST JUMPDEST SUB PUSH2 0x3B41 JUMPI PUSH1 0x40 MLOAD PUSH32 0x8C379A000000000000000000000000000000000000000000000000000000000 DUP2 MSTORE PUSH1 0x4 ADD PUSH2 0x3B38 SWAP1 PUSH2 0x6F76 JUMP JUMPDEST PUSH1 0x40 MLOAD DUP1 SWAP2 SUB SWAP1 REVERT JUMPDEST JUMPDEST POP JUMP JUMPDEST PUSH1 0x0 PUSH20 0xFFFFFFFFFFFFFFFFFFFFFFFFFFFFFFFFFFFFFFFF AND DUP5 PUSH20 0xFFFFFFFFFFFFFFFFFFFFFFFFFFFFFFFFFFFFFFFF AND SUB PUSH2 0x3BB4 JUMPI PUSH1 0x40 MLOAD PUSH32 0x8C379A000000000000000000000000000000000000000000000000000000000 DUP2 MSTORE PUSH1 0x4 ADD PUSH2 0x3BAB SWAP1 PUSH2 0x6256 JUMP JUMPDEST PUSH1 0x40 MLOAD DUP1 SWAP2 SUB SWAP1 REVERT JUMPDEST PUSH1 0x0 PUSH2 0x3BBE PUSH2 0x279B JUMP JUMPDEST SWAP1 POP PUSH1 0x0 PUSH2 0x3BCB DUP6 PUSH2 0x3D09 JUMP JUMPDEST SWAP1 POP PUSH1 0x0 PUSH2 0x3BD8 DUP6 PUSH2 0x3D09 JUMP JUMPDEST SWAP1 POP PUSH2 0x3BE9 DUP4 PUSH1 0x0 DUP10 DUP6 DUP6 DUP10 PUSH2 0x3734 JUMP JUMPDEST DUP5 PUSH1 0x65 PUSH1 0x0 DUP9 DUP2 MSTORE PUSH1 0x20 ADD SWAP1 DUP2 MSTORE PUSH1 0x20 ADD PUSH1 0x0 KECCAK256 PUSH1 0x0 DUP10 PUSH20 0xFFFFFFFFFFFFFFFFFFFFFFFFFFFFFFFFFFFFFFFF AND PUSH20 0xFFFFFFFFFFFFFFFFFFFFFFFFFFFFFFFFFFFFFFFF AND DUP2 MSTORE PUSH1 0x20 ADD SWAP1 DUP2 MSTORE PUSH1 0x20 ADD PUSH1 0x0 KECCAK256 PUSH1 0x0 DUP3 DUP3 SLOAD PUSH2 0x3C49 SWAP2 SWAP1 PUSH2 0x58E6 JUMP JUMPDEST SWAP3 POP POP DUP2 SWAP1 SSTORE POP DUP7 PUSH20 0xFFFFFFFFFFFFFFFFFFFFFFFFFFFFFFFFFFFFFFFF AND PUSH1 0x0 PUSH20 0xFFFFFFFFFFFFFFFFFFFFFFFFFFFFFFFFFFFFFFFF AND DUP5 PUSH20 0xFFFFFFFFFFFFFFFFFFFFFFFFFFFFFFFFFFFFFFFF AND PUSH32 0xC3D58168C5AE7397731D063D5BBF3D657854427343F4C083240F7AACAA2D0F62 DUP10 DUP10 PUSH1 0x40 MLOAD PUSH2 0x3CC7 SWAP3 SWAP2 SWAP1 PUSH2 0x6898 JUMP JUMPDEST PUSH1 0x40 MLOAD DUP1 SWAP2 SUB SWAP1 LOG4 PUSH2 0x3CDE DUP4 PUSH1 0x0 DUP10 DUP6 DUP6 DUP10 PUSH2 0x373C JUMP JUMPDEST PUSH2 0x3CED DUP4 PUSH1 0x0 DUP10 DUP10 DUP10 DUP10 PUSH2 0x3D83 JUMP JUMPDEST POP POP POP POP POP POP POP JUMP JUMPDEST DUP1 PUSH1 0x67 SWAP1 DUP2 PUSH2 0x3D05 SWAP2 SWAP1 PUSH2 0x65F0 JUMP JUMPDEST POP POP JUMP JUMPDEST PUSH1 0x60 PUSH1 0x0 PUSH1 0x1 PUSH8 0xFFFFFFFFFFFFFFFF DUP2 GT ISZERO PUSH2 0x3D28 JUMPI PUSH2 0x3D27 PUSH2 0x433B JUMP JUMPDEST JUMPDEST PUSH1 0x40 MLOAD SWAP1 DUP1 DUP3 MSTORE DUP1 PUSH1 0x20 MUL PUSH1 0x20 ADD DUP3 ADD PUSH1 0x40 MSTORE DUP1 ISZERO PUSH2 0x3D56 JUMPI DUP2 PUSH1 0x20 ADD PUSH1 0x20 DUP3 MUL DUP1 CALLDATASIZE DUP4 CALLDATACOPY DUP1 DUP3 ADD SWAP2 POP POP SWAP1 POP JUMPDEST POP SWAP1 POP DUP3 DUP2 PUSH1 0x0 DUP2 MLOAD DUP2 LT PUSH2 0x3D6E JUMPI PUSH2 0x3D6D PUSH2 0x54C3 JUMP JUMPDEST JUMPDEST PUSH1 0x20 MUL PUSH1 0x20 ADD ADD DUP2 DUP2 MSTORE POP POP DUP1 SWAP2 POP POP SWAP2 SWAP1 POP JUMP JUMPDEST PUSH2 0x3DA2 DUP5 PUSH20 0xFFFFFFFFFFFFFFFFFFFFFFFFFFFFFFFFFFFFFFFF AND PUSH2 0x2C70 JUMP JUMPDEST ISZERO PUSH2 0x3F52 JUMPI DUP4 PUSH20 0xFFFFFFFFFFFFFFFFFFFFFFFFFFFFFFFFFFFFFFFF AND PUSH4 0xF23A6E61 DUP8 DUP8 DUP7 DUP7 DUP7 PUSH1 0x40 MLOAD DUP7 PUSH4 0xFFFFFFFF AND PUSH1 0xE0 SHL DUP2 MSTORE PUSH1 0x4 ADD PUSH2 0x3DE8 SWAP6 SWAP5 SWAP4 SWAP3 SWAP2 SWAP1 PUSH2 0x6F96 JUMP JUMPDEST PUSH1 0x20 PUSH1 0x40 MLOAD DUP1 DUP4 SUB DUP2 PUSH1 0x0 DUP8 GAS CALL SWAP3 POP POP POP DUP1 ISZERO PUSH2 0x3E24 JUMPI POP PUSH1 0x40 MLOAD RETURNDATASIZE PUSH1 0x1F NOT PUSH1 0x1F DUP3 ADD AND DUP3 ADD DUP1 PUSH1 0x40 MSTORE POP DUP2 ADD SWAP1 PUSH2 0x3E21 SWAP2 SWAP1 PUSH2 0x6B49 JUMP JUMPDEST PUSH1 0x1 JUMPDEST PUSH2 0x3EC9 JUMPI PUSH2 0x3E30 PUSH2 0x6B83 JUMP JUMPDEST DUP1 PUSH4 0x8C379A0 SUB PUSH2 0x3E8C JUMPI POP PUSH2 0x3E44 PUSH2 0x6BA5 JUMP JUMPDEST DUP1 PUSH2 0x3E4F JUMPI POP PUSH2 0x3E8E JUMP JUMPDEST DUP1 PUSH1 0x40 MLOAD PUSH32 0x8C379A000000000000000000000000000000000000000000000000000000000 DUP2 MSTORE PUSH1 0x4 ADD PUSH2 0x3E83 SWAP2 SWAP1 PUSH2 0x4314 JUMP JUMPDEST PUSH1 0x40 MLOAD DUP1 SWAP2 SUB SWAP1 REVERT JUMPDEST POP JUMPDEST PUSH1 0x40 MLOAD PUSH32 0x8C379A000000000000000000000000000000000000000000000000000000000 DUP2 MSTORE PUSH1 0x4 ADD PUSH2 0x3EC0 SWAP1 PUSH2 0x6CA7 JUMP JUMPDEST PUSH1 0x40 MLOAD DUP1 SWAP2 SUB SWAP1 REVERT JUMPDEST PUSH4 0xF23A6E61 PUSH1 0xE0 SHL PUSH28 0xFFFFFFFFFFFFFFFFFFFFFFFFFFFFFFFFFFFFFFFFFFFFFFFFFFFFFFFF NOT AND DUP2 PUSH28 0xFFFFFFFFFFFFFFFFFFFFFFFFFFFFFFFFFFFFFFFFFFFFFFFFFFFFFFFF NOT AND EQ PUSH2 0x3F50 JUMPI PUSH1 0x40 MLOAD PUSH32 0x8C379A000000000000000000000000000000000000000000000000000000000 DUP2 MSTORE PUSH1 0x4 ADD PUSH2 0x3F47 SWAP1 PUSH2 0x6D39 JUMP JUMPDEST PUSH1 0x40 MLOAD DUP1 SWAP2 SUB SWAP1 REVERT JUMPDEST POP JUMPDEST POP POP POP POP POP POP JUMP JUMPDEST PUSH1 0x0 PUSH1 0xFB SLOAD SWAP1 POP SWAP1 JUMP JUMPDEST PUSH1 0x0 PUSH1 0xFC SLOAD SWAP1 POP SWAP1 JUMP JUMPDEST PUSH1 0x0 DUP4 DUP4 DUP4 CHAINID ADDRESS PUSH1 0x40 MLOAD PUSH1 0x20 ADD PUSH2 0x3F89 SWAP6 SWAP5 SWAP4 SWAP3 SWAP2 SWAP1 PUSH2 0x6FF0 JUMP JUMPDEST PUSH1 0x40 MLOAD PUSH1 0x20 DUP2 DUP4 SUB SUB DUP2 MSTORE SWAP1 PUSH1 0x40 MSTORE DUP1 MLOAD SWAP1 PUSH1 0x20 ADD KECCAK256 SWAP1 POP SWAP4 SWAP3 POP POP POP JUMP JUMPDEST PUSH1 0x0 DUP1 PUSH32 0x7FFFFFFFFFFFFFFFFFFFFFFFFFFFFFFF5D576E7357A4501DDFE92F46681B20A0 DUP4 PUSH1 0x0 SHR GT ISZERO PUSH2 0x3FE3 JUMPI PUSH1 0x0 PUSH1 0x3 SWAP2 POP SWAP2 POP PUSH2 0x4081 JUMP JUMPDEST PUSH1 0x0 PUSH1 0x1 DUP8 DUP8 DUP8 DUP8 PUSH1 0x40 MLOAD PUSH1 0x0 DUP2 MSTORE PUSH1 0x20 ADD PUSH1 0x40 MSTORE PUSH1 0x40 MLOAD PUSH2 0x4008 SWAP5 SWAP4 SWAP3 SWAP2 SWAP1 PUSH2 0x7052 JUMP JUMPDEST PUSH1 0x20 PUSH1 0x40 MLOAD PUSH1 0x20 DUP2 SUB SWAP1 DUP1 DUP5 SUB SWAP1 DUP6 GAS STATICCALL ISZERO DUP1 ISZERO PUSH2 0x402A JUMPI RETURNDATASIZE PUSH1 0x0 DUP1 RETURNDATACOPY RETURNDATASIZE PUSH1 0x0 REVERT JUMPDEST POP POP POP PUSH1 0x20 PUSH1 0x40 MLOAD SUB MLOAD SWAP1 POP PUSH1 0x0 PUSH20 0xFFFFFFFFFFFFFFFFFFFFFFFFFFFFFFFFFFFFFFFF AND DUP2 PUSH20 0xFFFFFFFFFFFFFFFFFFFFFFFFFFFFFFFFFFFFFFFF AND SUB PUSH2 0x4078 JUMPI PUSH1 0x0 PUSH1 0x1 SWAP3 POP SWAP3 POP POP PUSH2 0x4081 JUMP JUMPDEST DUP1 PUSH1 0x0 SWAP3 POP SWAP3 POP POP JUMPDEST SWAP5 POP SWAP5 SWAP3 POP POP POP JUMP JUMPDEST PUSH1 0x0 PUSH1 0x40 MLOAD SWAP1 POP SWAP1 JUMP JUMPDEST PUSH1 0x0 DUP1 REVERT JUMPDEST PUSH1 0x0 DUP1 REVERT JUMPDEST PUSH1 0x0 PUSH20 0xFFFFFFFFFFFFFFFFFFFFFFFFFFFFFFFFFFFFFFFF DUP3 AND SWAP1 POP SWAP2 SWAP1 POP JUMP JUMPDEST PUSH1 0x0 PUSH2 0x40C9 DUP3 PUSH2 0x409E JUMP JUMPDEST SWAP1 POP SWAP2 SWAP1 POP JUMP JUMPDEST PUSH2 0x40D9 DUP2 PUSH2 0x40BE JUMP JUMPDEST DUP2 EQ PUSH2 0x40E4 JUMPI PUSH1 0x0 DUP1 REVERT JUMPDEST POP JUMP JUMPDEST PUSH1 0x0 DUP2 CALLDATALOAD SWAP1 POP PUSH2 0x40F6 DUP2 PUSH2 0x40D0 JUMP JUMPDEST SWAP3 SWAP2 POP POP JUMP JUMPDEST PUSH1 0x0 DUP2 SWAP1 POP SWAP2 SWAP1 POP JUMP JUMPDEST PUSH2 0x410F DUP2 PUSH2 0x40FC JUMP JUMPDEST DUP2 EQ PUSH2 0x411A JUMPI PUSH1 0x0 DUP1 REVERT JUMPDEST POP JUMP JUMPDEST PUSH1 0x0 DUP2 CALLDATALOAD SWAP1 POP PUSH2 0x412C DUP2 PUSH2 0x4106 JUMP JUMPDEST SWAP3 SWAP2 POP POP JUMP JUMPDEST PUSH1 0x0 DUP1 PUSH1 0x40 DUP4 DUP6 SUB SLT ISZERO PUSH2 0x4149 JUMPI PUSH2 0x4148 PUSH2 0x4094 JUMP JUMPDEST JUMPDEST PUSH1 0x0 PUSH2 0x4157 DUP6 DUP3 DUP7 ADD PUSH2 0x40E7 JUMP JUMPDEST SWAP3 POP POP PUSH1 0x20 PUSH2 0x4168 DUP6 DUP3 DUP7 ADD PUSH2 0x411D JUMP JUMPDEST SWAP2 POP POP SWAP3 POP SWAP3 SWAP1 POP JUMP JUMPDEST PUSH2 0x417B DUP2 PUSH2 0x40FC JUMP JUMPDEST DUP3 MSTORE POP POP JUMP JUMPDEST PUSH1 0x0 PUSH1 0x20 DUP3 ADD SWAP1 POP PUSH2 0x4196 PUSH1 0x0 DUP4 ADD DUP5 PUSH2 0x4172 JUMP JUMPDEST SWAP3 SWAP2 POP POP JUMP JUMPDEST PUSH1 0x0 PUSH32 0xFFFFFFFF00000000000000000000000000000000000000000000000000000000 DUP3 AND SWAP1 POP SWAP2 SWAP1 POP JUMP JUMPDEST PUSH2 0x41D1 DUP2 PUSH2 0x419C JUMP JUMPDEST DUP2 EQ PUSH2 0x41DC JUMPI PUSH1 0x0 DUP1 REVERT JUMPDEST POP JUMP JUMPDEST PUSH1 0x0 DUP2 CALLDATALOAD SWAP1 POP PUSH2 0x41EE DUP2 PUSH2 0x41C8 JUMP JUMPDEST SWAP3 SWAP2 POP POP JUMP JUMPDEST PUSH1 0x0 PUSH1 0x20 DUP3 DUP5 SUB SLT ISZERO PUSH2 0x420A JUMPI PUSH2 0x4209 PUSH2 0x4094 JUMP JUMPDEST JUMPDEST PUSH1 0x0 PUSH2 0x4218 DUP5 DUP3 DUP6 ADD PUSH2 0x41DF JUMP JUMPDEST SWAP2 POP POP SWAP3 SWAP2 POP POP JUMP JUMPDEST PUSH1 0x0 DUP2 ISZERO ISZERO SWAP1 POP SWAP2 SWAP1 POP JUMP JUMPDEST PUSH2 0x4236 DUP2 PUSH2 0x4221 JUMP JUMPDEST DUP3 MSTORE POP POP JUMP JUMPDEST PUSH1 0x0 PUSH1 0x20 DUP3 ADD SWAP1 POP PUSH2 0x4251 PUSH1 0x0 DUP4 ADD DUP5 PUSH2 0x422D JUMP JUMPDEST SWAP3 SWAP2 POP POP JUMP JUMPDEST PUSH1 0x0 PUSH1 0x20 DUP3 DUP5 SUB SLT ISZERO PUSH2 0x426D JUMPI PUSH2 0x426C PUSH2 0x4094 JUMP JUMPDEST JUMPDEST PUSH1 0x0 PUSH2 0x427B DUP5 DUP3 DUP6 ADD PUSH2 0x411D JUMP JUMPDEST SWAP2 POP POP SWAP3 SWAP2 POP POP JUMP JUMPDEST PUSH1 0x0 DUP2 MLOAD SWAP1 POP SWAP2 SWAP1 POP JUMP JUMPDEST PUSH1 0x0 DUP3 DUP3 MSTORE PUSH1 0x20 DUP3 ADD SWAP1 POP SWAP3 SWAP2 POP POP JUMP JUMPDEST PUSH1 0x0 JUMPDEST DUP4 DUP2 LT ISZERO PUSH2 0x42BE JUMPI DUP1 DUP3 ADD MLOAD DUP2 DUP5 ADD MSTORE PUSH1 0x20 DUP2 ADD SWAP1 POP PUSH2 0x42A3 JUMP JUMPDEST PUSH1 0x0 DUP5 DUP5 ADD MSTORE POP POP POP POP JUMP JUMPDEST PUSH1 0x0 PUSH1 0x1F NOT PUSH1 0x1F DUP4 ADD AND SWAP1 POP SWAP2 SWAP1 POP JUMP JUMPDEST PUSH1 0x0 PUSH2 0x42E6 DUP3 PUSH2 0x4284 JUMP JUMPDEST PUSH2 0x42F0 DUP2 DUP6 PUSH2 0x428F JUMP JUMPDEST SWAP4 POP PUSH2 0x4300 DUP2 DUP6 PUSH1 0x20 DUP7 ADD PUSH2 0x42A0 JUMP JUMPDEST PUSH2 0x4309 DUP2 PUSH2 0x42CA JUMP JUMPDEST DUP5 ADD SWAP2 POP POP SWAP3 SWAP2 POP POP JUMP JUMPDEST PUSH1 0x0 PUSH1 0x20 DUP3 ADD SWAP1 POP DUP2 DUP2 SUB PUSH1 0x0 DUP4 ADD MSTORE PUSH2 0x432E DUP2 DUP5 PUSH2 0x42DB JUMP JUMPDEST SWAP1 POP SWAP3 SWAP2 POP POP JUMP JUMPDEST PUSH1 0x0 DUP1 REVERT JUMPDEST PUSH32 0x4E487B7100000000000000000000000000000000000000000000000000000000 PUSH1 0x0 MSTORE PUSH1 0x41 PUSH1 0x4 MSTORE PUSH1 0x24 PUSH1 0x0 REVERT JUMPDEST PUSH2 0x4373 DUP3 PUSH2 0x42CA JUMP JUMPDEST DUP2 ADD DUP2 DUP2 LT PUSH8 0xFFFFFFFFFFFFFFFF DUP3 GT OR ISZERO PUSH2 0x4392 JUMPI PUSH2 0x4391 PUSH2 0x433B JUMP JUMPDEST JUMPDEST DUP1 PUSH1 0x40 MSTORE POP POP POP JUMP JUMPDEST PUSH1 0x0 PUSH2 0x43A5 PUSH2 0x408A JUMP JUMPDEST SWAP1 POP PUSH2 0x43B1 DUP3 DUP3 PUSH2 0x436A JUMP JUMPDEST SWAP2 SWAP1 POP JUMP JUMPDEST PUSH1 0x0 PUSH8 0xFFFFFFFFFFFFFFFF DUP3 GT ISZERO PUSH2 0x43D1 JUMPI PUSH2 0x43D0 PUSH2 0x433B JUMP JUMPDEST JUMPDEST PUSH1 0x20 DUP3 MUL SWAP1 POP PUSH1 0x20 DUP2 ADD SWAP1 POP SWAP2 SWAP1 POP JUMP JUMPDEST PUSH1 0x0 DUP1 REVERT JUMPDEST PUSH1 0x0 PUSH2 0x43FA PUSH2 0x43F5 DUP5 PUSH2 0x43B6 JUMP JUMPDEST PUSH2 0x439B JUMP JUMPDEST SWAP1 POP DUP1 DUP4 DUP3 MSTORE PUSH1 0x20 DUP3 ADD SWAP1 POP PUSH1 0x20 DUP5 MUL DUP4 ADD DUP6 DUP2 GT ISZERO PUSH2 0x441D JUMPI PUSH2 0x441C PUSH2 0x43E2 JUMP JUMPDEST JUMPDEST DUP4 JUMPDEST DUP2 DUP2 LT ISZERO PUSH2 0x4446 JUMPI DUP1 PUSH2 0x4432 DUP9 DUP3 PUSH2 0x411D JUMP JUMPDEST DUP5 MSTORE PUSH1 0x20 DUP5 ADD SWAP4 POP POP PUSH1 0x20 DUP2 ADD SWAP1 POP PUSH2 0x441F JUMP JUMPDEST POP POP POP SWAP4 SWAP3 POP POP POP JUMP JUMPDEST PUSH1 0x0 DUP3 PUSH1 0x1F DUP4 ADD SLT PUSH2 0x4465 JUMPI PUSH2 0x4464 PUSH2 0x4336 JUMP JUMPDEST JUMPDEST DUP2 CALLDATALOAD PUSH2 0x4475 DUP5 DUP3 PUSH1 0x20 DUP7 ADD PUSH2 0x43E7 JUMP JUMPDEST SWAP2 POP POP SWAP3 SWAP2 POP POP JUMP JUMPDEST PUSH1 0x0 DUP1 REVERT JUMPDEST PUSH1 0x0 PUSH8 0xFFFFFFFFFFFFFFFF DUP3 GT ISZERO PUSH2 0x449E JUMPI PUSH2 0x449D PUSH2 0x433B JUMP JUMPDEST JUMPDEST PUSH2 0x44A7 DUP3 PUSH2 0x42CA JUMP JUMPDEST SWAP1 POP PUSH1 0x20 DUP2 ADD SWAP1 POP SWAP2 SWAP1 POP JUMP JUMPDEST DUP3 DUP2 DUP4 CALLDATACOPY PUSH1 0x0 DUP4 DUP4 ADD MSTORE POP POP POP JUMP JUMPDEST PUSH1 0x0 PUSH2 0x44D6 PUSH2 0x44D1 DUP5 PUSH2 0x4483 JUMP JUMPDEST PUSH2 0x439B JUMP JUMPDEST SWAP1 POP DUP3 DUP2 MSTORE PUSH1 0x20 DUP2 ADD DUP5 DUP5 DUP5 ADD GT ISZERO PUSH2 0x44F2 JUMPI PUSH2 0x44F1 PUSH2 0x447E JUMP JUMPDEST JUMPDEST PUSH2 0x44FD DUP5 DUP3 DUP6 PUSH2 0x44B4 JUMP JUMPDEST POP SWAP4 SWAP3 POP POP POP JUMP JUMPDEST PUSH1 0x0 DUP3 PUSH1 0x1F DUP4 ADD SLT PUSH2 0x451A JUMPI PUSH2 0x4519 PUSH2 0x4336 JUMP JUMPDEST JUMPDEST DUP2 CALLDATALOAD PUSH2 0x452A DUP5 DUP3 PUSH1 0x20 DUP7 ADD PUSH2 0x44C3 JUMP JUMPDEST SWAP2 POP POP SWAP3 SWAP2 POP POP JUMP JUMPDEST PUSH1 0x0 DUP1 PUSH1 0x0 DUP1 PUSH1 0x80 DUP6 DUP8 SUB SLT ISZERO PUSH2 0x454D JUMPI PUSH2 0x454C PUSH2 0x4094 JUMP JUMPDEST JUMPDEST PUSH1 0x0 PUSH2 0x455B DUP8 DUP3 DUP9 ADD PUSH2 0x40E7 JUMP JUMPDEST SWAP5 POP POP PUSH1 0x20 DUP6 ADD CALLDATALOAD PUSH8 0xFFFFFFFFFFFFFFFF DUP2 GT ISZERO PUSH2 0x457C JUMPI PUSH2 0x457B PUSH2 0x4099 JUMP JUMPDEST JUMPDEST PUSH2 0x4588 DUP8 DUP3 DUP9 ADD PUSH2 0x4450 JUMP JUMPDEST SWAP4 POP POP PUSH1 0x40 DUP6 ADD CALLDATALOAD PUSH8 0xFFFFFFFFFFFFFFFF DUP2 GT ISZERO PUSH2 0x45A9 JUMPI PUSH2 0x45A8 PUSH2 0x4099 JUMP JUMPDEST JUMPDEST PUSH2 0x45B5 DUP8 DUP3 DUP9 ADD PUSH2 0x4450 JUMP JUMPDEST SWAP3 POP POP PUSH1 0x60 DUP6 ADD CALLDATALOAD PUSH8 0xFFFFFFFFFFFFFFFF DUP2 GT ISZERO PUSH2 0x45D6 JUMPI PUSH2 0x45D5 PUSH2 0x4099 JUMP JUMPDEST JUMPDEST PUSH2 0x45E2 DUP8 DUP3 DUP9 ADD PUSH2 0x4505 JUMP JUMPDEST SWAP2 POP POP SWAP3 SWAP6 SWAP2 SWAP5 POP SWAP3 POP JUMP JUMPDEST PUSH1 0x0 DUP1 PUSH1 0x0 DUP1 PUSH1 0x0 PUSH1 0xA0 DUP7 DUP9 SUB SLT ISZERO PUSH2 0x460A JUMPI PUSH2 0x4609 PUSH2 0x4094 JUMP JUMPDEST JUMPDEST PUSH1 0x0 PUSH2 0x4618 DUP9 DUP3 DUP10 ADD PUSH2 0x40E7 JUMP JUMPDEST SWAP6 POP POP PUSH1 0x20 PUSH2 0x4629 DUP9 DUP3 DUP10 ADD PUSH2 0x40E7 JUMP JUMPDEST SWAP5 POP POP PUSH1 0x40 DUP7 ADD CALLDATALOAD PUSH8 0xFFFFFFFFFFFFFFFF DUP2 GT ISZERO PUSH2 0x464A JUMPI PUSH2 0x4649 PUSH2 0x4099 JUMP JUMPDEST JUMPDEST PUSH2 0x4656 DUP9 DUP3 DUP10 ADD PUSH2 0x4450 JUMP JUMPDEST SWAP4 POP POP PUSH1 0x60 DUP7 ADD CALLDATALOAD PUSH8 0xFFFFFFFFFFFFFFFF DUP2 GT ISZERO PUSH2 0x4677 JUMPI PUSH2 0x4676 PUSH2 0x4099 JUMP JUMPDEST JUMPDEST PUSH2 0x4683 DUP9 DUP3 DUP10 ADD PUSH2 0x4450 JUMP JUMPDEST SWAP3 POP POP PUSH1 0x80 DUP7 ADD CALLDATALOAD PUSH8 0xFFFFFFFFFFFFFFFF DUP2 GT ISZERO PUSH2 0x46A4 JUMPI PUSH2 0x46A3 PUSH2 0x4099 JUMP JUMPDEST JUMPDEST PUSH2 0x46B0 DUP9 DUP3 DUP10 ADD PUSH2 0x4505 JUMP JUMPDEST SWAP2 POP POP SWAP3 SWAP6 POP SWAP3 SWAP6 SWAP1 SWAP4 POP JUMP JUMPDEST PUSH1 0x0 DUP1 REVERT JUMPDEST PUSH1 0x0 DUP1 REVERT JUMPDEST PUSH1 0x0 PUSH1 0xC0 DUP3 DUP5 SUB SLT ISZERO PUSH2 0x46DD JUMPI PUSH2 0x46DC PUSH2 0x46BD JUMP JUMPDEST JUMPDEST PUSH2 0x46E7 PUSH1 0xC0 PUSH2 0x439B JUMP JUMPDEST SWAP1 POP PUSH1 0x0 PUSH2 0x46F7 DUP5 DUP3 DUP6 ADD PUSH2 0x411D JUMP JUMPDEST PUSH1 0x0 DUP4 ADD MSTORE POP PUSH1 0x20 PUSH2 0x470B DUP5 DUP3 DUP6 ADD PUSH2 0x411D JUMP JUMPDEST PUSH1 0x20 DUP4 ADD MSTORE POP PUSH1 0x40 PUSH2 0x471F DUP5 DUP3 DUP6 ADD PUSH2 0x411D JUMP JUMPDEST PUSH1 0x40 DUP4 ADD MSTORE POP PUSH1 0x60 PUSH2 0x4733 DUP5 DUP3 DUP6 ADD PUSH2 0x411D JUMP JUMPDEST PUSH1 0x60 DUP4 ADD MSTORE POP PUSH1 0x80 PUSH2 0x4747 DUP5 DUP3 DUP6 ADD PUSH2 0x40E7 JUMP JUMPDEST PUSH1 0x80 DUP4 ADD MSTORE POP PUSH1 0xA0 DUP3 ADD CALLDATALOAD PUSH8 0xFFFFFFFFFFFFFFFF DUP2 GT ISZERO PUSH2 0x476B JUMPI PUSH2 0x476A PUSH2 0x46C2 JUMP JUMPDEST JUMPDEST PUSH2 0x4777 DUP5 DUP3 DUP6 ADD PUSH2 0x4505 JUMP JUMPDEST PUSH1 0xA0 DUP4 ADD MSTORE POP SWAP3 SWAP2 POP POP JUMP JUMPDEST PUSH1 0x0 PUSH1 0x20 DUP3 DUP5 SUB SLT ISZERO PUSH2 0x4799 JUMPI PUSH2 0x4798 PUSH2 0x4094 JUMP JUMPDEST JUMPDEST PUSH1 0x0 DUP3 ADD CALLDATALOAD PUSH8 0xFFFFFFFFFFFFFFFF DUP2 GT ISZERO PUSH2 0x47B7 JUMPI PUSH2 0x47B6 PUSH2 0x4099 JUMP JUMPDEST JUMPDEST PUSH2 0x47C3 DUP5 DUP3 DUP6 ADD PUSH2 0x46C7 JUMP JUMPDEST SWAP2 POP POP SWAP3 SWAP2 POP POP JUMP JUMPDEST PUSH2 0x47D5 DUP2 PUSH2 0x40BE JUMP JUMPDEST DUP3 MSTORE POP POP JUMP JUMPDEST PUSH1 0x0 PUSH1 0x20 DUP3 ADD SWAP1 POP PUSH2 0x47F0 PUSH1 0x0 DUP4 ADD DUP5 PUSH2 0x47CC JUMP JUMPDEST SWAP3 SWAP2 POP POP JUMP JUMPDEST PUSH1 0x0 PUSH8 0xFFFFFFFFFFFFFFFF DUP3 GT ISZERO PUSH2 0x4811 JUMPI PUSH2 0x4810 PUSH2 0x433B JUMP JUMPDEST JUMPDEST PUSH2 0x481A DUP3 PUSH2 0x42CA JUMP JUMPDEST SWAP1 POP PUSH1 0x20 DUP2 ADD SWAP1 POP SWAP2 SWAP1 POP JUMP JUMPDEST PUSH1 0x0 PUSH2 0x483A PUSH2 0x4835 DUP5 PUSH2 0x47F6 JUMP JUMPDEST PUSH2 0x439B JUMP JUMPDEST SWAP1 POP DUP3 DUP2 MSTORE PUSH1 0x20 DUP2 ADD DUP5 DUP5 DUP5 ADD GT ISZERO PUSH2 0x4856 JUMPI PUSH2 0x4855 PUSH2 0x447E JUMP JUMPDEST JUMPDEST PUSH2 0x4861 DUP5 DUP3 DUP6 PUSH2 0x44B4 JUMP JUMPDEST POP SWAP4 SWAP3 POP POP POP JUMP JUMPDEST PUSH1 0x0 DUP3 PUSH1 0x1F DUP4 ADD SLT PUSH2 0x487E JUMPI PUSH2 0x487D PUSH2 0x4336 JUMP JUMPDEST JUMPDEST DUP2 CALLDATALOAD PUSH2 0x488E DUP5 DUP3 PUSH1 0x20 DUP7 ADD PUSH2 0x4827 JUMP JUMPDEST SWAP2 POP POP SWAP3 SWAP2 POP POP JUMP JUMPDEST PUSH1 0x0 PUSH1 0xA0 DUP3 DUP5 SUB SLT ISZERO PUSH2 0x48AD JUMPI PUSH2 0x48AC PUSH2 0x46BD JUMP JUMPDEST JUMPDEST PUSH2 0x48B7 PUSH1 0xA0 PUSH2 0x439B JUMP JUMPDEST SWAP1 POP PUSH1 0x0 PUSH2 0x48C7 DUP5 DUP3 DUP6 ADD PUSH2 0x411D JUMP JUMPDEST PUSH1 0x0 DUP4 ADD MSTORE POP PUSH1 0x20 PUSH2 0x48DB DUP5 DUP3 DUP6 ADD PUSH2 0x411D JUMP JUMPDEST PUSH1 0x20 DUP4 ADD MSTORE POP PUSH1 0x40 DUP3 ADD CALLDATALOAD PUSH8 0xFFFFFFFFFFFFFFFF DUP2 GT ISZERO PUSH2 0x48FF JUMPI PUSH2 0x48FE PUSH2 0x46C2 JUMP JUMPDEST JUMPDEST PUSH2 0x490B DUP5 DUP3 DUP6 ADD PUSH2 0x4869 JUMP JUMPDEST PUSH1 0x40 DUP4 ADD MSTORE POP PUSH1 0x60 PUSH2 0x491F DUP5 DUP3 DUP6 ADD PUSH2 0x40E7 JUMP JUMPDEST PUSH1 0x60 DUP4 ADD MSTORE POP PUSH1 0x80 DUP3 ADD CALLDATALOAD PUSH8 0xFFFFFFFFFFFFFFFF DUP2 GT ISZERO PUSH2 0x4943 JUMPI PUSH2 0x4942 PUSH2 0x46C2 JUMP JUMPDEST JUMPDEST PUSH2 0x494F DUP5 DUP3 DUP6 ADD PUSH2 0x4505 JUMP JUMPDEST PUSH1 0x80 DUP4 ADD MSTORE POP SWAP3 SWAP2 POP POP JUMP JUMPDEST PUSH1 0x0 PUSH1 0x20 DUP3 DUP5 SUB SLT ISZERO PUSH2 0x4971 JUMPI PUSH2 0x4970 PUSH2 0x4094 JUMP JUMPDEST JUMPDEST PUSH1 0x0 DUP3 ADD CALLDATALOAD PUSH8 0xFFFFFFFFFFFFFFFF DUP2 GT ISZERO PUSH2 0x498F JUMPI PUSH2 0x498E PUSH2 0x4099 JUMP JUMPDEST JUMPDEST PUSH2 0x499B DUP5 DUP3 DUP6 ADD PUSH2 0x4897 JUMP JUMPDEST SWAP2 POP POP SWAP3 SWAP2 POP POP JUMP JUMPDEST PUSH1 0x0 PUSH8 0xFFFFFFFFFFFFFFFF DUP3 GT ISZERO PUSH2 0x49BF JUMPI PUSH2 0x49BE PUSH2 0x433B JUMP JUMPDEST JUMPDEST PUSH1 0x20 DUP3 MUL SWAP1 POP PUSH1 0x20 DUP2 ADD SWAP1 POP SWAP2 SWAP1 POP JUMP JUMPDEST PUSH1 0x0 PUSH2 0x49E3 PUSH2 0x49DE DUP5 PUSH2 0x49A4 JUMP JUMPDEST PUSH2 0x439B JUMP JUMPDEST SWAP1 POP DUP1 DUP4 DUP3 MSTORE PUSH1 0x20 DUP3 ADD SWAP1 POP PUSH1 0x20 DUP5 MUL DUP4 ADD DUP6 DUP2 GT ISZERO PUSH2 0x4A06 JUMPI PUSH2 0x4A05 PUSH2 0x43E2 JUMP JUMPDEST JUMPDEST DUP4 JUMPDEST DUP2 DUP2 LT ISZERO PUSH2 0x4A2F JUMPI DUP1 PUSH2 0x4A1B DUP9 DUP3 PUSH2 0x40E7 JUMP JUMPDEST DUP5 MSTORE PUSH1 0x20 DUP5 ADD SWAP4 POP POP PUSH1 0x20 DUP2 ADD SWAP1 POP PUSH2 0x4A08 JUMP JUMPDEST POP POP POP SWAP4 SWAP3 POP POP POP JUMP JUMPDEST PUSH1 0x0 DUP3 PUSH1 0x1F DUP4 ADD SLT PUSH2 0x4A4E JUMPI PUSH2 0x4A4D PUSH2 0x4336 JUMP JUMPDEST JUMPDEST DUP2 CALLDATALOAD PUSH2 0x4A5E DUP5 DUP3 PUSH1 0x20 DUP7 ADD PUSH2 0x49D0 JUMP JUMPDEST SWAP2 POP POP SWAP3 SWAP2 POP POP JUMP JUMPDEST PUSH1 0x0 DUP1 PUSH1 0x40 DUP4 DUP6 SUB SLT ISZERO PUSH2 0x4A7E JUMPI PUSH2 0x4A7D PUSH2 0x4094 JUMP JUMPDEST JUMPDEST PUSH1 0x0 DUP4 ADD CALLDATALOAD PUSH8 0xFFFFFFFFFFFFFFFF DUP2 GT ISZERO PUSH2 0x4A9C JUMPI PUSH2 0x4A9B PUSH2 0x4099 JUMP JUMPDEST JUMPDEST PUSH2 0x4AA8 DUP6 DUP3 DUP7 ADD PUSH2 0x4A39 JUMP JUMPDEST SWAP3 POP POP PUSH1 0x20 DUP4 ADD CALLDATALOAD PUSH8 0xFFFFFFFFFFFFFFFF DUP2 GT ISZERO PUSH2 0x4AC9 JUMPI PUSH2 0x4AC8 PUSH2 0x4099 JUMP JUMPDEST JUMPDEST PUSH2 0x4AD5 DUP6 DUP3 DUP7 ADD PUSH2 0x4450 JUMP JUMPDEST SWAP2 POP POP SWAP3 POP SWAP3 SWAP1 POP JUMP JUMPDEST PUSH1 0x0 DUP2 MLOAD SWAP1 POP SWAP2 SWAP1 POP JUMP JUMPDEST PUSH1 0x0 DUP3 DUP3 MSTORE PUSH1 0x20 DUP3 ADD SWAP1 POP SWAP3 SWAP2 POP POP JUMP JUMPDEST PUSH1 0x0 DUP2 SWAP1 POP PUSH1 0x20 DUP3 ADD SWAP1 POP SWAP2 SWAP1 POP JUMP JUMPDEST PUSH2 0x4B14 DUP2 PUSH2 0x40FC JUMP JUMPDEST DUP3 MSTORE POP POP JUMP JUMPDEST PUSH1 0x0 PUSH2 0x4B26 DUP4 DUP4 PUSH2 0x4B0B JUMP JUMPDEST PUSH1 0x20 DUP4 ADD SWAP1 POP SWAP3 SWAP2 POP POP JUMP JUMPDEST PUSH1 0x0 PUSH1 0x20 DUP3 ADD SWAP1 POP SWAP2 SWAP1 POP JUMP JUMPDEST PUSH1 0x0 PUSH2 0x4B4A DUP3 PUSH2 0x4ADF JUMP JUMPDEST PUSH2 0x4B54 DUP2 DUP6 PUSH2 0x4AEA JUMP JUMPDEST SWAP4 POP PUSH2 0x4B5F DUP4 PUSH2 0x4AFB JUMP JUMPDEST DUP1 PUSH1 0x0 JUMPDEST DUP4 DUP2 LT ISZERO PUSH2 0x4B90 JUMPI DUP2 MLOAD PUSH2 0x4B77 DUP9 DUP3 PUSH2 0x4B1A JUMP JUMPDEST SWAP8 POP PUSH2 0x4B82 DUP4 PUSH2 0x4B32 JUMP JUMPDEST SWAP3 POP POP PUSH1 0x1 DUP2 ADD SWAP1 POP PUSH2 0x4B63 JUMP JUMPDEST POP DUP6 SWAP4 POP POP POP POP SWAP3 SWAP2 POP POP JUMP JUMPDEST PUSH1 0x0 PUSH1 0x20 DUP3 ADD SWAP1 POP DUP2 DUP2 SUB PUSH1 0x0 DUP4 ADD MSTORE PUSH2 0x4BB7 DUP2 DUP5 PUSH2 0x4B3F JUMP JUMPDEST SWAP1 POP SWAP3 SWAP2 POP POP JUMP JUMPDEST PUSH1 0x0 PUSH1 0xC0 DUP3 DUP5 SUB SLT ISZERO PUSH2 0x4BD5 JUMPI PUSH2 0x4BD4 PUSH2 0x46BD JUMP JUMPDEST JUMPDEST PUSH2 0x4BDF PUSH1 0xC0 PUSH2 0x439B JUMP JUMPDEST SWAP1 POP PUSH1 0x0 PUSH2 0x4BEF DUP5 DUP3 DUP6 ADD PUSH2 0x411D JUMP JUMPDEST PUSH1 0x0 DUP4 ADD MSTORE POP PUSH1 0x20 PUSH2 0x4C03 DUP5 DUP3 DUP6 ADD PUSH2 0x411D JUMP JUMPDEST PUSH1 0x20 DUP4 ADD MSTORE POP PUSH1 0x40 PUSH2 0x4C17 DUP5 DUP3 DUP6 ADD PUSH2 0x411D JUMP JUMPDEST PUSH1 0x40 DUP4 ADD MSTORE POP PUSH1 0x60 PUSH2 0x4C2B DUP5 DUP3 DUP6 ADD PUSH2 0x411D JUMP JUMPDEST PUSH1 0x60 DUP4 ADD MSTORE POP PUSH1 0x80 PUSH2 0x4C3F DUP5 DUP3 DUP6 ADD PUSH2 0x40E7 JUMP JUMPDEST PUSH1 0x80 DUP4 ADD MSTORE POP PUSH1 0xA0 DUP3 ADD CALLDATALOAD PUSH8 0xFFFFFFFFFFFFFFFF DUP2 GT ISZERO PUSH2 0x4C63 JUMPI PUSH2 0x4C62 PUSH2 0x46C2 JUMP JUMPDEST JUMPDEST PUSH2 0x4C6F DUP5 DUP3 DUP6 ADD PUSH2 0x4505 JUMP JUMPDEST PUSH1 0xA0 DUP4 ADD MSTORE POP SWAP3 SWAP2 POP POP JUMP JUMPDEST PUSH1 0x0 PUSH1 0x20 DUP3 DUP5 SUB SLT ISZERO PUSH2 0x4C91 JUMPI PUSH2 0x4C90 PUSH2 0x4094 JUMP JUMPDEST JUMPDEST PUSH1 0x0 DUP3 ADD CALLDATALOAD PUSH8 0xFFFFFFFFFFFFFFFF DUP2 GT ISZERO PUSH2 0x4CAF JUMPI PUSH2 0x4CAE PUSH2 0x4099 JUMP JUMPDEST JUMPDEST PUSH2 0x4CBB DUP5 DUP3 DUP6 ADD PUSH2 0x4BBF JUMP JUMPDEST SWAP2 POP POP SWAP3 SWAP2 POP POP JUMP JUMPDEST PUSH1 0x0 DUP1 PUSH1 0x0 DUP1 PUSH1 0x0 PUSH1 0xA0 DUP7 DUP9 SUB SLT ISZERO PUSH2 0x4CE0 JUMPI PUSH2 0x4CDF PUSH2 0x4094 JUMP JUMPDEST JUMPDEST PUSH1 0x0 DUP7 ADD CALLDATALOAD PUSH8 0xFFFFFFFFFFFFFFFF DUP2 GT ISZERO PUSH2 0x4CFE JUMPI PUSH2 0x4CFD PUSH2 0x4099 JUMP JUMPDEST JUMPDEST PUSH2 0x4D0A DUP9 DUP3 DUP10 ADD PUSH2 0x4869 JUMP JUMPDEST SWAP6 POP POP PUSH1 0x20 PUSH2 0x4D1B DUP9 DUP3 DUP10 ADD PUSH2 0x40E7 JUMP JUMPDEST SWAP5 POP POP PUSH1 0x40 PUSH2 0x4D2C DUP9 DUP3 DUP10 ADD PUSH2 0x40E7 JUMP JUMPDEST SWAP4 POP POP PUSH1 0x60 PUSH2 0x4D3D DUP9 DUP3 DUP10 ADD PUSH2 0x411D JUMP JUMPDEST SWAP3 POP POP PUSH1 0x80 PUSH2 0x4D4E DUP9 DUP3 DUP10 ADD PUSH2 0x40E7 JUMP JUMPDEST SWAP2 POP POP SWAP3 SWAP6 POP SWAP3 SWAP6 SWAP1 SWAP4 POP JUMP JUMPDEST PUSH1 0x0 DUP1 PUSH1 0x40 DUP4 DUP6 SUB SLT ISZERO PUSH2 0x4D72 JUMPI PUSH2 0x4D71 PUSH2 0x4094 JUMP JUMPDEST JUMPDEST PUSH1 0x0 DUP4 ADD CALLDATALOAD PUSH8 0xFFFFFFFFFFFFFFFF DUP2 GT ISZERO PUSH2 0x4D90 JUMPI PUSH2 0x4D8F PUSH2 0x4099 JUMP JUMPDEST JUMPDEST PUSH2 0x4D9C DUP6 DUP3 DUP7 ADD PUSH2 0x4BBF JUMP JUMPDEST SWAP3 POP POP PUSH1 0x20 DUP4 ADD CALLDATALOAD PUSH8 0xFFFFFFFFFFFFFFFF DUP2 GT ISZERO PUSH2 0x4DBD JUMPI PUSH2 0x4DBC PUSH2 0x4099 JUMP JUMPDEST JUMPDEST PUSH2 0x4DC9 DUP6 DUP3 DUP7 ADD PUSH2 0x46C7 JUMP JUMPDEST SWAP2 POP POP SWAP3 POP SWAP3 SWAP1 POP JUMP JUMPDEST PUSH2 0x4DDC DUP2 PUSH2 0x4221 JUMP JUMPDEST DUP2 EQ PUSH2 0x4DE7 JUMPI PUSH1 0x0 DUP1 REVERT JUMPDEST POP JUMP JUMPDEST PUSH1 0x0 DUP2 CALLDATALOAD SWAP1 POP PUSH2 0x4DF9 DUP2 PUSH2 0x4DD3 JUMP JUMPDEST SWAP3 SWAP2 POP POP JUMP JUMPDEST PUSH1 0x0 DUP1 PUSH1 0x40 DUP4 DUP6 SUB SLT ISZERO PUSH2 0x4E16 JUMPI PUSH2 0x4E15 PUSH2 0x4094 JUMP JUMPDEST JUMPDEST PUSH1 0x0 PUSH2 0x4E24 DUP6 DUP3 DUP7 ADD PUSH2 0x40E7 JUMP JUMPDEST SWAP3 POP POP PUSH1 0x20 PUSH2 0x4E35 DUP6 DUP3 DUP7 ADD PUSH2 0x4DEA JUMP JUMPDEST SWAP2 POP POP SWAP3 POP SWAP3 SWAP1 POP JUMP JUMPDEST PUSH1 0x0 DUP2 SWAP1 POP SWAP2 SWAP1 POP JUMP JUMPDEST PUSH1 0x0 PUSH2 0x4E64 PUSH2 0x4E5F PUSH2 0x4E5A DUP5 PUSH2 0x409E JUMP JUMPDEST PUSH2 0x4E3F JUMP JUMPDEST PUSH2 0x409E JUMP JUMPDEST SWAP1 POP SWAP2 SWAP1 POP JUMP JUMPDEST PUSH1 0x0 PUSH2 0x4E76 DUP3 PUSH2 0x4E49 JUMP JUMPDEST SWAP1 POP SWAP2 SWAP1 POP JUMP JUMPDEST PUSH1 0x0 PUSH2 0x4E88 DUP3 PUSH2 0x4E6B JUMP JUMPDEST SWAP1 POP SWAP2 SWAP1 POP JUMP JUMPDEST PUSH2 0x4E98 DUP2 PUSH2 0x4E7D JUMP JUMPDEST DUP3 MSTORE POP POP JUMP JUMPDEST PUSH1 0x0 PUSH1 0x20 DUP3 ADD SWAP1 POP PUSH2 0x4EB3 PUSH1 0x0 DUP4 ADD DUP5 PUSH2 0x4E8F JUMP JUMPDEST SWAP3 SWAP2 POP POP JUMP JUMPDEST PUSH1 0x0 PUSH1 0x20 DUP3 DUP5 SUB SLT ISZERO PUSH2 0x4ECF JUMPI PUSH2 0x4ECE PUSH2 0x4094 JUMP JUMPDEST JUMPDEST PUSH1 0x0 PUSH2 0x4EDD DUP5 DUP3 DUP6 ADD PUSH2 0x40E7 JUMP JUMPDEST SWAP2 POP POP SWAP3 SWAP2 POP POP JUMP JUMPDEST PUSH1 0x0 DUP1 PUSH1 0x0 PUSH1 0x60 DUP5 DUP7 SUB SLT ISZERO PUSH2 0x4EFF JUMPI PUSH2 0x4EFE PUSH2 0x4094 JUMP JUMPDEST JUMPDEST PUSH1 0x0 PUSH2 0x4F0D DUP7 DUP3 DUP8 ADD PUSH2 0x40E7 JUMP JUMPDEST SWAP4 POP POP PUSH1 0x20 PUSH2 0x4F1E DUP7 DUP3 DUP8 ADD PUSH2 0x411D JUMP JUMPDEST SWAP3 POP POP PUSH1 0x40 PUSH2 0x4F2F DUP7 DUP3 DUP8 ADD PUSH2 0x411D JUMP JUMPDEST SWAP2 POP POP SWAP3 POP SWAP3 POP SWAP3 JUMP JUMPDEST PUSH1 0x0 DUP1 PUSH1 0x40 DUP4 DUP6 SUB SLT ISZERO PUSH2 0x4F50 JUMPI PUSH2 0x4F4F PUSH2 0x4094 JUMP JUMPDEST JUMPDEST PUSH1 0x0 PUSH2 0x4F5E DUP6 DUP3 DUP7 ADD PUSH2 0x40E7 JUMP JUMPDEST SWAP3 POP POP PUSH1 0x20 PUSH2 0x4F6F DUP6 DUP3 DUP7 ADD PUSH2 0x40E7 JUMP JUMPDEST SWAP2 POP POP SWAP3 POP SWAP3 SWAP1 POP JUMP JUMPDEST PUSH1 0x0 DUP1 PUSH1 0x0 DUP1 PUSH1 0x0 PUSH1 0xA0 DUP7 DUP9 SUB SLT ISZERO PUSH2 0x4F95 JUMPI PUSH2 0x4F94 PUSH2 0x4094 JUMP JUMPDEST JUMPDEST PUSH1 0x0 PUSH2 0x4FA3 DUP9 DUP3 DUP10 ADD PUSH2 0x40E7 JUMP JUMPDEST SWAP6 POP POP PUSH1 0x20 PUSH2 0x4FB4 DUP9 DUP3 DUP10 ADD PUSH2 0x40E7 JUMP JUMPDEST SWAP5 POP POP PUSH1 0x40 PUSH2 0x4FC5 DUP9 DUP3 DUP10 ADD PUSH2 0x411D JUMP JUMPDEST SWAP4 POP POP PUSH1 0x60 PUSH2 0x4FD6 DUP9 DUP3 DUP10 ADD PUSH2 0x411D JUMP JUMPDEST SWAP3 POP POP PUSH1 0x80 DUP7 ADD CALLDATALOAD PUSH8 0xFFFFFFFFFFFFFFFF DUP2 GT ISZERO PUSH2 0x4FF7 JUMPI PUSH2 0x4FF6 PUSH2 0x4099 JUMP JUMPDEST JUMPDEST PUSH2 0x5003 DUP9 DUP3 DUP10 ADD PUSH2 0x4505 JUMP JUMPDEST SWAP2 POP POP SWAP3 SWAP6 POP SWAP3 SWAP6 SWAP1 SWAP4 POP JUMP JUMPDEST PUSH32 0x455243313135353A2061646472657373207A65726F206973206E6F7420612076 PUSH1 0x0 DUP3 ADD MSTORE PUSH32 0x616C6964206F776E657200000000000000000000000000000000000000000000 PUSH1 0x20 DUP3 ADD MSTORE POP JUMP JUMPDEST PUSH1 0x0 PUSH2 0x506C PUSH1 0x2A DUP4 PUSH2 0x428F JUMP JUMPDEST SWAP2 POP PUSH2 0x5077 DUP3 PUSH2 0x5010 JUMP JUMPDEST PUSH1 0x40 DUP3 ADD SWAP1 POP SWAP2 SWAP1 POP JUMP JUMPDEST PUSH1 0x0 PUSH1 0x20 DUP3 ADD SWAP1 POP DUP2 DUP2 SUB PUSH1 0x0 DUP4 ADD MSTORE PUSH2 0x509B DUP2 PUSH2 0x505F JUMP JUMPDEST SWAP1 POP SWAP2 SWAP1 POP JUMP JUMPDEST PUSH32 0x4E487B7100000000000000000000000000000000000000000000000000000000 PUSH1 0x0 MSTORE PUSH1 0x22 PUSH1 0x4 MSTORE PUSH1 0x24 PUSH1 0x0 REVERT JUMPDEST PUSH1 0x0 PUSH1 0x2 DUP3 DIV SWAP1 POP PUSH1 0x1 DUP3 AND DUP1 PUSH2 0x50E9 JUMPI PUSH1 0x7F DUP3 AND SWAP2 POP JUMPDEST PUSH1 0x20 DUP3 LT DUP2 SUB PUSH2 0x50FC JUMPI PUSH2 0x50FB PUSH2 0x50A2 JUMP JUMPDEST JUMPDEST POP SWAP2 SWAP1 POP JUMP JUMPDEST PUSH1 0x0 DUP2 SWAP1 POP SWAP3 SWAP2 POP POP JUMP JUMPDEST PUSH1 0x0 DUP2 SWAP1 POP DUP2 PUSH1 0x0 MSTORE PUSH1 0x20 PUSH1 0x0 KECCAK256 SWAP1 POP SWAP2 SWAP1 POP JUMP JUMPDEST PUSH1 0x0 DUP2 SLOAD PUSH2 0x512F DUP2 PUSH2 0x50D1 JUMP JUMPDEST PUSH2 0x5139 DUP2 DUP7 PUSH2 0x5102 JUMP JUMPDEST SWAP5 POP PUSH1 0x1 DUP3 AND PUSH1 0x0 DUP2 EQ PUSH2 0x5154 JUMPI PUSH1 0x1 DUP2 EQ PUSH2 0x5169 JUMPI PUSH2 0x519C JUMP JUMPDEST PUSH1 0xFF NOT DUP4 AND DUP7 MSTORE DUP2 ISZERO ISZERO DUP3 MUL DUP7 ADD SWAP4 POP PUSH2 0x519C JUMP JUMPDEST PUSH2 0x5172 DUP6 PUSH2 0x510D JUMP JUMPDEST PUSH1 0x0 JUMPDEST DUP4 DUP2 LT ISZERO PUSH2 0x5194 JUMPI DUP2 SLOAD DUP2 DUP10 ADD MSTORE PUSH1 0x1 DUP3 ADD SWAP2 POP PUSH1 0x20 DUP2 ADD SWAP1 POP PUSH2 0x5175 JUMP JUMPDEST DUP4 DUP9 ADD SWAP6 POP POP POP JUMPDEST POP POP POP SWAP3 SWAP2 POP POP JUMP JUMPDEST PUSH1 0x0 PUSH2 0x51B0 DUP3 PUSH2 0x4284 JUMP JUMPDEST PUSH2 0x51BA DUP2 DUP6 PUSH2 0x5102 JUMP JUMPDEST SWAP4 POP PUSH2 0x51CA DUP2 DUP6 PUSH1 0x20 DUP7 ADD PUSH2 0x42A0 JUMP JUMPDEST DUP1 DUP5 ADD SWAP2 POP POP SWAP3 SWAP2 POP POP JUMP JUMPDEST PUSH1 0x0 PUSH2 0x51E2 DUP3 DUP6 PUSH2 0x5122 JUMP JUMPDEST SWAP2 POP PUSH2 0x51EE DUP3 DUP5 PUSH2 0x51A5 JUMP JUMPDEST SWAP2 POP DUP2 SWAP1 POP SWAP4 SWAP3 POP POP POP JUMP JUMPDEST PUSH32 0x434E410000000000000000000000000000000000000000000000000000000000 PUSH1 0x0 DUP3 ADD MSTORE POP JUMP JUMPDEST PUSH1 0x0 PUSH2 0x5230 PUSH1 0x3 DUP4 PUSH2 0x428F JUMP JUMPDEST SWAP2 POP PUSH2 0x523B DUP3 PUSH2 0x51FA JUMP JUMPDEST PUSH1 0x20 DUP3 ADD SWAP1 POP SWAP2 SWAP1 POP JUMP JUMPDEST PUSH1 0x0 PUSH1 0x20 DUP3 ADD SWAP1 POP DUP2 DUP2 SUB PUSH1 0x0 DUP4 ADD MSTORE PUSH2 0x525F DUP2 PUSH2 0x5223 JUMP JUMPDEST SWAP1 POP SWAP2 SWAP1 POP JUMP JUMPDEST PUSH32 0x54444E4500000000000000000000000000000000000000000000000000000000 PUSH1 0x0 DUP3 ADD MSTORE POP JUMP JUMPDEST PUSH1 0x0 PUSH2 0x529C PUSH1 0x4 DUP4 PUSH2 0x428F JUMP JUMPDEST SWAP2 POP PUSH2 0x52A7 DUP3 PUSH2 0x5266 JUMP JUMPDEST PUSH1 0x20 DUP3 ADD SWAP1 POP SWAP2 SWAP1 POP JUMP JUMPDEST PUSH1 0x0 PUSH1 0x20 DUP3 ADD SWAP1 POP DUP2 DUP2 SUB PUSH1 0x0 DUP4 ADD MSTORE PUSH2 0x52CB DUP2 PUSH2 0x528F JUMP JUMPDEST SWAP1 POP SWAP2 SWAP1 POP JUMP JUMPDEST PUSH32 0x455243313135353A2063616C6C6572206973206E6F7420746F6B656E206F776E PUSH1 0x0 DUP3 ADD MSTORE PUSH32 0x6572206F7220617070726F766564000000000000000000000000000000000000 PUSH1 0x20 DUP3 ADD MSTORE POP JUMP JUMPDEST PUSH1 0x0 PUSH2 0x532E PUSH1 0x2E DUP4 PUSH2 0x428F JUMP JUMPDEST SWAP2 POP PUSH2 0x5339 DUP3 PUSH2 0x52D2 JUMP JUMPDEST PUSH1 0x40 DUP3 ADD SWAP1 POP SWAP2 SWAP1 POP JUMP JUMPDEST PUSH1 0x0 PUSH1 0x20 DUP3 ADD SWAP1 POP DUP2 DUP2 SUB PUSH1 0x0 DUP4 ADD MSTORE PUSH2 0x535D DUP2 PUSH2 0x5321 JUMP JUMPDEST SWAP1 POP SWAP2 SWAP1 POP JUMP JUMPDEST PUSH1 0x0 DUP2 SWAP1 POP SWAP2 SWAP1 POP JUMP JUMPDEST PUSH2 0x5377 DUP2 PUSH2 0x5364 JUMP JUMPDEST DUP3 MSTORE POP POP JUMP JUMPDEST PUSH1 0x0 PUSH1 0xC0 DUP3 ADD SWAP1 POP PUSH2 0x5392 PUSH1 0x0 DUP4 ADD DUP10 PUSH2 0x536E JUMP JUMPDEST PUSH2 0x539F PUSH1 0x20 DUP4 ADD DUP9 PUSH2 0x4172 JUMP JUMPDEST PUSH2 0x53AC PUSH1 0x40 DUP4 ADD DUP8 PUSH2 0x4172 JUMP JUMPDEST PUSH2 0x53B9 PUSH1 0x60 DUP4 ADD DUP7 PUSH2 0x4172 JUMP JUMPDEST PUSH2 0x53C6 PUSH1 0x80 DUP4 ADD DUP6 PUSH2 0x4172 JUMP JUMPDEST PUSH2 0x53D3 PUSH1 0xA0 DUP4 ADD DUP5 PUSH2 0x47CC JUMP JUMPDEST SWAP8 SWAP7 POP POP POP POP POP POP POP JUMP JUMPDEST PUSH1 0x0 PUSH1 0xA0 DUP3 ADD SWAP1 POP PUSH2 0x53F3 PUSH1 0x0 DUP4 ADD DUP9 PUSH2 0x536E JUMP JUMPDEST PUSH2 0x5400 PUSH1 0x20 DUP4 ADD DUP8 PUSH2 0x4172 JUMP JUMPDEST PUSH2 0x540D PUSH1 0x40 DUP4 ADD DUP7 PUSH2 0x4172 JUMP JUMPDEST PUSH2 0x541A PUSH1 0x60 DUP4 ADD DUP6 PUSH2 0x536E JUMP JUMPDEST PUSH2 0x5427 PUSH1 0x80 DUP4 ADD DUP5 PUSH2 0x47CC JUMP JUMPDEST SWAP7 SWAP6 POP POP POP POP POP POP JUMP JUMPDEST PUSH32 0x455243313135353A206163636F756E747320616E6420696473206C656E677468 PUSH1 0x0 DUP3 ADD MSTORE PUSH32 0x206D69736D617463680000000000000000000000000000000000000000000000 PUSH1 0x20 DUP3 ADD MSTORE POP JUMP JUMPDEST PUSH1 0x0 PUSH2 0x548D PUSH1 0x29 DUP4 PUSH2 0x428F JUMP JUMPDEST SWAP2 POP PUSH2 0x5498 DUP3 PUSH2 0x5431 JUMP JUMPDEST PUSH1 0x40 DUP3 ADD SWAP1 POP SWAP2 SWAP1 POP JUMP JUMPDEST PUSH1 0x0 PUSH1 0x20 DUP3 ADD SWAP1 POP DUP2 DUP2 SUB PUSH1 0x0 DUP4 ADD MSTORE PUSH2 0x54BC DUP2 PUSH2 0x5480 JUMP JUMPDEST SWAP1 POP SWAP2 SWAP1 POP JUMP JUMPDEST PUSH32 0x4E487B7100000000000000000000000000000000000000000000000000000000 PUSH1 0x0 MSTORE PUSH1 0x32 PUSH1 0x4 MSTORE PUSH1 0x24 PUSH1 0x0 REVERT JUMPDEST PUSH32 0x4E487B7100000000000000000000000000000000000000000000000000000000 PUSH1 0x0 MSTORE PUSH1 0x11 PUSH1 0x4 MSTORE PUSH1 0x24 PUSH1 0x0 REVERT JUMPDEST PUSH1 0x0 PUSH2 0x552C DUP3 PUSH2 0x40FC JUMP JUMPDEST SWAP2 POP PUSH32 0xFFFFFFFFFFFFFFFFFFFFFFFFFFFFFFFFFFFFFFFFFFFFFFFFFFFFFFFFFFFFFFFF DUP3 SUB PUSH2 0x555E JUMPI PUSH2 0x555D PUSH2 0x54F2 JUMP JUMPDEST JUMPDEST PUSH1 0x1 DUP3 ADD SWAP1 POP SWAP2 SWAP1 POP JUMP JUMPDEST PUSH32 0x54414D0000000000000000000000000000000000000000000000000000000000 PUSH1 0x0 DUP3 ADD MSTORE POP JUMP JUMPDEST PUSH1 0x0 PUSH2 0x559F PUSH1 0x3 DUP4 PUSH2 0x428F JUMP JUMPDEST SWAP2 POP PUSH2 0x55AA DUP3 PUSH2 0x5569 JUMP JUMPDEST PUSH1 0x20 DUP3 ADD SWAP1 POP SWAP2 SWAP1 POP JUMP JUMPDEST PUSH1 0x0 PUSH1 0x20 DUP3 ADD SWAP1 POP DUP2 DUP2 SUB PUSH1 0x0 DUP4 ADD MSTORE PUSH2 0x55CE DUP2 PUSH2 0x5592 JUMP JUMPDEST SWAP1 POP SWAP2 SWAP1 POP JUMP JUMPDEST PUSH32 0x4953000000000000000000000000000000000000000000000000000000000000 PUSH1 0x0 DUP3 ADD MSTORE POP JUMP JUMPDEST PUSH1 0x0 PUSH2 0x560B PUSH1 0x2 DUP4 PUSH2 0x428F JUMP JUMPDEST SWAP2 POP PUSH2 0x5616 DUP3 PUSH2 0x55D5 JUMP JUMPDEST PUSH1 0x20 DUP3 ADD SWAP1 POP SWAP2 SWAP1 POP JUMP JUMPDEST PUSH1 0x0 PUSH1 0x20 DUP3 ADD SWAP1 POP DUP2 DUP2 SUB PUSH1 0x0 DUP4 ADD MSTORE PUSH2 0x563A DUP2 PUSH2 0x55FE JUMP JUMPDEST SWAP1 POP SWAP2 SWAP1 POP JUMP JUMPDEST PUSH32 0x496E697469616C697A61626C653A20636F6E747261637420697320616C726561 PUSH1 0x0 DUP3 ADD MSTORE PUSH32 0x647920696E697469616C697A6564000000000000000000000000000000000000 PUSH1 0x20 DUP3 ADD MSTORE POP JUMP JUMPDEST PUSH1 0x0 PUSH2 0x569D PUSH1 0x2E DUP4 PUSH2 0x428F JUMP JUMPDEST SWAP2 POP PUSH2 0x56A8 DUP3 PUSH2 0x5641 JUMP JUMPDEST PUSH1 0x40 DUP3 ADD SWAP1 POP SWAP2 SWAP1 POP JUMP JUMPDEST PUSH1 0x0 PUSH1 0x20 DUP3 ADD SWAP1 POP DUP2 DUP2 SUB PUSH1 0x0 DUP4 ADD MSTORE PUSH2 0x56CC DUP2 PUSH2 0x5690 JUMP JUMPDEST SWAP1 POP SWAP2 SWAP1 POP JUMP JUMPDEST PUSH32 0x465A410000000000000000000000000000000000000000000000000000000000 PUSH1 0x0 DUP3 ADD MSTORE POP JUMP JUMPDEST PUSH1 0x0 PUSH2 0x5709 PUSH1 0x3 DUP4 PUSH2 0x428F JUMP JUMPDEST SWAP2 POP PUSH2 0x5714 DUP3 PUSH2 0x56D3 JUMP JUMPDEST PUSH1 0x20 DUP3 ADD SWAP1 POP SWAP2 SWAP1 POP JUMP JUMPDEST PUSH1 0x0 PUSH1 0x20 DUP3 ADD SWAP1 POP DUP2 DUP2 SUB PUSH1 0x0 DUP4 ADD MSTORE PUSH2 0x5738 DUP2 PUSH2 0x56FC JUMP JUMPDEST SWAP1 POP SWAP2 SWAP1 POP JUMP JUMPDEST PUSH32 0x435A410000000000000000000000000000000000000000000000000000000000 PUSH1 0x0 DUP3 ADD MSTORE POP JUMP JUMPDEST PUSH1 0x0 PUSH2 0x5775 PUSH1 0x3 DUP4 PUSH2 0x428F JUMP JUMPDEST SWAP2 POP PUSH2 0x5780 DUP3 PUSH2 0x573F JUMP JUMPDEST PUSH1 0x20 DUP3 ADD SWAP1 POP SWAP2 SWAP1 POP JUMP JUMPDEST PUSH1 0x0 PUSH1 0x20 DUP3 ADD SWAP1 POP DUP2 DUP2 SUB PUSH1 0x0 DUP4 ADD MSTORE PUSH2 0x57A4 DUP2 PUSH2 0x5768 JUMP JUMPDEST SWAP1 POP SWAP2 SWAP1 POP JUMP JUMPDEST PUSH32 0x5A46000000000000000000000000000000000000000000000000000000000000 PUSH1 0x0 DUP3 ADD MSTORE POP JUMP JUMPDEST PUSH1 0x0 PUSH2 0x57E1 PUSH1 0x2 DUP4 PUSH2 0x428F JUMP JUMPDEST SWAP2 POP PUSH2 0x57EC DUP3 PUSH2 0x57AB JUMP JUMPDEST PUSH1 0x20 DUP3 ADD SWAP1 POP SWAP2 SWAP1 POP JUMP JUMPDEST PUSH1 0x0 PUSH1 0x20 DUP3 ADD SWAP1 POP DUP2 DUP2 SUB PUSH1 0x0 DUP4 ADD MSTORE PUSH2 0x5810 DUP2 PUSH2 0x57D4 JUMP JUMPDEST SWAP1 POP SWAP2 SWAP1 POP JUMP JUMPDEST PUSH1 0x0 DUP2 SWAP1 POP SWAP2 SWAP1 POP JUMP JUMPDEST PUSH1 0x0 PUSH1 0xFF DUP3 AND SWAP1 POP SWAP2 SWAP1 POP JUMP JUMPDEST PUSH1 0x0 PUSH2 0x5849 PUSH2 0x5844 PUSH2 0x583F DUP5 PUSH2 0x5817 JUMP JUMPDEST PUSH2 0x4E3F JUMP JUMPDEST PUSH2 0x5821 JUMP JUMPDEST SWAP1 POP SWAP2 SWAP1 POP JUMP JUMPDEST PUSH2 0x5859 DUP2 PUSH2 0x582E JUMP JUMPDEST DUP3 MSTORE POP POP JUMP JUMPDEST PUSH1 0x0 PUSH1 0x20 DUP3 ADD SWAP1 POP PUSH2 0x5874 PUSH1 0x0 DUP4 ADD DUP5 PUSH2 0x5850 JUMP JUMPDEST SWAP3 SWAP2 POP POP JUMP JUMPDEST PUSH32 0x4943000000000000000000000000000000000000000000000000000000000000 PUSH1 0x0 DUP3 ADD MSTORE POP JUMP JUMPDEST PUSH1 0x0 PUSH2 0x58B0 PUSH1 0x2 DUP4 PUSH2 0x428F JUMP JUMPDEST SWAP2 POP PUSH2 0x58BB DUP3 PUSH2 0x587A JUMP JUMPDEST PUSH1 0x20 DUP3 ADD SWAP1 POP SWAP2 SWAP1 POP JUMP JUMPDEST PUSH1 0x0 PUSH1 0x20 DUP3 ADD SWAP1 POP DUP2 DUP2 SUB PUSH1 0x0 DUP4 ADD MSTORE PUSH2 0x58DF DUP2 PUSH2 0x58A3 JUMP JUMPDEST SWAP1 POP SWAP2 SWAP1 POP JUMP JUMPDEST PUSH1 0x0 PUSH2 0x58F1 DUP3 PUSH2 0x40FC JUMP JUMPDEST SWAP2 POP PUSH2 0x58FC DUP4 PUSH2 0x40FC JUMP JUMPDEST SWAP3 POP DUP3 DUP3 ADD SWAP1 POP DUP1 DUP3 GT ISZERO PUSH2 0x5914 JUMPI PUSH2 0x5913 PUSH2 0x54F2 JUMP JUMPDEST JUMPDEST SWAP3 SWAP2 POP POP JUMP JUMPDEST PUSH32 0x54696D65204F7574000000000000000000000000000000000000000000000000 PUSH1 0x0 DUP3 ADD MSTORE POP JUMP JUMPDEST PUSH1 0x0 PUSH2 0x5950 PUSH1 0x8 DUP4 PUSH2 0x428F JUMP JUMPDEST SWAP2 POP PUSH2 0x595B DUP3 PUSH2 0x591A JUMP JUMPDEST PUSH1 0x20 DUP3 ADD SWAP1 POP SWAP2 SWAP1 POP JUMP JUMPDEST PUSH1 0x0 PUSH1 0x20 DUP3 ADD SWAP1 POP DUP2 DUP2 SUB PUSH1 0x0 DUP4 ADD MSTORE PUSH2 0x597F DUP2 PUSH2 0x5943 JUMP JUMPDEST SWAP1 POP SWAP2 SWAP1 POP JUMP JUMPDEST PUSH32 0x455A410000000000000000000000000000000000000000000000000000000000 PUSH1 0x0 DUP3 ADD MSTORE POP JUMP JUMPDEST PUSH1 0x0 PUSH2 0x59BC PUSH1 0x3 DUP4 PUSH2 0x428F JUMP JUMPDEST SWAP2 POP PUSH2 0x59C7 DUP3 PUSH2 0x5986 JUMP JUMPDEST PUSH1 0x20 DUP3 ADD SWAP1 POP SWAP2 SWAP1 POP JUMP JUMPDEST PUSH1 0x0 PUSH1 0x20 DUP3 ADD SWAP1 POP DUP2 DUP2 SUB PUSH1 0x0 DUP4 ADD MSTORE PUSH2 0x59EB DUP2 PUSH2 0x59AF JUMP JUMPDEST SWAP1 POP SWAP2 SWAP1 POP JUMP JUMPDEST PUSH32 0x4E4F435A41000000000000000000000000000000000000000000000000000000 PUSH1 0x0 DUP3 ADD MSTORE POP JUMP JUMPDEST PUSH1 0x0 PUSH2 0x5A28 PUSH1 0x5 DUP4 PUSH2 0x428F JUMP JUMPDEST SWAP2 POP PUSH2 0x5A33 DUP3 PUSH2 0x59F2 JUMP JUMPDEST PUSH1 0x20 DUP3 ADD SWAP1 POP SWAP2 SWAP1 POP JUMP JUMPDEST PUSH1 0x0 PUSH1 0x20 DUP3 ADD SWAP1 POP DUP2 DUP2 SUB PUSH1 0x0 DUP4 ADD MSTORE PUSH2 0x5A57 DUP2 PUSH2 0x5A1B JUMP JUMPDEST SWAP1 POP SWAP2 SWAP1 POP JUMP JUMPDEST PUSH32 0x4942410000000000000000000000000000000000000000000000000000000000 PUSH1 0x0 DUP3 ADD MSTORE POP JUMP JUMPDEST PUSH1 0x0 PUSH2 0x5A94 PUSH1 0x3 DUP4 PUSH2 0x428F JUMP JUMPDEST SWAP2 POP PUSH2 0x5A9F DUP3 PUSH2 0x5A5E JUMP JUMPDEST PUSH1 0x20 DUP3 ADD SWAP1 POP SWAP2 SWAP1 POP JUMP JUMPDEST PUSH1 0x0 PUSH1 0x20 DUP3 ADD SWAP1 POP DUP2 DUP2 SUB PUSH1 0x0 DUP4 ADD MSTORE PUSH2 0x5AC3 DUP2 PUSH2 0x5A87 JUMP JUMPDEST SWAP1 POP SWAP2 SWAP1 POP JUMP JUMPDEST PUSH32 0x414D5A0000000000000000000000000000000000000000000000000000000000 PUSH1 0x0 DUP3 ADD MSTORE POP JUMP JUMPDEST PUSH1 0x0 PUSH2 0x5B00 PUSH1 0x3 DUP4 PUSH2 0x428F JUMP JUMPDEST SWAP2 POP PUSH2 0x5B0B DUP3 PUSH2 0x5ACA JUMP JUMPDEST PUSH1 0x20 DUP3 ADD SWAP1 POP SWAP2 SWAP1 POP JUMP JUMPDEST PUSH1 0x0 PUSH1 0x20 DUP3 ADD SWAP1 POP DUP2 DUP2 SUB PUSH1 0x0 DUP4 ADD MSTORE PUSH2 0x5B2F DUP2 PUSH2 0x5AF3 JUMP JUMPDEST SWAP1 POP SWAP2 SWAP1 POP JUMP JUMPDEST PUSH32 0x4256550000000000000000000000000000000000000000000000000000000000 PUSH1 0x0 DUP3 ADD MSTORE POP JUMP JUMPDEST PUSH1 0x0 PUSH2 0x5B6C PUSH1 0x3 DUP4 PUSH2 0x428F JUMP JUMPDEST SWAP2 POP PUSH2 0x5B77 DUP3 PUSH2 0x5B36 JUMP JUMPDEST PUSH1 0x20 DUP3 ADD SWAP1 POP SWAP2 SWAP1 POP JUMP JUMPDEST PUSH1 0x0 PUSH1 0x20 DUP3 ADD SWAP1 POP DUP2 DUP2 SUB PUSH1 0x0 DUP4 ADD MSTORE PUSH2 0x5B9B DUP2 PUSH2 0x5B5F JUMP JUMPDEST SWAP1 POP SWAP2 SWAP1 POP JUMP JUMPDEST PUSH32 0x49434F5300000000000000000000000000000000000000000000000000000000 PUSH1 0x0 DUP3 ADD MSTORE POP JUMP JUMPDEST PUSH1 0x0 PUSH2 0x5BD8 PUSH1 0x4 DUP4 PUSH2 0x428F JUMP JUMPDEST SWAP2 POP PUSH2 0x5BE3 DUP3 PUSH2 0x5BA2 JUMP JUMPDEST PUSH1 0x20 DUP3 ADD SWAP1 POP SWAP2 SWAP1 POP JUMP JUMPDEST PUSH1 0x0 PUSH1 0x20 DUP3 ADD SWAP1 POP DUP2 DUP2 SUB PUSH1 0x0 DUP4 ADD MSTORE PUSH2 0x5C07 DUP2 PUSH2 0x5BCB JUMP JUMPDEST SWAP1 POP SWAP2 SWAP1 POP JUMP JUMPDEST PUSH1 0x0 PUSH2 0x5C19 DUP3 PUSH2 0x40FC JUMP JUMPDEST SWAP2 POP PUSH2 0x5C24 DUP4 PUSH2 0x40FC JUMP JUMPDEST SWAP3 POP DUP3 DUP3 MUL PUSH2 0x5C32 DUP2 PUSH2 0x40FC JUMP JUMPDEST SWAP2 POP DUP3 DUP3 DIV DUP5 EQ DUP4 ISZERO OR PUSH2 0x5C49 JUMPI PUSH2 0x5C48 PUSH2 0x54F2 JUMP JUMPDEST JUMPDEST POP SWAP3 SWAP2 POP POP JUMP JUMPDEST PUSH32 0x4E487B7100000000000000000000000000000000000000000000000000000000 PUSH1 0x0 MSTORE PUSH1 0x12 PUSH1 0x4 MSTORE PUSH1 0x24 PUSH1 0x0 REVERT JUMPDEST PUSH1 0x0 PUSH2 0x5C8A DUP3 PUSH2 0x40FC JUMP JUMPDEST SWAP2 POP PUSH2 0x5C95 DUP4 PUSH2 0x40FC JUMP JUMPDEST SWAP3 POP DUP3 PUSH2 0x5CA5 JUMPI PUSH2 0x5CA4 PUSH2 0x5C50 JUMP JUMPDEST JUMPDEST DUP3 DUP3 DIV SWAP1 POP SWAP3 SWAP2 POP POP JUMP JUMPDEST PUSH32 0x4941000000000000000000000000000000000000000000000000000000000000 PUSH1 0x0 DUP3 ADD MSTORE POP JUMP JUMPDEST PUSH1 0x0 PUSH2 0x5CE6 PUSH1 0x2 DUP4 PUSH2 0x428F JUMP JUMPDEST SWAP2 POP PUSH2 0x5CF1 DUP3 PUSH2 0x5CB0 JUMP JUMPDEST PUSH1 0x20 DUP3 ADD SWAP1 POP SWAP2 SWAP1 POP JUMP JUMPDEST PUSH1 0x0 PUSH1 0x20 DUP3 ADD SWAP1 POP DUP2 DUP2 SUB PUSH1 0x0 DUP4 ADD MSTORE PUSH2 0x5D15 DUP2 PUSH2 0x5CD9 JUMP JUMPDEST SWAP1 POP SWAP2 SWAP1 POP JUMP JUMPDEST PUSH1 0x0 PUSH2 0x5D27 DUP3 PUSH2 0x40FC JUMP JUMPDEST SWAP2 POP PUSH2 0x5D32 DUP4 PUSH2 0x40FC JUMP JUMPDEST SWAP3 POP DUP3 DUP3 SUB SWAP1 POP DUP2 DUP2 GT ISZERO PUSH2 0x5D4A JUMPI PUSH2 0x5D49 PUSH2 0x54F2 JUMP JUMPDEST JUMPDEST SWAP3 SWAP2 POP POP JUMP JUMPDEST PUSH1 0x0 DUP2 SWAP1 POP SWAP3 SWAP2 POP POP JUMP JUMPDEST POP JUMP JUMPDEST PUSH1 0x0 PUSH2 0x5D6B PUSH1 0x0 DUP4 PUSH2 0x5D50 JUMP JUMPDEST SWAP2 POP PUSH2 0x5D76 DUP3 PUSH2 0x5D5B JUMP JUMPDEST PUSH1 0x0 DUP3 ADD SWAP1 POP SWAP2 SWAP1 POP JUMP JUMPDEST PUSH1 0x0 PUSH2 0x5D8C DUP3 PUSH2 0x5D5E JUMP JUMPDEST SWAP2 POP DUP2 SWAP1 POP SWAP2 SWAP1 POP JUMP JUMPDEST PUSH32 0x4154460000000000000000000000000000000000000000000000000000000000 PUSH1 0x0 DUP3 ADD MSTORE POP JUMP JUMPDEST PUSH1 0x0 PUSH2 0x5DCC PUSH1 0x3 DUP4 PUSH2 0x428F JUMP JUMPDEST SWAP2 POP PUSH2 0x5DD7 DUP3 PUSH2 0x5D96 JUMP JUMPDEST PUSH1 0x20 DUP3 ADD SWAP1 POP SWAP2 SWAP1 POP JUMP JUMPDEST PUSH1 0x0 PUSH1 0x20 DUP3 ADD SWAP1 POP DUP2 DUP2 SUB PUSH1 0x0 DUP4 ADD MSTORE PUSH2 0x5DFB DUP2 PUSH2 0x5DBF JUMP JUMPDEST SWAP1 POP SWAP2 SWAP1 POP JUMP JUMPDEST PUSH32 0x4654460000000000000000000000000000000000000000000000000000000000 PUSH1 0x0 DUP3 ADD MSTORE POP JUMP JUMPDEST PUSH1 0x0 PUSH2 0x5E38 PUSH1 0x3 DUP4 PUSH2 0x428F JUMP JUMPDEST SWAP2 POP PUSH2 0x5E43 DUP3 PUSH2 0x5E02 JUMP JUMPDEST PUSH1 0x20 DUP3 ADD SWAP1 POP SWAP2 SWAP1 POP JUMP JUMPDEST PUSH1 0x0 PUSH1 0x20 DUP3 ADD SWAP1 POP DUP2 DUP2 SUB PUSH1 0x0 DUP4 ADD MSTORE PUSH2 0x5E67 DUP2 PUSH2 0x5E2B JUMP JUMPDEST SWAP1 POP SWAP2 SWAP1 POP JUMP JUMPDEST PUSH1 0x0 DUP2 MLOAD SWAP1 POP PUSH2 0x5E7D DUP2 PUSH2 0x4106 JUMP JUMPDEST SWAP3 SWAP2 POP POP JUMP JUMPDEST PUSH1 0x0 PUSH1 0x20 DUP3 DUP5 SUB SLT ISZERO PUSH2 0x5E99 JUMPI PUSH2 0x5E98 PUSH2 0x4094 JUMP JUMPDEST JUMPDEST PUSH1 0x0 PUSH2 0x5EA7 DUP5 DUP3 DUP6 ADD PUSH2 0x5E6E JUMP JUMPDEST SWAP2 POP POP SWAP3 SWAP2 POP POP JUMP JUMPDEST PUSH1 0x0 PUSH1 0x60 DUP3 ADD SWAP1 POP PUSH2 0x5EC5 PUSH1 0x0 DUP4 ADD DUP7 PUSH2 0x47CC JUMP JUMPDEST PUSH2 0x5ED2 PUSH1 0x20 DUP4 ADD DUP6 PUSH2 0x47CC JUMP JUMPDEST PUSH2 0x5EDF PUSH1 0x40 DUP4 ADD DUP5 PUSH2 0x4172 JUMP JUMPDEST SWAP5 SWAP4 POP POP POP POP JUMP JUMPDEST PUSH1 0x0 DUP2 MLOAD SWAP1 POP PUSH2 0x5EF6 DUP2 PUSH2 0x4DD3 JUMP JUMPDEST SWAP3 SWAP2 POP POP JUMP JUMPDEST PUSH1 0x0 PUSH1 0x20 DUP3 DUP5 SUB SLT ISZERO PUSH2 0x5F12 JUMPI PUSH2 0x5F11 PUSH2 0x4094 JUMP JUMPDEST JUMPDEST PUSH1 0x0 PUSH2 0x5F20 DUP5 DUP3 DUP6 ADD PUSH2 0x5EE7 JUMP JUMPDEST SWAP2 POP POP SWAP3 SWAP2 POP POP JUMP JUMPDEST PUSH1 0x0 DUP2 MLOAD SWAP1 POP PUSH2 0x5F38 DUP2 PUSH2 0x40D0 JUMP JUMPDEST SWAP3 SWAP2 POP POP JUMP JUMPDEST PUSH1 0x0 PUSH1 0x20 DUP3 DUP5 SUB SLT ISZERO PUSH2 0x5F54 JUMPI PUSH2 0x5F53 PUSH2 0x4094 JUMP JUMPDEST JUMPDEST PUSH1 0x0 PUSH2 0x5F62 DUP5 DUP3 DUP6 ADD PUSH2 0x5F29 JUMP JUMPDEST SWAP2 POP POP SWAP3 SWAP2 POP POP JUMP JUMPDEST PUSH1 0x0 PUSH1 0x60 DUP3 ADD SWAP1 POP PUSH2 0x5F80 PUSH1 0x0 DUP4 ADD DUP7 PUSH2 0x4172 JUMP JUMPDEST PUSH2 0x5F8D PUSH1 0x20 DUP4 ADD DUP6 PUSH2 0x47CC JUMP JUMPDEST PUSH2 0x5F9A PUSH1 0x40 DUP4 ADD DUP5 PUSH2 0x47CC JUMP JUMPDEST SWAP5 SWAP4 POP POP POP POP JUMP JUMPDEST PUSH32 0x4E6F742041646D696E0000000000000000000000000000000000000000000000 PUSH1 0x0 DUP3 ADD MSTORE POP JUMP JUMPDEST PUSH1 0x0 PUSH2 0x5FD8 PUSH1 0x9 DUP4 PUSH2 0x428F JUMP JUMPDEST SWAP2 POP PUSH2 0x5FE3 DUP3 PUSH2 0x5FA2 JUMP JUMPDEST PUSH1 0x20 DUP3 ADD SWAP1 POP SWAP2 SWAP1 POP JUMP JUMPDEST PUSH1 0x0 PUSH1 0x20 DUP3 ADD SWAP1 POP DUP2 DUP2 SUB PUSH1 0x0 DUP4 ADD MSTORE PUSH2 0x6007 DUP2 PUSH2 0x5FCB JUMP JUMPDEST SWAP1 POP SWAP2 SWAP1 POP JUMP JUMPDEST PUSH32 0x5A41000000000000000000000000000000000000000000000000000000000000 PUSH1 0x0 DUP3 ADD MSTORE POP JUMP JUMPDEST PUSH1 0x0 PUSH2 0x6044 PUSH1 0x2 DUP4 PUSH2 0x428F JUMP JUMPDEST SWAP2 POP PUSH2 0x604F DUP3 PUSH2 0x600E JUMP JUMPDEST PUSH1 0x20 DUP3 ADD SWAP1 POP SWAP2 SWAP1 POP JUMP JUMPDEST PUSH1 0x0 PUSH1 0x20 DUP3 ADD SWAP1 POP DUP2 DUP2 SUB PUSH1 0x0 DUP4 ADD MSTORE PUSH2 0x6073 DUP2 PUSH2 0x6037 JUMP JUMPDEST SWAP1 POP SWAP2 SWAP1 POP JUMP JUMPDEST PUSH32 0x4E41000000000000000000000000000000000000000000000000000000000000 PUSH1 0x0 DUP3 ADD MSTORE POP JUMP JUMPDEST PUSH1 0x0 PUSH2 0x60B0 PUSH1 0x2 DUP4 PUSH2 0x428F JUMP JUMPDEST SWAP2 POP PUSH2 0x60BB DUP3 PUSH2 0x607A JUMP JUMPDEST PUSH1 0x20 DUP3 ADD SWAP1 POP SWAP2 SWAP1 POP JUMP JUMPDEST PUSH1 0x0 PUSH1 0x20 DUP3 ADD SWAP1 POP DUP2 DUP2 SUB PUSH1 0x0 DUP4 ADD MSTORE PUSH2 0x60DF DUP2 PUSH2 0x60A3 JUMP JUMPDEST SWAP1 POP SWAP2 SWAP1 POP JUMP JUMPDEST PUSH32 0x4F776E61626C653A206E6577206F776E657220697320746865207A65726F2061 PUSH1 0x0 DUP3 ADD MSTORE PUSH32 0x6464726573730000000000000000000000000000000000000000000000000000 PUSH1 0x20 DUP3 ADD MSTORE POP JUMP JUMPDEST PUSH1 0x0 PUSH2 0x6142 PUSH1 0x26 DUP4 PUSH2 0x428F JUMP JUMPDEST SWAP2 POP PUSH2 0x614D DUP3 PUSH2 0x60E6 JUMP JUMPDEST PUSH1 0x40 DUP3 ADD SWAP1 POP SWAP2 SWAP1 POP JUMP JUMPDEST PUSH1 0x0 PUSH1 0x20 DUP3 ADD SWAP1 POP DUP2 DUP2 SUB PUSH1 0x0 DUP4 ADD MSTORE PUSH2 0x6171 DUP2 PUSH2 0x6135 JUMP JUMPDEST SWAP1 POP SWAP2 SWAP1 POP JUMP JUMPDEST PUSH32 0x4F776E61626C653A2063616C6C6572206973206E6F7420746865206F776E6572 PUSH1 0x0 DUP3 ADD MSTORE POP JUMP JUMPDEST PUSH1 0x0 PUSH2 0x61AE PUSH1 0x20 DUP4 PUSH2 0x428F JUMP JUMPDEST SWAP2 POP PUSH2 0x61B9 DUP3 PUSH2 0x6178 JUMP JUMPDEST PUSH1 0x20 DUP3 ADD SWAP1 POP SWAP2 SWAP1 POP JUMP JUMPDEST PUSH1 0x0 PUSH1 0x20 DUP3 ADD SWAP1 POP DUP2 DUP2 SUB PUSH1 0x0 DUP4 ADD MSTORE PUSH2 0x61DD DUP2 PUSH2 0x61A1 JUMP JUMPDEST SWAP1 POP SWAP2 SWAP1 POP JUMP JUMPDEST PUSH32 0x455243313135353A206D696E7420746F20746865207A65726F20616464726573 PUSH1 0x0 DUP3 ADD MSTORE PUSH32 0x7300000000000000000000000000000000000000000000000000000000000000 PUSH1 0x20 DUP3 ADD MSTORE POP JUMP JUMPDEST PUSH1 0x0 PUSH2 0x6240 PUSH1 0x21 DUP4 PUSH2 0x428F JUMP JUMPDEST SWAP2 POP PUSH2 0x624B DUP3 PUSH2 0x61E4 JUMP JUMPDEST PUSH1 0x40 DUP3 ADD SWAP1 POP SWAP2 SWAP1 POP JUMP JUMPDEST PUSH1 0x0 PUSH1 0x20 DUP3 ADD SWAP1 POP DUP2 DUP2 SUB PUSH1 0x0 DUP4 ADD MSTORE PUSH2 0x626F DUP2 PUSH2 0x6233 JUMP JUMPDEST SWAP1 POP SWAP2 SWAP1 POP JUMP JUMPDEST PUSH32 0x455243313135353A2069647320616E6420616D6F756E7473206C656E67746820 PUSH1 0x0 DUP3 ADD MSTORE PUSH32 0x6D69736D61746368000000000000000000000000000000000000000000000000 PUSH1 0x20 DUP3 ADD MSTORE POP JUMP JUMPDEST PUSH1 0x0 PUSH2 0x62D2 PUSH1 0x28 DUP4 PUSH2 0x428F JUMP JUMPDEST SWAP2 POP PUSH2 0x62DD DUP3 PUSH2 0x6276 JUMP JUMPDEST PUSH1 0x40 DUP3 ADD SWAP1 POP SWAP2 SWAP1 POP JUMP JUMPDEST PUSH1 0x0 PUSH1 0x20 DUP3 ADD SWAP1 POP DUP2 DUP2 SUB PUSH1 0x0 DUP4 ADD MSTORE PUSH2 0x6301 DUP2 PUSH2 0x62C5 JUMP JUMPDEST SWAP1 POP SWAP2 SWAP1 POP JUMP JUMPDEST PUSH1 0x0 PUSH1 0x40 DUP3 ADD SWAP1 POP DUP2 DUP2 SUB PUSH1 0x0 DUP4 ADD MSTORE PUSH2 0x6322 DUP2 DUP6 PUSH2 0x4B3F JUMP JUMPDEST SWAP1 POP DUP2 DUP2 SUB PUSH1 0x20 DUP4 ADD MSTORE PUSH2 0x6336 DUP2 DUP5 PUSH2 0x4B3F JUMP JUMPDEST SWAP1 POP SWAP4 SWAP3 POP POP POP JUMP JUMPDEST PUSH32 0x455243313135353A207472616E7366657220746F20746865207A65726F206164 PUSH1 0x0 DUP3 ADD MSTORE PUSH32 0x6472657373000000000000000000000000000000000000000000000000000000 PUSH1 0x20 DUP3 ADD MSTORE POP JUMP JUMPDEST PUSH1 0x0 PUSH2 0x639B PUSH1 0x25 DUP4 PUSH2 0x428F JUMP JUMPDEST SWAP2 POP PUSH2 0x63A6 DUP3 PUSH2 0x633F JUMP JUMPDEST PUSH1 0x40 DUP3 ADD SWAP1 POP SWAP2 SWAP1 POP JUMP JUMPDEST PUSH1 0x0 PUSH1 0x20 DUP3 ADD SWAP1 POP DUP2 DUP2 SUB PUSH1 0x0 DUP4 ADD MSTORE PUSH2 0x63CA DUP2 PUSH2 0x638E JUMP JUMPDEST SWAP1 POP SWAP2 SWAP1 POP JUMP JUMPDEST PUSH32 0x455243313135353A20696E73756666696369656E742062616C616E636520666F PUSH1 0x0 DUP3 ADD MSTORE PUSH32 0x72207472616E7366657200000000000000000000000000000000000000000000 PUSH1 0x20 DUP3 ADD MSTORE POP JUMP JUMPDEST PUSH1 0x0 PUSH2 0x642D PUSH1 0x2A DUP4 PUSH2 0x428F JUMP JUMPDEST SWAP2 POP PUSH2 0x6438 DUP3 PUSH2 0x63D1 JUMP JUMPDEST PUSH1 0x40 DUP3 ADD SWAP1 POP SWAP2 SWAP1 POP JUMP JUMPDEST PUSH1 0x0 PUSH1 0x20 DUP3 ADD SWAP1 POP DUP2 DUP2 SUB PUSH1 0x0 DUP4 ADD MSTORE PUSH2 0x645C DUP2 PUSH2 0x6420 JUMP JUMPDEST SWAP1 POP SWAP2 SWAP1 POP JUMP JUMPDEST PUSH1 0x0 PUSH1 0x20 PUSH1 0x1F DUP4 ADD DIV SWAP1 POP SWAP2 SWAP1 POP JUMP JUMPDEST PUSH1 0x0 DUP3 DUP3 SHL SWAP1 POP SWAP3 SWAP2 POP POP JUMP JUMPDEST PUSH1 0x0 PUSH1 0x8 DUP4 MUL PUSH2 0x64B0 PUSH32 0xFFFFFFFFFFFFFFFFFFFFFFFFFFFFFFFFFFFFFFFFFFFFFFFFFFFFFFFFFFFFFFFF DUP3 PUSH2 0x6473 JUMP JUMPDEST PUSH2 0x64BA DUP7 DUP4 PUSH2 0x6473 JUMP JUMPDEST SWAP6 POP DUP1 NOT DUP5 AND SWAP4 POP DUP1 DUP7 AND DUP5 OR SWAP3 POP POP POP SWAP4 SWAP3 POP POP POP JUMP JUMPDEST PUSH1 0x0 PUSH2 0x64ED PUSH2 0x64E8 PUSH2 0x64E3 DUP5 PUSH2 0x40FC JUMP JUMPDEST PUSH2 0x4E3F JUMP JUMPDEST PUSH2 0x40FC JUMP JUMPDEST SWAP1 POP SWAP2 SWAP1 POP JUMP JUMPDEST PUSH1 0x0 DUP2 SWAP1 POP SWAP2 SWAP1 POP JUMP JUMPDEST PUSH2 0x6507 DUP4 PUSH2 0x64D2 JUMP JUMPDEST PUSH2 0x651B PUSH2 0x6513 DUP3 PUSH2 0x64F4 JUMP JUMPDEST DUP5 DUP5 SLOAD PUSH2 0x6480 JUMP JUMPDEST DUP3 SSTORE POP POP POP POP JUMP JUMPDEST PUSH1 0x0 SWAP1 JUMP JUMPDEST PUSH2 0x6530 PUSH2 0x6523 JUMP JUMPDEST PUSH2 0x653B DUP2 DUP5 DUP5 PUSH2 0x64FE JUMP JUMPDEST POP POP POP JUMP JUMPDEST JUMPDEST DUP2 DUP2 LT ISZERO PUSH2 0x655F JUMPI PUSH2 0x6554 PUSH1 0x0 DUP3 PUSH2 0x6528 JUMP JUMPDEST PUSH1 0x1 DUP2 ADD SWAP1 POP PUSH2 0x6541 JUMP JUMPDEST POP POP JUMP JUMPDEST PUSH1 0x1F DUP3 GT ISZERO PUSH2 0x65A4 JUMPI PUSH2 0x6575 DUP2 PUSH2 0x510D JUMP JUMPDEST PUSH2 0x657E DUP5 PUSH2 0x6463 JUMP JUMPDEST DUP2 ADD PUSH1 0x20 DUP6 LT ISZERO PUSH2 0x658D JUMPI DUP2 SWAP1 POP JUMPDEST PUSH2 0x65A1 PUSH2 0x6599 DUP6 PUSH2 0x6463 JUMP JUMPDEST DUP4 ADD DUP3 PUSH2 0x6540 JUMP JUMPDEST POP POP JUMPDEST POP POP POP JUMP JUMPDEST PUSH1 0x0 DUP3 DUP3 SHR SWAP1 POP SWAP3 SWAP2 POP POP JUMP JUMPDEST PUSH1 0x0 PUSH2 0x65C7 PUSH1 0x0 NOT DUP5 PUSH1 0x8 MUL PUSH2 0x65A9 JUMP JUMPDEST NOT DUP1 DUP4 AND SWAP2 POP POP SWAP3 SWAP2 POP POP JUMP JUMPDEST PUSH1 0x0 PUSH2 0x65E0 DUP4 DUP4 PUSH2 0x65B6 JUMP JUMPDEST SWAP2 POP DUP3 PUSH1 0x2 MUL DUP3 OR SWAP1 POP SWAP3 SWAP2 POP POP JUMP JUMPDEST PUSH2 0x65F9 DUP3 PUSH2 0x4284 JUMP JUMPDEST PUSH8 0xFFFFFFFFFFFFFFFF DUP2 GT ISZERO PUSH2 0x6612 JUMPI PUSH2 0x6611 PUSH2 0x433B JUMP JUMPDEST JUMPDEST PUSH2 0x661C DUP3 SLOAD PUSH2 0x50D1 JUMP JUMPDEST PUSH2 0x6627 DUP3 DUP3 DUP6 PUSH2 0x6563 JUMP JUMPDEST PUSH1 0x0 PUSH1 0x20 SWAP1 POP PUSH1 0x1F DUP4 GT PUSH1 0x1 DUP2 EQ PUSH2 0x665A JUMPI PUSH1 0x0 DUP5 ISZERO PUSH2 0x6648 JUMPI DUP3 DUP8 ADD MLOAD SWAP1 POP JUMPDEST PUSH2 0x6652 DUP6 DUP3 PUSH2 0x65D4 JUMP JUMPDEST DUP7 SSTORE POP PUSH2 0x66BA JUMP JUMPDEST PUSH1 0x1F NOT DUP5 AND PUSH2 0x6668 DUP7 PUSH2 0x510D JUMP JUMPDEST PUSH1 0x0 JUMPDEST DUP3 DUP2 LT ISZERO PUSH2 0x6690 JUMPI DUP5 DUP10 ADD MLOAD DUP3 SSTORE PUSH1 0x1 DUP3 ADD SWAP2 POP PUSH1 0x20 DUP6 ADD SWAP5 POP PUSH1 0x20 DUP2 ADD SWAP1 POP PUSH2 0x666B JUMP JUMPDEST DUP7 DUP4 LT ISZERO PUSH2 0x66AD JUMPI DUP5 DUP10 ADD MLOAD PUSH2 0x66A9 PUSH1 0x1F DUP10 AND DUP3 PUSH2 0x65B6 JUMP JUMPDEST DUP4 SSTORE POP JUMPDEST PUSH1 0x1 PUSH1 0x2 DUP9 MUL ADD DUP9 SSTORE POP POP POP JUMPDEST POP POP POP POP POP POP JUMP JUMPDEST PUSH32 0x496E697469616C697A61626C653A20636F6E7472616374206973206E6F742069 PUSH1 0x0 DUP3 ADD MSTORE PUSH32 0x6E697469616C697A696E67000000000000000000000000000000000000000000 PUSH1 0x20 DUP3 ADD MSTORE POP JUMP JUMPDEST PUSH1 0x0 PUSH2 0x671E PUSH1 0x2B DUP4 PUSH2 0x428F JUMP JUMPDEST SWAP2 POP PUSH2 0x6729 DUP3 PUSH2 0x66C2 JUMP JUMPDEST PUSH1 0x40 DUP3 ADD SWAP1 POP SWAP2 SWAP1 POP JUMP JUMPDEST PUSH1 0x0 PUSH1 0x20 DUP3 ADD SWAP1 POP DUP2 DUP2 SUB PUSH1 0x0 DUP4 ADD MSTORE PUSH2 0x674D DUP2 PUSH2 0x6711 JUMP JUMPDEST SWAP1 POP SWAP2 SWAP1 POP JUMP JUMPDEST PUSH32 0x5265656E7472616E637947756172643A207265656E7472616E742063616C6C00 PUSH1 0x0 DUP3 ADD MSTORE POP JUMP JUMPDEST PUSH1 0x0 PUSH2 0x678A PUSH1 0x1F DUP4 PUSH2 0x428F JUMP JUMPDEST SWAP2 POP PUSH2 0x6795 DUP3 PUSH2 0x6754 JUMP JUMPDEST PUSH1 0x20 DUP3 ADD SWAP1 POP SWAP2 SWAP1 POP JUMP JUMPDEST PUSH1 0x0 PUSH1 0x20 DUP3 ADD SWAP1 POP DUP2 DUP2 SUB PUSH1 0x0 DUP4 ADD MSTORE PUSH2 0x67B9 DUP2 PUSH2 0x677D JUMP JUMPDEST SWAP1 POP SWAP2 SWAP1 POP JUMP JUMPDEST PUSH32 0x4355000000000000000000000000000000000000000000000000000000000000 PUSH1 0x0 DUP3 ADD MSTORE POP JUMP JUMPDEST PUSH1 0x0 PUSH2 0x67F6 PUSH1 0x2 DUP4 PUSH2 0x428F JUMP JUMPDEST SWAP2 POP PUSH2 0x6801 DUP3 PUSH2 0x67C0 JUMP JUMPDEST PUSH1 0x20 DUP3 ADD SWAP1 POP SWAP2 SWAP1 POP JUMP JUMPDEST PUSH1 0x0 PUSH1 0x20 DUP3 ADD SWAP1 POP DUP2 DUP2 SUB PUSH1 0x0 DUP4 ADD MSTORE PUSH2 0x6825 DUP2 PUSH2 0x67E9 JUMP JUMPDEST SWAP1 POP SWAP2 SWAP1 POP JUMP JUMPDEST PUSH32 0x414C5A0000000000000000000000000000000000000000000000000000000000 PUSH1 0x0 DUP3 ADD MSTORE POP JUMP JUMPDEST PUSH1 0x0 PUSH2 0x6862 PUSH1 0x3 DUP4 PUSH2 0x428F JUMP JUMPDEST SWAP2 POP PUSH2 0x686D DUP3 PUSH2 0x682C JUMP JUMPDEST PUSH1 0x20 DUP3 ADD SWAP1 POP SWAP2 SWAP1 POP JUMP JUMPDEST PUSH1 0x0 PUSH1 0x20 DUP3 ADD SWAP1 POP DUP2 DUP2 SUB PUSH1 0x0 DUP4 ADD MSTORE PUSH2 0x6891 DUP2 PUSH2 0x6855 JUMP JUMPDEST SWAP1 POP SWAP2 SWAP1 POP JUMP JUMPDEST PUSH1 0x0 PUSH1 0x40 DUP3 ADD SWAP1 POP PUSH2 0x68AD PUSH1 0x0 DUP4 ADD DUP6 PUSH2 0x4172 JUMP JUMPDEST PUSH2 0x68BA PUSH1 0x20 DUP4 ADD DUP5 PUSH2 0x4172 JUMP JUMPDEST SWAP4 SWAP3 POP POP POP JUMP JUMPDEST PUSH32 0x455243313135353A2073657474696E6720617070726F76616C20737461747573 PUSH1 0x0 DUP3 ADD MSTORE PUSH32 0x20666F722073656C660000000000000000000000000000000000000000000000 PUSH1 0x20 DUP3 ADD MSTORE POP JUMP JUMPDEST PUSH1 0x0 PUSH2 0x691D PUSH1 0x29 DUP4 PUSH2 0x428F JUMP JUMPDEST SWAP2 POP PUSH2 0x6928 DUP3 PUSH2 0x68C1 JUMP JUMPDEST PUSH1 0x40 DUP3 ADD SWAP1 POP SWAP2 SWAP1 POP JUMP JUMPDEST PUSH1 0x0 PUSH1 0x20 DUP3 ADD SWAP1 POP DUP2 DUP2 SUB PUSH1 0x0 DUP4 ADD MSTORE PUSH2 0x694C DUP2 PUSH2 0x6910 JUMP JUMPDEST SWAP1 POP SWAP2 SWAP1 POP JUMP JUMPDEST PUSH32 0x455243313135353A206275726E2066726F6D20746865207A65726F2061646472 PUSH1 0x0 DUP3 ADD MSTORE PUSH32 0x6573730000000000000000000000000000000000000000000000000000000000 PUSH1 0x20 DUP3 ADD MSTORE POP JUMP JUMPDEST PUSH1 0x0 PUSH2 0x69AF PUSH1 0x23 DUP4 PUSH2 0x428F JUMP JUMPDEST SWAP2 POP PUSH2 0x69BA DUP3 PUSH2 0x6953 JUMP JUMPDEST PUSH1 0x40 DUP3 ADD SWAP1 POP SWAP2 SWAP1 POP JUMP JUMPDEST PUSH1 0x0 PUSH1 0x20 DUP3 ADD SWAP1 POP DUP2 DUP2 SUB PUSH1 0x0 DUP4 ADD MSTORE PUSH2 0x69DE DUP2 PUSH2 0x69A2 JUMP JUMPDEST SWAP1 POP SWAP2 SWAP1 POP JUMP JUMPDEST PUSH32 0x455243313135353A206275726E20616D6F756E7420657863656564732062616C PUSH1 0x0 DUP3 ADD MSTORE PUSH32 0x616E636500000000000000000000000000000000000000000000000000000000 PUSH1 0x20 DUP3 ADD MSTORE POP JUMP JUMPDEST PUSH1 0x0 PUSH2 0x6A41 PUSH1 0x24 DUP4 PUSH2 0x428F JUMP JUMPDEST SWAP2 POP PUSH2 0x6A4C DUP3 PUSH2 0x69E5 JUMP JUMPDEST PUSH1 0x40 DUP3 ADD SWAP1 POP SWAP2 SWAP1 POP JUMP JUMPDEST PUSH1 0x0 PUSH1 0x20 DUP3 ADD SWAP1 POP DUP2 DUP2 SUB PUSH1 0x0 DUP4 ADD MSTORE PUSH2 0x6A70 DUP2 PUSH2 0x6A34 JUMP JUMPDEST SWAP1 POP SWAP2 SWAP1 POP JUMP JUMPDEST PUSH1 0x0 DUP2 MLOAD SWAP1 POP SWAP2 SWAP1 POP JUMP JUMPDEST PUSH1 0x0 DUP3 DUP3 MSTORE PUSH1 0x20 DUP3 ADD SWAP1 POP SWAP3 SWAP2 POP POP JUMP JUMPDEST PUSH1 0x0 PUSH2 0x6A9E DUP3 PUSH2 0x6A77 JUMP JUMPDEST PUSH2 0x6AA8 DUP2 DUP6 PUSH2 0x6A82 JUMP JUMPDEST SWAP4 POP PUSH2 0x6AB8 DUP2 DUP6 PUSH1 0x20 DUP7 ADD PUSH2 0x42A0 JUMP JUMPDEST PUSH2 0x6AC1 DUP2 PUSH2 0x42CA JUMP JUMPDEST DUP5 ADD SWAP2 POP POP SWAP3 SWAP2 POP POP JUMP JUMPDEST PUSH1 0x0 PUSH1 0xA0 DUP3 ADD SWAP1 POP PUSH2 0x6AE1 PUSH1 0x0 DUP4 ADD DUP9 PUSH2 0x47CC JUMP JUMPDEST PUSH2 0x6AEE PUSH1 0x20 DUP4 ADD DUP8 PUSH2 0x47CC JUMP JUMPDEST DUP2 DUP2 SUB PUSH1 0x40 DUP4 ADD MSTORE PUSH2 0x6B00 DUP2 DUP7 PUSH2 0x4B3F JUMP JUMPDEST SWAP1 POP DUP2 DUP2 SUB PUSH1 0x60 DUP4 ADD MSTORE PUSH2 0x6B14 DUP2 DUP6 PUSH2 0x4B3F JUMP JUMPDEST SWAP1 POP DUP2 DUP2 SUB PUSH1 0x80 DUP4 ADD MSTORE PUSH2 0x6B28 DUP2 DUP5 PUSH2 0x6A93 JUMP JUMPDEST SWAP1 POP SWAP7 SWAP6 POP POP POP POP POP POP JUMP JUMPDEST PUSH1 0x0 DUP2 MLOAD SWAP1 POP PUSH2 0x6B43 DUP2 PUSH2 0x41C8 JUMP JUMPDEST SWAP3 SWAP2 POP POP JUMP JUMPDEST PUSH1 0x0 PUSH1 0x20 DUP3 DUP5 SUB SLT ISZERO PUSH2 0x6B5F JUMPI PUSH2 0x6B5E PUSH2 0x4094 JUMP JUMPDEST JUMPDEST PUSH1 0x0 PUSH2 0x6B6D DUP5 DUP3 DUP6 ADD PUSH2 0x6B34 JUMP JUMPDEST SWAP2 POP POP SWAP3 SWAP2 POP POP JUMP JUMPDEST PUSH1 0x0 DUP2 PUSH1 0xE0 SHR SWAP1 POP SWAP2 SWAP1 POP JUMP JUMPDEST PUSH1 0x0 PUSH1 0x3 RETURNDATASIZE GT ISZERO PUSH2 0x6BA2 JUMPI PUSH1 0x4 PUSH1 0x0 DUP1 RETURNDATACOPY PUSH2 0x6B9F PUSH1 0x0 MLOAD PUSH2 0x6B76 JUMP JUMPDEST SWAP1 POP JUMPDEST SWAP1 JUMP JUMPDEST PUSH1 0x0 PUSH1 0x44 RETURNDATASIZE LT PUSH2 0x6C32 JUMPI PUSH2 0x6BB7 PUSH2 0x408A JUMP JUMPDEST PUSH1 0x4 RETURNDATASIZE SUB PUSH1 0x4 DUP3 RETURNDATACOPY DUP1 MLOAD RETURNDATASIZE PUSH1 0x24 DUP3 ADD GT PUSH8 0xFFFFFFFFFFFFFFFF DUP3 GT OR ISZERO PUSH2 0x6BDF JUMPI POP POP PUSH2 0x6C32 JUMP JUMPDEST DUP1 DUP3 ADD DUP1 MLOAD PUSH8 0xFFFFFFFFFFFFFFFF DUP2 GT ISZERO PUSH2 0x6BFD JUMPI POP POP POP POP PUSH2 0x6C32 JUMP JUMPDEST DUP1 PUSH1 0x20 DUP4 ADD ADD PUSH1 0x4 RETURNDATASIZE SUB DUP6 ADD DUP2 GT ISZERO PUSH2 0x6C1A JUMPI POP POP POP POP POP PUSH2 0x6C32 JUMP JUMPDEST PUSH2 0x6C29 DUP3 PUSH1 0x20 ADD DUP6 ADD DUP7 PUSH2 0x436A JUMP JUMPDEST DUP3 SWAP6 POP POP POP POP POP POP JUMPDEST SWAP1 JUMP JUMPDEST PUSH32 0x455243313135353A207472616E7366657220746F206E6F6E2D45524331313535 PUSH1 0x0 DUP3 ADD MSTORE PUSH32 0x526563656976657220696D706C656D656E746572000000000000000000000000 PUSH1 0x20 DUP3 ADD MSTORE POP JUMP JUMPDEST PUSH1 0x0 PUSH2 0x6C91 PUSH1 0x34 DUP4 PUSH2 0x428F JUMP JUMPDEST SWAP2 POP PUSH2 0x6C9C DUP3 PUSH2 0x6C35 JUMP JUMPDEST PUSH1 0x40 DUP3 ADD SWAP1 POP SWAP2 SWAP1 POP JUMP JUMPDEST PUSH1 0x0 PUSH1 0x20 DUP3 ADD SWAP1 POP DUP2 DUP2 SUB PUSH1 0x0 DUP4 ADD MSTORE PUSH2 0x6CC0 DUP2 PUSH2 0x6C84 JUMP JUMPDEST SWAP1 POP SWAP2 SWAP1 POP JUMP JUMPDEST PUSH32 0x455243313135353A204552433131353552656365697665722072656A65637465 PUSH1 0x0 DUP3 ADD MSTORE PUSH32 0x6420746F6B656E73000000000000000000000000000000000000000000000000 PUSH1 0x20 DUP3 ADD MSTORE POP JUMP JUMPDEST PUSH1 0x0 PUSH2 0x6D23 PUSH1 0x28 DUP4 PUSH2 0x428F JUMP JUMPDEST SWAP2 POP PUSH2 0x6D2E DUP3 PUSH2 0x6CC7 JUMP JUMPDEST PUSH1 0x40 DUP3 ADD SWAP1 POP SWAP2 SWAP1 POP JUMP JUMPDEST PUSH1 0x0 PUSH1 0x20 DUP3 ADD SWAP1 POP DUP2 DUP2 SUB PUSH1 0x0 DUP4 ADD MSTORE PUSH2 0x6D52 DUP2 PUSH2 0x6D16 JUMP JUMPDEST SWAP1 POP SWAP2 SWAP1 POP JUMP JUMPDEST PUSH32 0x1901000000000000000000000000000000000000000000000000000000000000 PUSH1 0x0 DUP3 ADD MSTORE POP JUMP JUMPDEST PUSH1 0x0 PUSH2 0x6D8F PUSH1 0x2 DUP4 PUSH2 0x5102 JUMP JUMPDEST SWAP2 POP PUSH2 0x6D9A DUP3 PUSH2 0x6D59 JUMP JUMPDEST PUSH1 0x2 DUP3 ADD SWAP1 POP SWAP2 SWAP1 POP JUMP JUMPDEST PUSH1 0x0 DUP2 SWAP1 POP SWAP2 SWAP1 POP JUMP JUMPDEST PUSH2 0x6DC0 PUSH2 0x6DBB DUP3 PUSH2 0x5364 JUMP JUMPDEST PUSH2 0x6DA5 JUMP JUMPDEST DUP3 MSTORE POP POP JUMP JUMPDEST PUSH1 0x0 PUSH2 0x6DD1 DUP3 PUSH2 0x6D82 JUMP JUMPDEST SWAP2 POP PUSH2 0x6DDD DUP3 DUP6 PUSH2 0x6DAF JUMP JUMPDEST PUSH1 0x20 DUP3 ADD SWAP2 POP PUSH2 0x6DED DUP3 DUP5 PUSH2 0x6DAF JUMP JUMPDEST PUSH1 0x20 DUP3 ADD SWAP2 POP DUP2 SWAP1 POP SWAP4 SWAP3 POP POP POP JUMP JUMPDEST PUSH32 0x4E487B7100000000000000000000000000000000000000000000000000000000 PUSH1 0x0 MSTORE PUSH1 0x21 PUSH1 0x4 MSTORE PUSH1 0x24 PUSH1 0x0 REVERT JUMPDEST PUSH32 0x45434453413A20696E76616C6964207369676E61747572650000000000000000 PUSH1 0x0 DUP3 ADD MSTORE POP JUMP JUMPDEST PUSH1 0x0 PUSH2 0x6E62 PUSH1 0x18 DUP4 PUSH2 0x428F JUMP JUMPDEST SWAP2 POP PUSH2 0x6E6D DUP3 PUSH2 0x6E2C JUMP JUMPDEST PUSH1 0x20 DUP3 ADD SWAP1 POP SWAP2 SWAP1 POP JUMP JUMPDEST PUSH1 0x0 PUSH1 0x20 DUP3 ADD SWAP1 POP DUP2 DUP2 SUB PUSH1 0x0 DUP4 ADD MSTORE PUSH2 0x6E91 DUP2 PUSH2 0x6E55 JUMP JUMPDEST SWAP1 POP SWAP2 SWAP1 POP JUMP JUMPDEST PUSH32 0x45434453413A20696E76616C6964207369676E6174757265206C656E67746800 PUSH1 0x0 DUP3 ADD MSTORE POP JUMP JUMPDEST PUSH1 0x0 PUSH2 0x6ECE PUSH1 0x1F DUP4 PUSH2 0x428F JUMP JUMPDEST SWAP2 POP PUSH2 0x6ED9 DUP3 PUSH2 0x6E98 JUMP JUMPDEST PUSH1 0x20 DUP3 ADD SWAP1 POP SWAP2 SWAP1 POP JUMP JUMPDEST PUSH1 0x0 PUSH1 0x20 DUP3 ADD SWAP1 POP DUP2 DUP2 SUB PUSH1 0x0 DUP4 ADD MSTORE PUSH2 0x6EFD DUP2 PUSH2 0x6EC1 JUMP JUMPDEST SWAP1 POP SWAP2 SWAP1 POP JUMP JUMPDEST PUSH32 0x45434453413A20696E76616C6964207369676E6174757265202773272076616C PUSH1 0x0 DUP3 ADD MSTORE PUSH32 0x7565000000000000000000000000000000000000000000000000000000000000 PUSH1 0x20 DUP3 ADD MSTORE POP JUMP JUMPDEST PUSH1 0x0 PUSH2 0x6F60 PUSH1 0x22 DUP4 PUSH2 0x428F JUMP JUMPDEST SWAP2 POP PUSH2 0x6F6B DUP3 PUSH2 0x6F04 JUMP JUMPDEST PUSH1 0x40 DUP3 ADD SWAP1 POP SWAP2 SWAP1 POP JUMP JUMPDEST PUSH1 0x0 PUSH1 0x20 DUP3 ADD SWAP1 POP DUP2 DUP2 SUB PUSH1 0x0 DUP4 ADD MSTORE PUSH2 0x6F8F DUP2 PUSH2 0x6F53 JUMP JUMPDEST SWAP1 POP SWAP2 SWAP1 POP JUMP JUMPDEST PUSH1 0x0 PUSH1 0xA0 DUP3 ADD SWAP1 POP PUSH2 0x6FAB PUSH1 0x0 DUP4 ADD DUP9 PUSH2 0x47CC JUMP JUMPDEST PUSH2 0x6FB8 PUSH1 0x20 DUP4 ADD DUP8 PUSH2 0x47CC JUMP JUMPDEST PUSH2 0x6FC5 PUSH1 0x40 DUP4 ADD DUP7 PUSH2 0x4172 JUMP JUMPDEST PUSH2 0x6FD2 PUSH1 0x60 DUP4 ADD DUP6 PUSH2 0x4172 JUMP JUMPDEST DUP2 DUP2 SUB PUSH1 0x80 DUP4 ADD MSTORE PUSH2 0x6FE4 DUP2 DUP5 PUSH2 0x6A93 JUMP JUMPDEST SWAP1 POP SWAP7 SWAP6 POP POP POP POP POP POP JUMP JUMPDEST PUSH1 0x0 PUSH1 0xA0 DUP3 ADD SWAP1 POP PUSH2 0x7005 PUSH1 0x0 DUP4 ADD DUP9 PUSH2 0x536E JUMP JUMPDEST PUSH2 0x7012 PUSH1 0x20 DUP4 ADD DUP8 PUSH2 0x536E JUMP JUMPDEST PUSH2 0x701F PUSH1 0x40 DUP4 ADD DUP7 PUSH2 0x536E JUMP JUMPDEST PUSH2 0x702C PUSH1 0x60 DUP4 ADD DUP6 PUSH2 0x4172 JUMP JUMPDEST PUSH2 0x7039 PUSH1 0x80 DUP4 ADD DUP5 PUSH2 0x47CC JUMP JUMPDEST SWAP7 SWAP6 POP POP POP POP POP POP JUMP JUMPDEST PUSH2 0x704C DUP2 PUSH2 0x5821 JUMP JUMPDEST DUP3 MSTORE POP POP JUMP JUMPDEST PUSH1 0x0 PUSH1 0x80 DUP3 ADD SWAP1 POP PUSH2 0x7067 PUSH1 0x0 DUP4 ADD DUP8 PUSH2 0x536E JUMP JUMPDEST PUSH2 0x7074 PUSH1 0x20 DUP4 ADD DUP7 PUSH2 0x7043 JUMP JUMPDEST PUSH2 0x7081 PUSH1 0x40 DUP4 ADD DUP6 PUSH2 0x536E JUMP JUMPDEST PUSH2 0x708E PUSH1 0x60 DUP4 ADD DUP5 PUSH2 0x536E JUMP JUMPDEST SWAP6 SWAP5 POP POP POP POP POP JUMP INVALID LOG2 PUSH5 0x6970667358 0x22 SLT KECCAK256 0xA7 0x5E SSTORE SWAP14 0xAD 0x4B 0x26 0x4B SWAP7 CALL 0x4E 0xD3 DUP6 0xF9 0x5E PUSH25 0xD1CA72C51EFE4D06D6A23B805DEBD5AE64736F6C6343000811 STOP CALLER "
		},
		"gasEstimates": {
			"creation": {
				"codeDepositCost": "5775400",
				"executionCost": "7061",
				"totalCost": "5782461"
			},
			"external": {
				"admin()": "2624",
				"amountLeft(uint256)": "infinite",
				"balanceOf(address,uint256)": "infinite",
				"balanceOfBatch(address[],uint256[])": "infinite",
				"buyToken((uint256,uint256,uint256,uint256,address,bytes),(uint256,uint256,uint256,uint256,address,bytes))": "infinite",
				"createToken((uint256,uint256,string,address,bytes))": "infinite",
				"factory()": "infinite",
				"initialize(string,address,address,uint256,address)": "infinite",
				"isApprovedForAll(address,address)": "infinite",
				"mintBatch(address,uint256[],uint256[],bytes)": "infinite",
				"owner()": "2612",
				"platformFee()": "2497",
				"renounceOwnership()": "30487",
				"resetVoucherCounter((uint256,uint256,uint256,uint256,address,bytes))": "infinite",
				"safeBatchTransferFrom(address,address,uint256[],uint256[],bytes)": "infinite",
				"safeBurn(address,uint256,uint256)": "infinite",
				"safeTransferFrom(address,address,uint256,uint256,bytes)": "infinite",
				"setApprovalForAll(address,bool)": "infinite",
				"supply(uint256)": "infinite",
				"supportsInterface(bytes4)": "842",
				"tokenSupply(uint256)": "infinite",
				"transferOwnership(address)": "30832",
				"updateFactory(address)": "27016",
				"updatePlatformFee(uint256)": "24824",
				"uri(uint256)": "infinite",
				"usedBuyDataCounters(uint256)": "2863",
				"usedListingCounters(uint256)": "2908",
				"verifyBuyDetails((uint256,uint256,uint256,uint256,address,bytes))": "infinite",
				"verifyNFTDetails((uint256,uint256,string,address,bytes))": "infinite",
				"verifyNFTListing((uint256,uint256,uint256,uint256,address,bytes))": "infinite"
			},
			"internal": {
				"_mint(address,uint256,uint256,bytes memory)": "infinite",
				"setCounter(struct structs.NFTListing memory,uint256)": "infinite"
			}
		},
		"methodIdentifiers": {
			"admin()": "f851a440",
			"amountLeft(uint256)": "a8368f33",
			"balanceOf(address,uint256)": "00fdd58e",
			"balanceOfBatch(address[],uint256[])": "4e1273f4",
			"buyToken((uint256,uint256,uint256,uint256,address,bytes),(uint256,uint256,uint256,uint256,address,bytes))": "9d445d1d",
			"createToken((uint256,uint256,string,address,bytes))": "5c0fedb5",
			"factory()": "c45a0155",
			"initialize(string,address,address,uint256,address)": "86599d5c",
			"isApprovedForAll(address,address)": "e985e9c5",
			"mintBatch(address,uint256[],uint256[],bytes)": "1f7fdffa",
			"owner()": "8da5cb5b",
			"platformFee()": "26232a2e",
			"renounceOwnership()": "715018a6",
			"resetVoucherCounter((uint256,uint256,uint256,uint256,address,bytes))": "8988f272",
			"safeBatchTransferFrom(address,address,uint256[],uint256[],bytes)": "2eb2c2d6",
			"safeBurn(address,uint256,uint256)": "e9758b72",
			"safeTransferFrom(address,address,uint256,uint256,bytes)": "f242432a",
			"setApprovalForAll(address,bool)": "a22cb465",
			"supply(uint256)": "35403023",
			"supportsInterface(bytes4)": "01ffc9a7",
			"tokenSupply(uint256)": "2693ebf2",
			"transferOwnership(address)": "f2fde38b",
			"updateFactory(address)": "d9f165dc",
			"updatePlatformFee(uint256)": "aa0b5988",
			"uri(uint256)": "0e89341c",
			"usedBuyDataCounters(uint256)": "c7404b63",
			"usedListingCounters(uint256)": "4d839081",
			"verifyBuyDetails((uint256,uint256,uint256,uint256,address,bytes))": "2ee7b7b4",
			"verifyNFTDetails((uint256,uint256,string,address,bytes))": "36fdc2b4",
			"verifyNFTListing((uint256,uint256,uint256,uint256,address,bytes))": "7973bd1e"
		}
	},
	"abi": [
		{
			"anonymous": false,
			"inputs": [
				{
					"indexed": true,
					"internalType": "address",
					"name": "account",
					"type": "address"
				},
				{
					"indexed": true,
					"internalType": "address",
					"name": "operator",
					"type": "address"
				},
				{
					"indexed": false,
					"internalType": "bool",
					"name": "approved",
					"type": "bool"
				}
			],
			"name": "ApprovalForAll",
			"type": "event"
		},
		{
			"anonymous": false,
			"inputs": [
				{
					"indexed": false,
					"internalType": "uint8",
					"name": "version",
					"type": "uint8"
				}
			],
			"name": "Initialized",
			"type": "event"
		},
		{
			"anonymous": false,
			"inputs": [
				{
					"indexed": true,
					"internalType": "address",
					"name": "previousOwner",
					"type": "address"
				},
				{
					"indexed": true,
					"internalType": "address",
					"name": "newOwner",
					"type": "address"
				}
			],
			"name": "OwnershipTransferred",
			"type": "event"
		},
		{
			"anonymous": false,
			"inputs": [
				{
					"indexed": true,
					"internalType": "address",
					"name": "operator",
					"type": "address"
				},
				{
					"indexed": true,
					"internalType": "address",
					"name": "from",
					"type": "address"
				},
				{
					"indexed": true,
					"internalType": "address",
					"name": "to",
					"type": "address"
				},
				{
					"indexed": false,
					"internalType": "uint256[]",
					"name": "ids",
					"type": "uint256[]"
				},
				{
					"indexed": false,
					"internalType": "uint256[]",
					"name": "values",
					"type": "uint256[]"
				}
			],
			"name": "TransferBatch",
			"type": "event"
		},
		{
			"anonymous": false,
			"inputs": [
				{
					"indexed": true,
					"internalType": "address",
					"name": "operator",
					"type": "address"
				},
				{
					"indexed": true,
					"internalType": "address",
					"name": "from",
					"type": "address"
				},
				{
					"indexed": true,
					"internalType": "address",
					"name": "to",
					"type": "address"
				},
				{
					"indexed": false,
					"internalType": "uint256",
					"name": "id",
					"type": "uint256"
				},
				{
					"indexed": false,
					"internalType": "uint256",
					"name": "value",
					"type": "uint256"
				}
			],
			"name": "TransferSingle",
			"type": "event"
		},
		{
			"anonymous": false,
			"inputs": [
				{
					"indexed": false,
					"internalType": "string",
					"name": "value",
					"type": "string"
				},
				{
					"indexed": true,
					"internalType": "uint256",
					"name": "id",
					"type": "uint256"
				}
			],
			"name": "URI",
			"type": "event"
		},
		{
			"inputs": [],
			"name": "admin",
			"outputs": [
				{
					"internalType": "address",
					"name": "",
					"type": "address"
				}
			],
			"stateMutability": "view",
			"type": "function"
		},
		{
			"inputs": [
				{
					"internalType": "uint256",
					"name": "",
					"type": "uint256"
				}
			],
			"name": "amountLeft",
			"outputs": [
				{
					"internalType": "uint256",
					"name": "",
					"type": "uint256"
				}
			],
			"stateMutability": "view",
			"type": "function"
		},
		{
			"inputs": [
				{
					"internalType": "address",
					"name": "account",
					"type": "address"
				},
				{
					"internalType": "uint256",
					"name": "id",
					"type": "uint256"
				}
			],
			"name": "balanceOf",
			"outputs": [
				{
					"internalType": "uint256",
					"name": "",
					"type": "uint256"
				}
			],
			"stateMutability": "view",
			"type": "function"
		},
		{
			"inputs": [
				{
					"internalType": "address[]",
					"name": "accounts",
					"type": "address[]"
				},
				{
					"internalType": "uint256[]",
					"name": "ids",
					"type": "uint256[]"
				}
			],
			"name": "balanceOfBatch",
			"outputs": [
				{
					"internalType": "uint256[]",
					"name": "",
					"type": "uint256[]"
				}
			],
			"stateMutability": "view",
			"type": "function"
		},
		{
			"inputs": [
				{
					"components": [
						{
							"internalType": "uint256",
							"name": "pricePerShare",
							"type": "uint256"
						},
						{
							"internalType": "uint256",
							"name": "tokenId",
							"type": "uint256"
						},
						{
							"internalType": "uint256",
							"name": "counter",
							"type": "uint256"
						},
						{
							"internalType": "uint256",
							"name": "nftAmount",
							"type": "uint256"
						},
						{
							"internalType": "address",
							"name": "owner",
							"type": "address"
						},
						{
							"internalType": "bytes",
							"name": "signature",
							"type": "bytes"
						}
					],
					"internalType": "struct structs.NFTListing",
					"name": "_nftListing",
					"type": "tuple"
				},
				{
					"components": [
						{
							"internalType": "uint256",
							"name": "conversionRate",
							"type": "uint256"
						},
						{
							"internalType": "uint256",
							"name": "amountToBuy",
							"type": "uint256"
						},
						{
							"internalType": "uint256",
							"name": "counter",
							"type": "uint256"
						},
						{
							"internalType": "uint256",
							"name": "timeStamp",
							"type": "uint256"
						},
						{
							"internalType": "address",
							"name": "currency",
							"type": "address"
						},
						{
							"internalType": "bytes",
							"name": "signature",
							"type": "bytes"
						}
					],
					"internalType": "struct structs.buyDetails",
					"name": "_buyData",
					"type": "tuple"
				}
			],
			"name": "buyToken",
			"outputs": [],
			"stateMutability": "payable",
			"type": "function"
		},
		{
			"inputs": [
				{
					"components": [
						{
							"internalType": "uint256",
							"name": "tokenId",
							"type": "uint256"
						},
						{
							"internalType": "uint256",
							"name": "fractionsQuantity",
							"type": "uint256"
						},
						{
							"internalType": "string",
							"name": "uri",
							"type": "string"
						},
						{
							"internalType": "address",
							"name": "owner",
							"type": "address"
						},
						{
							"internalType": "bytes",
							"name": "signature",
							"type": "bytes"
						}
					],
					"internalType": "struct structs.NFTDetails",
					"name": "_nftData",
					"type": "tuple"
				}
			],
			"name": "createToken",
			"outputs": [],
			"stateMutability": "nonpayable",
			"type": "function"
		},
		{
			"inputs": [],
			"name": "factory",
			"outputs": [
				{
					"internalType": "contract IFactory",
					"name": "",
					"type": "address"
				}
			],
			"stateMutability": "view",
			"type": "function"
		},
		{
			"inputs": [
				{
					"internalType": "string",
					"name": "_uri",
					"type": "string"
				},
				{
					"internalType": "address",
					"name": "_admin",
					"type": "address"
				},
				{
					"internalType": "address",
					"name": "_factory",
					"type": "address"
				},
				{
					"internalType": "uint256",
					"name": "_platformfee",
					"type": "uint256"
				},
				{
					"internalType": "address",
					"name": "_conversionRateOperator",
					"type": "address"
				}
			],
			"name": "initialize",
			"outputs": [],
			"stateMutability": "nonpayable",
			"type": "function"
		},
		{
			"inputs": [
				{
					"internalType": "address",
					"name": "account",
					"type": "address"
				},
				{
					"internalType": "address",
					"name": "operator",
					"type": "address"
				}
			],
			"name": "isApprovedForAll",
			"outputs": [
				{
					"internalType": "bool",
					"name": "",
					"type": "bool"
				}
			],
			"stateMutability": "view",
			"type": "function"
		},
		{
			"inputs": [
				{
					"internalType": "address",
					"name": "to",
					"type": "address"
				},
				{
					"internalType": "uint256[]",
					"name": "ids",
					"type": "uint256[]"
				},
				{
					"internalType": "uint256[]",
					"name": "amounts",
					"type": "uint256[]"
				},
				{
					"internalType": "bytes",
					"name": "data",
					"type": "bytes"
				}
			],
			"name": "mintBatch",
			"outputs": [],
			"stateMutability": "nonpayable",
			"type": "function"
		},
		{
			"inputs": [],
			"name": "owner",
			"outputs": [
				{
					"internalType": "address",
					"name": "",
					"type": "address"
				}
			],
			"stateMutability": "view",
			"type": "function"
		},
		{
			"inputs": [],
			"name": "platformFee",
			"outputs": [
				{
					"internalType": "uint256",
					"name": "",
					"type": "uint256"
				}
			],
			"stateMutability": "view",
			"type": "function"
		},
		{
			"inputs": [],
			"name": "renounceOwnership",
			"outputs": [],
			"stateMutability": "nonpayable",
			"type": "function"
		},
		{
			"inputs": [
				{
					"components": [
						{
							"internalType": "uint256",
							"name": "pricePerShare",
							"type": "uint256"
						},
						{
							"internalType": "uint256",
							"name": "tokenId",
							"type": "uint256"
						},
						{
							"internalType": "uint256",
							"name": "counter",
							"type": "uint256"
						},
						{
							"internalType": "uint256",
							"name": "nftAmount",
							"type": "uint256"
						},
						{
							"internalType": "address",
							"name": "owner",
							"type": "address"
						},
						{
							"internalType": "bytes",
							"name": "signature",
							"type": "bytes"
						}
					],
					"internalType": "struct structs.NFTListing",
					"name": "_nftListing",
					"type": "tuple"
				}
			],
			"name": "resetVoucherCounter",
			"outputs": [],
			"stateMutability": "nonpayable",
			"type": "function"
		},
		{
			"inputs": [
				{
					"internalType": "address",
					"name": "from",
					"type": "address"
				},
				{
					"internalType": "address",
					"name": "to",
					"type": "address"
				},
				{
					"internalType": "uint256[]",
					"name": "ids",
					"type": "uint256[]"
				},
				{
					"internalType": "uint256[]",
					"name": "amounts",
					"type": "uint256[]"
				},
				{
					"internalType": "bytes",
					"name": "data",
					"type": "bytes"
				}
			],
			"name": "safeBatchTransferFrom",
			"outputs": [],
			"stateMutability": "nonpayable",
			"type": "function"
		},
		{
			"inputs": [
				{
					"internalType": "address",
					"name": "from",
					"type": "address"
				},
				{
					"internalType": "uint256",
					"name": "id",
					"type": "uint256"
				},
				{
					"internalType": "uint256",
					"name": "amount",
					"type": "uint256"
				}
			],
			"name": "safeBurn",
			"outputs": [],
			"stateMutability": "nonpayable",
			"type": "function"
		},
		{
			"inputs": [
				{
					"internalType": "address",
					"name": "from",
					"type": "address"
				},
				{
					"internalType": "address",
					"name": "to",
					"type": "address"
				},
				{
					"internalType": "uint256",
					"name": "id",
					"type": "uint256"
				},
				{
					"internalType": "uint256",
					"name": "amount",
					"type": "uint256"
				},
				{
					"internalType": "bytes",
					"name": "data",
					"type": "bytes"
				}
			],
			"name": "safeTransferFrom",
			"outputs": [],
			"stateMutability": "nonpayable",
			"type": "function"
		},
		{
			"inputs": [
				{
					"internalType": "address",
					"name": "operator",
					"type": "address"
				},
				{
					"internalType": "bool",
					"name": "approved",
					"type": "bool"
				}
			],
			"name": "setApprovalForAll",
			"outputs": [],
			"stateMutability": "nonpayable",
			"type": "function"
		},
		{
			"inputs": [
				{
					"internalType": "uint256",
					"name": "",
					"type": "uint256"
				}
			],
			"name": "supply",
			"outputs": [
				{
					"internalType": "uint256",
					"name": "",
					"type": "uint256"
				}
			],
			"stateMutability": "view",
			"type": "function"
		},
		{
			"inputs": [
				{
					"internalType": "bytes4",
					"name": "interfaceId",
					"type": "bytes4"
				}
			],
			"name": "supportsInterface",
			"outputs": [
				{
					"internalType": "bool",
					"name": "",
					"type": "bool"
				}
			],
			"stateMutability": "view",
			"type": "function"
		},
		{
			"inputs": [
				{
					"internalType": "uint256",
					"name": "tokenID",
					"type": "uint256"
				}
			],
			"name": "tokenSupply",
			"outputs": [
				{
					"internalType": "uint256",
					"name": "",
					"type": "uint256"
				}
			],
			"stateMutability": "view",
			"type": "function"
		},
		{
			"inputs": [
				{
					"internalType": "address",
					"name": "newOwner",
					"type": "address"
				}
			],
			"name": "transferOwnership",
			"outputs": [],
			"stateMutability": "nonpayable",
			"type": "function"
		},
		{
			"inputs": [
				{
					"internalType": "address",
					"name": "_factory",
					"type": "address"
				}
			],
			"name": "updateFactory",
			"outputs": [],
			"stateMutability": "nonpayable",
			"type": "function"
		},
		{
			"inputs": [
				{
					"internalType": "uint256",
					"name": "_newFee",
					"type": "uint256"
				}
			],
			"name": "updatePlatformFee",
			"outputs": [],
			"stateMutability": "nonpayable",
			"type": "function"
		},
		{
			"inputs": [
				{
					"internalType": "uint256",
					"name": "tokenId",
					"type": "uint256"
				}
			],
			"name": "uri",
			"outputs": [
				{
					"internalType": "string",
					"name": "",
					"type": "string"
				}
			],
			"stateMutability": "view",
			"type": "function"
		},
		{
			"inputs": [
				{
					"internalType": "uint256",
					"name": "",
					"type": "uint256"
				}
			],
			"name": "usedBuyDataCounters",
			"outputs": [
				{
					"internalType": "bool",
					"name": "",
					"type": "bool"
				}
			],
			"stateMutability": "view",
			"type": "function"
		},
		{
			"inputs": [
				{
					"internalType": "uint256",
					"name": "",
					"type": "uint256"
				}
			],
			"name": "usedListingCounters",
			"outputs": [
				{
					"internalType": "bool",
					"name": "",
					"type": "bool"
				}
			],
			"stateMutability": "view",
			"type": "function"
		},
		{
			"inputs": [
				{
					"components": [
						{
							"internalType": "uint256",
							"name": "conversionRate",
							"type": "uint256"
						},
						{
							"internalType": "uint256",
							"name": "amountToBuy",
							"type": "uint256"
						},
						{
							"internalType": "uint256",
							"name": "counter",
							"type": "uint256"
						},
						{
							"internalType": "uint256",
							"name": "timeStamp",
							"type": "uint256"
						},
						{
							"internalType": "address",
							"name": "currency",
							"type": "address"
						},
						{
							"internalType": "bytes",
							"name": "signature",
							"type": "bytes"
						}
					],
					"internalType": "struct structs.buyDetails",
					"name": "_buyData",
					"type": "tuple"
				}
			],
			"name": "verifyBuyDetails",
			"outputs": [
				{
					"internalType": "address",
					"name": "",
					"type": "address"
				}
			],
			"stateMutability": "view",
			"type": "function"
		},
		{
			"inputs": [
				{
					"components": [
						{
							"internalType": "uint256",
							"name": "tokenId",
							"type": "uint256"
						},
						{
							"internalType": "uint256",
							"name": "fractionsQuantity",
							"type": "uint256"
						},
						{
							"internalType": "string",
							"name": "uri",
							"type": "string"
						},
						{
							"internalType": "address",
							"name": "owner",
							"type": "address"
						},
						{
							"internalType": "bytes",
							"name": "signature",
							"type": "bytes"
						}
					],
					"internalType": "struct structs.NFTDetails",
					"name": "_nftData",
					"type": "tuple"
				}
			],
			"name": "verifyNFTDetails",
			"outputs": [
				{
					"internalType": "address",
					"name": "",
					"type": "address"
				}
			],
			"stateMutability": "view",
			"type": "function"
		},
		{
			"inputs": [
				{
					"components": [
						{
							"internalType": "uint256",
							"name": "pricePerShare",
							"type": "uint256"
						},
						{
							"internalType": "uint256",
							"name": "tokenId",
							"type": "uint256"
						},
						{
							"internalType": "uint256",
							"name": "counter",
							"type": "uint256"
						},
						{
							"internalType": "uint256",
							"name": "nftAmount",
							"type": "uint256"
						},
						{
							"internalType": "address",
							"name": "owner",
							"type": "address"
						},
						{
							"internalType": "bytes",
							"name": "signature",
							"type": "bytes"
						}
					],
					"internalType": "struct structs.NFTListing",
					"name": "_nftListing",
					"type": "tuple"
				}
			],
			"name": "verifyNFTListing",
			"outputs": [
				{
					"internalType": "address",
					"name": "",
					"type": "address"
				}
			],
			"stateMutability": "view",
			"type": "function"
		}
	]
}